:020000040800F2
:10000000A8070020990700086D0500086F05000883
:1000100073050008770500087B0500080000000054
:100020000000000000000000000000007F05000844
:100030008105000800000000830500088505000810
:10004000B3070008B3070008B3070008B3070008A8
:10005000B3070008B3070008B3070008B307000898
:10006000B3070008B3070008B3070008B307000888
:10007000B3070008B3070008B3070008B307000878
:10008000B3070008B3070008B3070008B307000868
:10009000B3070008B3070008B3070008B307000858
:1000A000B3070008B3070008B3070008B307000848
:1000B000B30700080D2B0008B3070008B3070008BA
:1000C000B3070008B3070008B3070008B307000828
:1000D000B30700082B2A0008B3070008B30700087D
:1000E000B3070008B3070008B3070008B307000808
:1000F000B3070008B3070008B3070008B3070008F8
:10010000B3070008B3070008B3070008B3070008E7
:10011000B3070008B3070008B3070008B3070008D7
:10012000B3070008B3070008B3070008B3070008C7
:10013000B3070008B3070008B3070008B3070008B7
:10014000B3070008B3070008B3070008B3070008A7
:10015000B3070008B3070008B3070008B307000897
:10016000B3070008B3070008B3070008B307000887
:10017000B3070008B3070008B3070008B307000877
:10018000B3070008B307000800F002F800F041F8D8
:100190000AA090E8000C82448344AAF10107DA45E2
:1001A00001D100F036F8AFF2090EBAE80F0013F0F3
:1001B000010F18BFFB1A43F0010318473474000005
:1001C00054740000103A24BF78C878C1FAD8520796
:1001D00024BF30C830C144BF04680C6070470000C1
:1001E0000023002400250026103A28BF78C1FBD840
:1001F000520728BF30C148BF0B607047642903F025
:100200004983002070471FB503F02EFC1FBD10B5B9
:1002100010BD03F0F6FB1146FFF7F5FF00F042F9C1
:1002200003F014FC03B4FFF7F2FF03BC02F09EFBE3
:1002300001B502E00098401E009000980028F9D116
:1002400008BD10B59AB09E480078401C9C490870C3
:100250009C4803F0A6FA4FF6FF714FF4784003F084
:10026000A6FA99480388994802880021084603F0B5
:100270003AF803F099FA002495A1204603F007FA12
:1002800003F092FAC48898A1204603F000FA03F024
:100290008BFAC0884004040C9AA1204603F0F7F9B9
:1002A00003F082FAC08800EB400084B29AA1204695
:1002B00003F0EDF99F4803F074FA4FF4FC6003F08B
:1002C00082FA7F4802789CA101A803F09BFA03F010
:1002D0006BFAC0888004040C204603F07AFA03F01D
:1002E00063FAC0888004040C01A9204603F0CFF90A
:1002F000944803F056FA03F057FAC0888004040CBF
:10030000204603F066FA1F2003F05DFA03F04CFA72
:10031000C0888004040C8CA1204603F0B8F94FF487
:10032000784003F050FAE623D222AA21322003F0CB
:100330002AF8F023D222C821322003F024F84FF407
:10034000FC6003F040FAE623C822AA21642003F0EF
:100350001AF8F023DC22C821084603F014F81F2005
:1003600003F031FAE6236E22AA21104603F00BF8BF
:10037000F023DC22C821822003F005F86FF07F40D3
:10038000FFF756FF50480088803883B24F480288F4
:100390008021002002F0A7FF03F006FAC088800445
:1003A000040C204603F015FA1F2003F00CFA03F0AA
:1003B000FBF9C0888004040C66A1204603F067F9AD
:1003C0004FF4784003F0FFF901201E236422C82176
:1003D0000090322003F027F84FF4FC6003F0F3F9AB
:1003E000002028231422C8210090A02003F01BF82D
:1003F0001F2003F0E8F9012014233222C8210090C5
:10040000AA2003F010F86FF07F40FFF711FF2E488D
:100410000088803883B22D4802888021002002F0B5
:1004200062FF03F0C1F9C0888004040C204603F089
:10043000D0F91F2003F0C7F903F0B6F9C088800493
:10044000040C47A1204603F022F94FF4784003F052
:10045000BAF900231422C821642003F026F84FF4CF
:10046000FC6003F0B0F901230A22C821642003F0E4
:100470001CF81F2003F0A7F900231422C8218C20A8
:1004800003F013F86FF07F40FFF7D2FE0E480088AC
:10049000803883B20D4802888021002002F023FFBB
:1004A0001AB010BD00BFA82002F0DEF902F0C2FEB3
:1004B000062002F050FE01E0FFF7C3FEFCE700005B
:1004C00000000020340000206E0000206C0000209E
:1004D000424820332E3220696E6368204C4344200A
:1004E000706172613A000000496D61676520726554
:1004F000736F6C7574696F6E3A32343078333230A2
:1005000020707800494C4939333431204C43442021
:100510006472697665720000585054323034362067
:10052000546F7563682050616420647269766572E7
:10053000000000003C000020436F756E74203A20DC
:10054000256420004400002044726177206C696EAD
:10055000653A00004472617720526563743A000086
:1005600044726177204369723A000000704700BF0F
:10057000FEE700BFFEE700BFFEE700BFFEE77047F3
:1005800070477047704700000CB500200190009044
:100590007648006840F480307449086000BF7348B2
:1005A000006800F4003000900198401C0190009811
:1005B00018B90198B0F5A04FF1D16C48006800F46B
:1005C000003010B10120009001E000200090009860
:1005D000012846D165484030006840F080506349AA
:1005E000403108606248006840F44040604908605B
:1005F0005E48083000685D490831086008460068B8
:1006000040F4004008600846006840F4A0500860CC
:100610005848091F0860081F006840F08070091FD3
:10062000086000BF5148006800F000700028F9D051
:1006300040F20570504908604C480830006820F0CE
:1006400003004A49083108600846006840F002008B
:10065000086000BF45480830006800F00C0008281A
:10066000F8D10CBD10B54548006840F4700043490E
:1006700008603E48006840F001003C4908600020E6
:100680003A4908310860394800683D49084037490F
:1006900008603C48091D0860081F006820F480209D
:1006A000091F0860002031490C310860FFF76CFF1A
:1006B0004FF0006031498039086010BD70B50020EE
:1006C0000022022300240221284D08352D6805F060
:1006D0000C0020B1042806D0082834D107E02A4DA8
:1006E0002A4E356033E02A4D284E35602FE01F4DED
:1006F0002D1D2D68C5F380541C4D2D1D2D6805F052
:100700003F0154B1224DB5FBF1F5184E361D366848
:10071000C6F3881605FB06F209E01B4DB5FBF1F5A3
:10072000124E361D3668C6F3881605FB06F20F4DCD
:100730002D1D2D68C5F301456D1C6B00B2FBF3F553
:10074000124E356003E0104D104E356000BF00BF03
:10075000064D08352D68C5F303150E4E705D0B4D23
:100760002D68C540094E356070BD0000003802405C
:100770000070004008544007003C024088ED00E053
:10078000FFFFF6FE103000240024F40004000020D7
:1007900000127A00080000200948804709480047F5
:1007A000FEE7FEE7FEE7FEE7FEE7FEE7FEE7FEE721
:1007B000FEE7FEE704480549054A064B704700007E
:1007C0006506000889010008A8010020A80700208C
:1007D000A8030020A803002032490143324A1160D7
:1007E000704770B5002100230F22C4781CB32E4C33
:1007F000246804F4E064C4F5E064C4F30721C1F1A3
:100800000404E3B20A4144789C40E1B28478144085
:1008100021430C07210E254C05786155047804F01E
:100820001F050124AC4005786D11AD0005F1E025F0
:10083000C5F8004109E0047804F01F050124AC402C
:100840001B4D0678761145F8264070BD194A0A40BE
:100850000243154B1B1F1A60704739B1124A121D13
:1008600012680243104B1B1D1A6006E00E4A121D4F
:10087000126882430C4B1B1D1A607047042808D174
:100880004FF0E021096941F004014FF0E0221161CD
:1008900007E04FF0E021096921F004014FF0E02268
:1008A000116170470000FA050CED00E000E400E083
:1008B00080E100E080FFFF1F30B943F2DB028100DE
:1008C000A1F1C0410A6005E043F2D2028100A1F12A
:1008D000C0410A606FF07042411C8900A1F1C04123
:1008E0000A608100A1F1C041C1F804217047D0E93C
:1008F00001121143C2681143026911434269114355
:1009000082691143C2691143026A1143426A114369
:10091000826A1143C26A1143026B1143026892005A
:10092000A2F1C0421160816808290BD101688900D9
:10093000A1F1C041096841F0400201688900A1F1BC
:10094000C0410A60416B0968426B526841EA02117A
:10095000426B926841EA0221426B928941EA02416C
:10096000426B128A41EA0251426B127D41EA0261F6
:10097000426B926911430268521C9200A2F1C0427C
:100980001160C16AB1F5804F1BD1816B0968826B20
:10099000526841EA0211826B926841EA0221826B3D
:1009A000128A41EA0251826B127D41EA0261826B36
:1009B0009269114302689200A2F1C042C2F8041188
:1009C00007E06FF0704201688900A1F1C041C1F8F1
:1009D00004217047002101600221416000218160F3
:1009E000C160016141618161C16101624FF4805167
:1009F0004162490081620021C1620163F84941639B
:100A00008163704751B18200A2F1C042126842F086
:100A100001038200A2F1C042136009E08200A2F14A
:100A2000C0421268EF4B1A408300A3F1C0431A6022
:100A3000704710280AD118214FF02042116640213A
:100A400051664FF0FC319166D16610E01821E64AFC
:100A5000116040214FF02042C2F884104FF0FC3169
:100A6000E14A083211604FF02042C2F88C10704702
:100A700030B5002100220023446844F00804856852
:100A80002C43C5682C4305692C43456944EA452439
:100A9000856944EA4531C4692468C5696D6844EADA
:100AA0000524C5692D8944EA0544C5692D7B44EABE
:100AB0000562046A2468056A6D6844EA0524056ACB
:100AC0002D8944EA0544056A2D7B44EA05630468E0
:100AD000102C05D14FF020442166A266E36608E0A1
:100AE000C14C21604FF02044C4F88820BE4C0C3427
:100AF000236030BD10210160002141608160C16030
:100B0000016141618161FC21C2691160C26951606A
:100B1000C2699160C269D160026A1160026A516063
:100B2000026A9160026AD160704799B1102808D1B9
:100B30004FF02042126E42F004024FF020431A663A
:100B40001DE0A94A126842F004024FF02043C3F8A6
:100B5000802014E0102809D14FF02042126EA14BE2
:100B6000DB1E1A404FF020431A6608E09E4A1268C6
:100B70009C4BDB1E1A404FF02043C3F88020704787
:100B800099B1102808D14FF02042126E42F0400275
:100B90004FF020431A661DE0934A126842F040026B
:100BA0004FF02043C3F8802014E0102809D14FF003
:100BB0002042126E8B4B3F3B1A404FF020431A6687
:100BC00008E0894A1268874B3F3B1A404FF02043A8
:100BD000C3F88020704701460020102903D14FF050
:100BE0002042506F02E0804A14321068704718208B
:100BF0007D492031086000200906C1F8A4004FF0AB
:100C0000FC30794928310860091D0860091D086019
:100C10007047016841F01001426841EA4221826850
:100C200041EA4231704A20321160C1680968C268E5
:100C3000526841EA0221C268128941EA0241C2684F
:100C4000127B41EA0261684A283211600169096831
:100C50000269526841EA02210269128941EA0241AD
:100C60000269127B41EA02615F4A2C3211604169DC
:100C700009684269526841EA02214269128941EADF
:100C800002414269127B41EA02614FF02042C2F800
:100C9000B01070470021016041608160FC21C26892
:100CA0001160C2685160C2689160C268D160026917
:100CB000116002695160026991600269D160426904
:100CC000116042695160426991604269D160704728
:100CD00048B145492031096841F004014FF02042F4
:100CE000C2F8A01009E04049203109683D4AD21EEF
:100CF00011404FF02042C2F8A010704710B5F2B179
:100D0000102807D14FF020435B6E0B434FF0204477
:100D1000636632E0B0F5807F08D1334B1B1D1B6842
:100D20000B434FF02044C4F8843026E02E4B24338C
:100D30001B680B434FF02044C4F8A4301DE010287A
:100D400007D14FF020435B6E8B434FF02044636626
:100D500013E0B0F5807F08D1234B1B1D1B688B432C
:100D60004FF02044C4F8843007E01F4B24331B6845
:100D70008B434FF02044C4F8A43010BD10B5024698
:100D800000200023102A03D14FF02044636E09E0B5
:100D9000B2F5807F03D1144C241D236802E0124C6D
:100DA0002434236803EA01040CB1012000E0002090
:100DB00010BD102807D14FF02042526E8A434FF0E9
:100DC00020435A6619E0B0F5807F0FD1064A121D04
:100DD00012688A434FF02043C3F884200DE00000DE
:100DE000743A0008FEFF0F00800000A0234A12683A
:100DF0008A434FF02043C3F8A420704770B50246E1
:100E00000020002300240025102A03D14FF02046A3
:100E1000736E08E0B2F5807F03D1184E203E336830
:100E200001E0164E336803EA010403EAD10514B168
:100E30000DB1012000E0002070BD102808D14FF056
:100E40002042526E22EAD1024FF020435A6614E04B
:100E5000B0F5807F09D1094A203A126822EAD1020E
:100E60004FF02043C3F8842007E0044A126822EAC6
:100E7000D1024FF02043C3F8A4207047A40000A083
:100E800010B504469848844208D10121084600F074
:100E900086FB0021012000F082FB76E0934884422B
:100EA00008D10121022000F07AFB0021022000F08D
:100EB00076FB6AE08E48844208D10121042000F0CC
:100EC0006EFB0021042000F06AFB5EE0894884424A
:100ED00008D10121082000F062FB0021082000F069
:100EE0005EFB52E08448844208D10121102000F0CA
:100EF00056FB0021102000F052FB46E07F48844260
:100F000008D10121202000F04AFB0021202000F020
:100F100046FB3AE07A48844208D10121402000F0A3
:100F20003EFB0021402000F03AFB2EE07548844251
:100F300008D10121802000F032FB0021802000F048
:100F40002EFB22E07048844208D10121801500F078
:100F500026FB0021A01500F022FB16E06B4884421E
:100F600008D10121401500F01AFB0021601500F0A6
:100F700016FB0AE06648844207D10121001500F003
:100F80000EFB0021201500F00AFB10BDF0B50A464B
:100F900000210023002400BF3DE0012505FA01F3F4
:100FA000156805EA03049C4234D105684F00032606
:100FB000BE40B543056015794E00B540066835431F
:100FC00005601579012D02D01579022D16D185689D
:100FD0004F000326BE40B543856055794E00B540AD
:100FE000866835438560456801268E40B543456077
:100FF000456896798E40B6B235434560C5684F0066
:101000000326BE40B543C560D5794E00B540C668DD
:101010003543C560491C1029BFD3F0BD4FF6FF71A1
:1010200001600021017141718171C171704708B582
:101030004FF480320092009A0A430092009AC261F3
:10104000C161009AC261C2690092C269009208BD82
:101050000246002013690B400BB1012000E0002084
:1010600070470146086980B2704702460020536904
:101070000B400BB1012000E0002070470146486999
:1010800080B2704701837047418370470AB1018382
:1010900000E0418370474161704742694A404261C4
:1010A0007047F0B5002300244D07ED0E02FA05F35A
:1010B000CE1000F1200555F826504E07F70E0F26EA
:1010C000BE40B543CF1000F1200646F82750CE10A1
:1010D00000F1200555F8265045EA0304CE1000F132
:1010E000200545F82640F0BD000002400004024003
:1010F00000080240000C02400010024000140240B0
:1011000000180240001C024000200240002402405F
:1011100000280240F948006840F00100F7490860E3
:101120000020F64908310860F4480068F449084096
:10113000F2490860F348091D0860F348EF4984311B
:101140000860F0481038091D0860EC48006820F479
:101150008020EA4908600020E8490C310860E7492E
:101160008C31086070470021E44A921C11701146CE
:101170000870704710B501460022002300204A1174
:10118000012A02D1DD4C236808E0022A03D1DB4C9E
:101190007034236802E0D94C7434236801F01F02D4
:1011A000012494401C400CB1012000E0002010BD3F
:1011B00038B5002000900024002500BF3120FFF743
:1011C000D9FF05460098401C00900098B0F5A04F4C
:1011D00001D0002DF2D03120FFF7CCFF08B101245F
:1011E00000E00024204638BD01460020C34A1068B4
:1011F00020F0F80040EAC10010607047C349086061
:1012000070470021BD4A703211701170012802D060
:1012100004280AD104E00121B84A7032117005E0B7
:101220000521B64A7032117000E000BF00BF704760
:10123000B7490860704770B5049C41EA82150126E1
:10124000C6EB530645EA0645054345EA0465AB4E41
:10125000361D356070BDAD4908667047820142EAAF
:101260000172A64B84331A607047A849886670479C
:1012700010B5830143EA016343EA02739F4C88344B
:10128000236010BDA14908677047A049C864704732
:1012900002460020994B0833186820F0EC6042EABF
:1012A00001031843954B083318607047024600202D
:1012B000924B0833186820F0784042EA0103184343
:1012C0008E4B083318607047014600208B4A083265
:1012D000106820F00300084310607047874808300A
:1012E000006800F00C00704701460020834A083275
:1012F000106820F0F000084310607047014600209D
:101300007E4A0832106820F4E050084310607047AD
:1013100001460020794A0832106820F4604040EA13
:10132000C10010607047F0B50021002200240225A2
:1013300000260223714F08373F6807F00C0121B1E6
:10134000042905D0082937D105E0724F076036E03F
:10135000714F076033E0694F3F1D3F68C7F3805608
:10136000664F3F1D3F6807F03F036EB16A4FB7FB02
:10137000F3F7DFF888C10CF1040CDCF800C0CCF303
:10138000881C07FB0CF40CE0624FB7FBF3F7DFF8A7
:101390006CC10CF1040CDCF800C0CCF3881C07FB1A
:1013A0000CF4564F3F1D3F68C7F301477F1C7D007B
:1013B000B4FBF5F7076002E0564F076000BF00BFBF
:1013C0004E4F08373F6807F0F0010909534F7A5C28
:1013D0000768D7404760494F08373F6807F4E05136
:1013E000890A4E4F7A5C4768D7408760434F083779
:1013F0003F6807F46041490B484F7A5C4768D74023
:10140000C760F0BD002100F44072B2F5407F0AD100
:101410003A4A0832116821F4F811414A0240114356
:10142000364A08321160354A70321268C0F30B0335
:101430001A43324B70331A6070473549443908609B
:101440007047334940390860704736490860704733
:1014500001460020294A8C32106820F01F004A1EE5
:101460001043264A8C321060704701460020234A00
:101470008C32106820F4F8504A1E40EA02201F4ABD
:101480008C3210607047014600201C4A8C32106874
:1014900020F4401008431060704701460020174AAE
:1014A0008C32106820F440000843106070470146F9
:1014B0000020124A8C32106820F44030084310603B
:1014C000704719490860704739B10C4A30321268C8
:1014D00002430A4B30331A6006E0084A3032126881
:1014E0008243064B30331A607047F9B1034A3432F5
:1014F00012680243014B34331A601CE0003802408A
:10150000FFFFF6EA103000240030002000004742C0
:10151000800E47420024F40000127A0018000020D8
:10152000FFFCFF0F5C014742E01147428F4A1268FF
:1015300082438E4B1A60704739B18C4A121D126873
:1015400002438A4B1B1D1A6006E0884A121D12686E
:101550008243864B1B1D1A60704739B1834A0C3297
:1015600012680243814B0C331A6006E07F4A0C324A
:10157000126882437D4B0C331A60704739B17B4A45
:10158000103212680243794B10331A6006E0774A32
:10159000103212688243754B10331A60704739B1AC
:1015A000724A243A12680243704B243B1A6006E0E8
:1015B0006E4A243A126882436C4B243B1A6070478F
:1015C00039B16A4A203A12680243684B203B1A60DC
:1015D00006E0664A203A12688243644B203B1A6058
:1015E000704739B1614A1C3A126802435F4B1C3B99
:1015F0001A6006E05D4A1C3A126882435B4B1C3B52
:101600001A60704739B1594A143A12680243574B6D
:10161000143B1A6006E0554A143A12688243534B51
:10162000143B1A60704739B1504A103A12680243AD
:101630004E4B103B1A6006E04C4A103A1268824347
:101640004A4B103B1A60704739B1484A1C32126845
:101650000243464B1C331A6006E0444A1C321268AF
:101660008243424B1C331A60704739B13F4A2032E3
:10167000126802433D4B20331A6006E03B4A203299
:1016800012688243394B20331A60704739B1374AA8
:10169000243212680243354B24331A6006E0334A81
:1016A000243212688243314B24331A60704739B1B7
:1016B0002E4A2C32126802432C4B2C331A6006E05F
:1016C0002A4A2C3212688243284B2C331A60704706
:1016D00039B1264A303212680243244B30331A6043
:1016E00006E0224A303212688243204B30331A60BF
:1016F0007047012808D11D493C31096841F00801B3
:101700001A4A3C32116007E018493C31096821F05F
:101710000801164A3C321160704739B1134A273A22
:1017200012780243114B273B1A7006E00F4A273A02
:10173000127882430D4B273B1A7070470B4840309C
:10174000006840F0807009494031086070470146E8
:101750000020064A283A12680A400AB1012000E037
:10176000002070470149263908707047343802401C
:1017700010B50446FE48844208D101210846FFF70F
:1017800052FF00210120FFF74EFF9DE0B4F1804F92
:1017900008D101210846FFF735FF00210120FFF79E
:1017A00031FF91E0F348844208D101210220FFF784
:1017B00029FF00210220FFF725FF85E0EE48844243
:1017C00008D101210420FFF71DFF00210420FFF7AD
:1017D00019FF79E0E948844208D101210820FFF788
:1017E00011FF00210820FFF70DFF6DE0E44884425F
:1017F00008D101211020FFF705FF00211020FFF77D
:1018000001FF61E0DF48844208D101212020FFF779
:10181000F9FE00212020FFF7F5FE55E0DA4884426A
:1018200008D101210220FFF7FEFE00210220FFF770
:10183000FAFE49E0D548844209D101210804FFF7A6
:10184000F2FE00214FF48030FFF7EDFE3CE0D0487F
:10185000844209D101214804FFF7E5FE00214FF43D
:101860000030FFF7E0FE2FE0CA48844209D1012191
:101870008804FFF7D8FE00214FF48020FFF7D3FE45
:1018800022E0C548844208D101214020FFF7BAFE7A
:1018900000214020FFF7B6FE16E0C048844208D180
:1018A00001218020FFF7AEFE00218020FFF7AAFE75
:1018B0000AE0BB48844207D101218015FFF7A2FE50
:1018C0000021A015FFF79EFE10BD00220288A84B44
:1018D00098420ED0AC4B98420BD0B0F1804F08D05C
:1018E000A44B984205D0A44B984202D0A34B9842F7
:1018F00004D14FF68F731A404B881A43A04B98427D
:1019000007D0A04B984204D04FF6FF431A400B89F2
:101910001A4302804B68C3620B880385944B98423C
:1019200002D0994B984201D18B7A0386012383829E
:1019300070474FF0FF3141600021018001814180FB
:10194000817270470185828270470A4600210188B2
:101950004FF68F7319401143018070474162704701
:10196000C16270470146486A70470146088D70475A
:1019700021B1028842F00202028004E002884FF6A0
:10198000FD731A400280704721B1028842F00402C0
:10199000028004E002884FF6FB731A400280704711
:1019A00021B1028842F08002028004E002884FF6F2
:1019B0007F731A400280704702884FF6F7731A400F
:1019C000028002880A430280704702884FF6FF4374
:1019D0001A40028002880A430280704721B10288BF
:1019E00042F00102028004E002884FF6FE731A40C2
:1019F0000280704770B5002400220023058C4FF64A
:101A0000FE7635400584028C8388048B4FF68F75F3
:101A10002C40B51E2C400D882C43751E2A408D8904
:101A20002A434D882A43524DA84202D0564DA8421F
:101A300013D14FF6F7752A40CD892A434FF6FB752F
:101A40002A408D882A434FF6FF652B404FF6FF55FD
:101A50002B400D8A2B434D8A2B43838004838D6852
:101A60004563028470BD70B5002400220023058CFC
:101A70004FF6EF7635400584028C8388048B48F658
:101A8000FF752C404FF6FF452C400D884FF6FF7632
:101A900006EA05252C434FF6DF752A408D8906EAB4
:101AA00005152A434D8806EA05152A43304DA842FC
:101AB00002D0354DA8421DD14FF67F752A40CD8901
:101AC0004FF6FF7606EA05152A434FF6BF752A4002
:101AD0008D8806EA05152A434FF6FF352B404FF255
:101AE000FF752B400D8A06EA85052B434D8A06EAD1
:101AF00085052B43838004838D688563028470BDD4
:101B000070B5002400220023058C4FF6FF66354097
:101B10000584028C8388848B4FF68F752C404FF69A
:101B2000FC752C400D882C434FF6FF552A408D89BB
:101B30004FF6FF7606EA05252A434D8806EA052575
:101B40002A430B4DA84202D00F4DA84238D14FF284
:101B5000FF752A40CD894FF6FF7606EA05252A4310
:101B60004FF6FF352A408D8806EA05252A4319E0FD
:101B7000000001400004004000080040000C00404C
:101B800000100040001400400004014000400140EB
:101B9000004401400048014000180040001C004083
:101BA000002000404EF6FF752B404DF6FF752B4090
:101BB0000D8A06EA05152B434D8A06EA05152B43C7
:101BC000838084838D68C563028470BD70B50022F4
:101BD00000230024058C4EF6FF7635400584038CE7
:101BE0008488828B48F6FF752A404FF6FF452A40CD
:101BF0000D884FF6FF7606EA05252A434DF6FF7558
:101C00002B408D8906EA05352B434D8806EA0535BC
:101C10002B43FE4DA84202D0FD4DA84208D14BF601
:101C2000FF752C400D8A4FF6FF7606EA85152C438A
:101C3000848082838D680564038470BD00210180E7
:101C40004180818081608181C181018241827047B0
:101C500070B50346002000241846183001258D4039
:101C6000ACB21D8CA5431D8409B108290AD100EB33
:101C7000610005684FF68F763540056005681543AD
:101C800005600FE00D1FC5F34E052844056848F6B2
:101C9000FF763540056005684FF6FF7606EA0226B6
:101CA0003543056070BD4163704781637047C16310
:101CB0007047016470470A460021018B4FF68F730D
:101CC00019401143018370470A460021018B48F6F1
:101CD000FF7319404FF6FF7303EA02231943018390
:101CE00070470A460021818B4FF68F7319401143CC
:101CF000818370470A460021818B48F6FF731940A3
:101D00004FF6FF7303EA02231943818370470A46A3
:101D10000021018B4FF6F77319401143018370477F
:101D20000A460021018B4FF2FF7319404FF6FF73F3
:101D300003EA02231943018370470A460021818B7D
:101D40004FF6F77319401143818370470A4600210B
:101D5000818B4FF2FF7319404FF6FF7303EA0223A2
:101D60001943818370470A460021018B4FF6FB73AC
:101D700019401143018370470A460021018B4FF639
:101D8000FF3319404FF6FF7303EA0223194301831F
:101D900070470A460021818B4FF6FB7319401143AF
:101DA000818370470A460021818B4FF6FF3319402B
:101DB0004FF6FF7303EA02231943818370470A46F3
:101DC0000021018B4FF67F73194011430183704747
:101DD0000A460021018BC1F30E014FF6FF7303EA9F
:101DE00002231943018370470A460021818B4FF675
:101DF0007F7319401143818370470A460021818B0C
:101E0000C1F30E014FF6FF7303EA022319438183E6
:101E100070470A460021018C4FF6FD7319401143AB
:101E2000018470470A460021018C4FF6F773194070
:101E30001143018470470A460021018C4FF6DF737D
:101E400019404FF6FF7303EA0213194301847047E8
:101E50000A460021018C4FF67F7319404FF6FF733D
:101E600003EA02131943018470470A460021018CDA
:101E70004FF6FF5319404FF6FF7303EA022319434D
:101E8000018470470A460021018C4FF2FF7319400C
:101E90004FF6FF7303EA02231943018470470A4691
:101EA0000021018C4DF6FF7319404FF6FF7303EAD2
:101EB000023319430184704730B5002301248C405C
:101EC000A3B2048C9C430484048C02FA01F5ADB2E5
:101ED0002C43048430BD30B5002304248C40A3B2CD
:101EE000048C9C430484048C02FA01F5ADB22C43AB
:101EF000048430BD828B4FF2FF331A408283828B81
:101F00004FF6FF7303EA01231A4382837047F0B54B
:101F10000C461546002100220026078C4EF6FF7C59
:101F200007EA0C070784818B028C4FF6FF7707EADC
:101F3000043640F6FF4739404FF6FF7707EA05279A
:101F400039434FF6FF7707EA0337394345F6FF7702
:101F50003A4046F480573A4381830284F0BD828B35
:101F60004FF6F3731A408283828B0A438283704751
:101F7000F0B50C461546002100220026078C4FF6CE
:101F8000FF6C07EA0C070784818B028C4FF6FF7702
:101F900007EA04264FF60C7739404FF6FF7707EA39
:101FA00003172F4339434FF2FF573A4046F48077E7
:101FB0003A4381830284F0BD028B4FF2FF331A4013
:101FC0000283028B4FF6FF7303EA01231A43028355
:101FD0007047F0B50C461546002100220026078CFC
:101FE0004FF6EF7C07EA0C070784018B028C4FF653
:101FF000FF7707EA041640F6FF4739404FF6FF77B0
:1020000007EA033739434FF6FF7703E0000001404A
:102010000004014007EA052739434FF65F773A404D
:1020200046F010073A4301830284F0BD028B4FF65D
:10203000F3731A400283028B0A4302837047F0B5A0
:102040000C46154600210022068C4FF6FE773E40D6
:102050000684018B028C4FF60C7631407E1C06EA1A
:1020600003162E4331434FF6F576324044F0010615
:10207000324301830284F0BD70B505460C462088CA
:1020800050B92389A28861882846FFF7D8FFE188E4
:102090002846FFF7CBFF25E0208804280AD12389B2
:1020A000A28861882846FFF794FFE1882846FFF759
:1020B00083FF17E0208808280AD12389A288618835
:1020C0002846FFF755FFE1882846FFF748FF09E05B
:1020D0002389A28861882846FFF719FFE1882846EE
:1020E000FFF708FF70BD0021018041800121818040
:1020F0000021C180018170472DE9F04105460C4661
:1021000000260127608808B9022600E00026A08882
:10211000012801D1022700E001272088A0B92389E6
:10212000A28861882846FFF78AFFE1882846FFF7E2
:102130007DFF23893A4631462846FFF74AFFE1886A
:102140002846FFF739FF13E02389A28861882846D3
:10215000FFF73FFFE1882846FFF72EFF23893A4625
:1021600031462846FFF76BFFE1882846FFF75EFF00
:10217000BDE8F0810146486B70470146886B7047A7
:102180000146C86B70470146086C70470A884B8847
:102190001A438B881A43CB881A430B891A434B89FD
:1021A0001A438B891A43A0F844207047002101800C
:1021B00041808180C180018141818181704731B13D
:1021C000B0F8442042F40042A0F8442005E0B0F802
:1021D0004420C2F30E02A0F84420704721B1828847
:1021E00042F00402828004E082884FF6FB731A40BA
:1021F0008280704721B1828842F00102828004E02F
:1022000082884FF6FE731A40828070471AB1838924
:102210000B43838102E083898B43838170478182F2
:10222000704702460020138A0B400BB1012000E0EA
:1022300000207047CA430282704730B50246002032
:1022400000230024158A05EA0103958905EA0104A3
:1022500013B10CB1012000E0002030BDCA4302825E
:10226000704741EA0203A0F8483070471AB18389E9
:102270000B43838102E083898B438381704721B1C3
:10228000828842F00802828004E082884FF6F77369
:102290001A408280704701894FF6F872114001811F
:1022A00070470A46002101894FF68F731940114388
:1022B0000181704730B504460D4629462046FFF798
:1022C000F0FF208940F00700208130BD2DE9F0416A
:1022D00004460D4616461F46602D06D13B46012298
:1022E00031462046FFF775FE05E03B4601223146A8
:1022F0002046FFF7A4FE29462046FFF7D2FF20899B
:1023000040F007002081BDE8F08130B50C46002187
:102310000189C9B24FF6FF7505EA03251543254328
:102320002943018130BD2DE9F04105460E4617468F
:102330009846002443463A4631462846FFF7E5FFD3
:102340002C894FF6F870044044F007044FF68F7064
:10235000044044F070042C81BDE8F081F0B50446DF
:102360000D4616461F463B46324629462046FFF795
:10237000CCFF208940F480402081F0BD82884FF658
:102380008F731A40828082880A4382807047028954
:102390004FF6F8731A40028102890A43028170479E
:1023A00002894FF67F731A40028102890A43028133
:1023B0007047F0B50C4615461E460021002200234A
:1023C0000189028B038C4FF6F877394021434FF691
:1023D000FC473A4040F201173A434FF6DD773B4065
:1023E0004FF6FF7707EA06172F433B43018102832D
:1023F0000384F0BD21B1828842F08002828004E033
:1024000082884FF67F731A4082807047A0F8501080
:102410007047000010B50446FA48844208D10121F3
:102420001020FFF700F900211020FFF7FCF857E01B
:10243000F548844209D101214804FFF7E3F800215F
:102440004FF40030FFF7DEF84AE0F048844209D14B
:1024500001218804FFF7D6F800214FF48020FFF710
:10246000D1F83DE0EA48844209D10121C804FFF7D0
:10247000C9F800214FF40020FFF7C4F830E0E54828
:10248000844209D101210805FFF7BCF800214FF46F
:102490008010FFF7B7F823E0DF48844208D101211C
:1024A0002020FFF7C0F800212020FFF7BCF817E03C
:1024B000DA48844209D101218807FFF7A3F80021F7
:1024C0004FF08040FFF79EF80AE0D548844207D1DC
:1024D00001214005FFF796F800216005FFF792F80B
:1024E00010BD2DE9FF4705460E460024A14600BF5A
:1024F000A046B08900B100BF2C8A24F44054F08873
:1025000004432C82AC8941F20C608443B088318949
:102510000843718908430443AC81AC8A24F44074B5
:10252000B0890443AC826846FEF7FDFEB54885429B
:1025300002D0B948854202D1DDF80C9001E0DDF807
:102540000890A88900F4004040B109EBC90000EBF5
:10255000091031684900B0FBF1F707E009EBC90049
:1025600000EB091031688900B0FBF1F76420B7FB7C
:10257000F0F004012009642101FB1078A88900F41F
:10258000004040B1322000EBC800B0FBF1F000F099
:102590000700044308E0322000EB08106421B0FB80
:1025A000F1F000F00F0004432C81BDE8FF874FF4E9
:1025B0001651016000218180C18001810C2141817F
:1025C00000218181704710B502460020108A20F456
:1025D00070600B884C8823438C882343CC8823432A
:1025E0001843108210BD0021018041808180C1808C
:1025F000704721B1828942F40052828104E08289CD
:102600004DF6FF731A4082817047028B02F47F42BD
:102610000283028B0A430283704721B1828942F40C
:102620000042828103E08289C2F30E0282817047F8
:1026300021B1828A42F40062828204E0828A4FF2EF
:10264000FF731A4082827047C1F30802828070478C
:1026500001468888C0F308007047028A4FF6F0737D
:102660001A400282028A0A430282704721B182899B
:1026700042F00202828104E082894FF6FD731A4023
:102680008281704782894FF2FF731A40828182896A
:102690000A4382817047028A4FF6DF731A40028232
:1026A000028A0A430282704721B1028A42F48042C0
:1026B000028204E0028A4BF6FF731A4002827047DE
:1026C000818941F001018181704721B1828A42F004
:1026D0000802828204E0828A4FF6F7731A408282EF
:1026E0007047028BD2B20283028B42EA012202833C
:1026F000704721B1828A42F02002828204E0828AFD
:102700004FF6DF731A408282704721B1828A42F00D
:102710001002828204E0828A4FF6EF731A408282AE
:102720007047828A4FF6FB731A408282828A0A437C
:102730008282704721B1828A42F00202828204E0E2
:10274000828A4FF6FD731A40828270471AB1838ADB
:102750000B43838202E0838A8B4383827047F0B508
:102760000346002400260025002040F66A17B942DF
:1027700000D100BF1846C1F3421401F01F06012723
:1027800007FA06F5012C01D10C3004E0022C01D12E
:10279000103000E014301AB107682F43076002E0E0
:1027A0000768AF430760F0BD02460020B1F5007F27
:1027B00000D100BF13880B400BB1012000E00020C6
:1027C000704701F40072B2F5007F00D100BFCA4328
:1027D0000280704770B502460024002300250020C7
:1027E00040F66A16B14200D100BFC1F3421501F0B4
:1027F0001F03012606FA03F3012D13D196893340F6
:1028000017E0000000100140004400400048004074
:10281000004C00400050004000140140007800408F
:10282000007C0040022D02D1168A334001E0968AD6
:1028300033400C12012606FA04F41688344013B112
:102840000CB1012000E0002070BD10B50022002373
:1028500040F66A14A14200D100BF0A12012494403C
:10286000A3B2DC43048010BD10B504466FF0040031
:10287000FEF704F8E11704EB5171C1F3C701394ABF
:1028800011701046007800EB4001C1EBC0104FF60C
:10289000FF7101EAC0003449088010BD0146314A89
:1028A00012784A434FF0E0235A6100229A611A4697
:1028B000126942F001021A6100BF4FF0E022106974
:1028C00000F001021AB100F48032002AF5D04FF076
:1028D000E022126922F001024FF0E0231A61002287
:1028E0009A6170470146204A12884A434FF0E0231C
:1028F0005A6100229A611A46126942F001021A6175
:1029000000BF4FF0E022106900F001021AB100F49C
:102910008032002AF5D04FF0E022126922F0010245
:102920004FF0E0231A6100229A61704770B50446A7
:102930004FF4077094FBF0F0C6B24FF4077094FBAD
:10294000F0F100FB114085B205E04FF40770FFF78E
:10295000C9FF701EC6B2002EF7D115B12846FFF789
:10296000C1FF70BD280000202A00002000BF704772
:1029700000BF4C4A128802F04002002AF9D0C2B2CD
:10298000484B9A80704710B588B00446012108462C
:10299000FEF79AFD01211020FEF7F0FD0722092124
:1029A0004148FEF77EFB07220A213F48FEF779FBEC
:1029B0004FF4C060069002208DF81C008DF81D00B9
:1029C00000208DF81E0001208DF81F0006A9364852
:1029D000FEF7DCFA02940020ADF80C00ADF80E0012
:1029E000ADF81000ADF814000C20ADF8120002A9EB
:1029F0002C48FFF776FD01212A48FFF7FAFD012256
:102A000040F225512748FFF7AAFE25208DF8040043
:102A100003208DF805008DF8060001208DF80700D1
:102A200001A8FDF7DEFE08B010BD10B540F225513B
:102A30001C48FFF7CFFE10B31A48FFF709FEC4B2D7
:102A40001A48008800F40040C8B91848008800F40B
:102A5000804060B10A2C03D000201449088020E097
:102A60001248008840F400401049088019E00D2CFD
:102A700006D10E48008840F480400C49088010E0E0
:102A80000A480088C0F30D0009490C540748008823
:102A9000401C0649088008460088C72801DD002040
:102AA000088010BD001001400000024030000020EE
:102AB0007C0000207FB505460C4601210220FEF770
:102AC0004CFD0295ADF804400020ADF80C00ADF8C7
:102AD000060001A91748FEF7F8FE01221146154825
:102AE000FFF794FB1D208DF8000000208DF80100F9
:102AF00003208DF8020001208DF803006846FDF7E1
:102B000070FE01210B48FEF769FF7FBD10B5012162
:102B10000848FFF792FB58B101210648FFF79EFBDA
:102B20000548006808B9012000E00020024908605B
:102B300010BD0000000400409402424201B502E0D2
:102B40000098401E009000980028F9D108BD70B58B
:102B5000054600241021FE48FEF794FA4FF48051F8
:102B6000FC48FEF791FA0121FA48FEF78DFA202180
:102B7000F748FEF789FA0120FFF7E0FF00BF29E0E0
:102B800045FA04F000F0010088B1032C01DD0D2CA2
:102B900006DBF14830F81410ED48FEF773FA17E041
:102BA000ED4830F81410ED48FEF76CFA10E0032CF5
:102BB00001DD0D2C06DBE84830F81410E448FEF780
:102BC00063FA05E0E44830F81410E448FEF75CFAD4
:102BD000601CC4B2102CD3DB0120FFF7AFFF202113
:102BE000DB48FEF74FFA0120FFF7A8FF0121D94883
:102BF000FEF748FA4FF48051D648FEF743FA70BD0D
:102C000070B5054600241021D148FEF73BFA4FF479
:102C10008051D048FEF738FA0121CE48FEF732FA4B
:102C20002021CB48FEF730FA0120FFF787FF00BFD5
:102C300029E045FA04F000F0010088B1032C01DD21
:102C40000D2C06DBC44830F81410C148FEF71AFA00
:102C500017E0C14830F81410C048FEF713FA10E02E
:102C6000032C01DD0D2C06DBBB4830F81410B848EE
:102C7000FEF70AFA05E0B84830F81410B748FEF736
:102C800003FA601CC4B2102CD3DB0120FFF756FFFF
:102C90002021AF48FEF7F6F90120FFF74FFF012191
:102CA000AC48FEF7EFF94FF48051AA48FEF7EAF975
:102CB00070BD70B5002500242021A548FEF7E2F97B
:102CC0004FF48051A348FEF7DFF90121A148FEF738
:102CD000D9F910219E48FEF7D7F90120FFF72EFF02
:102CE00000BF19E06D10032C01DD0D2C09DB9A48A3
:102CF00030F814109648FEF7ABF958B145F400458A
:102D000008E0954830F814109448FEF7A1F908B18E
:102D100045F40045601CC4B2102CE3DB10218C4844
:102D2000FEF7B0F90120FFF709FF01218948FEF7FE
:102D3000A9F94FF480518748FEF7A4F9284670BDE1
:102D40001CB501215A20FEF7BFFB01208DF80400BD
:102D500000208DF8060002208DF805004003009049
:102D600069467B48FEF712F94FF40040009069462F
:102D70007748FEF70BF90120009069467448FEF78A
:102D800005F90220009069467148FEF7FFF880209F
:102D9000009069467148FEF7F9F84FF48070009092
:102DA00069466E48FEF7F2F84FF4007000906946ED
:102DB0006A48FEF7EBF84FF4806000906946674878
:102DC000FEF7E4F84FF40060009069466348FEF7B0
:102DD000DDF84FF48050009069466048FEF7D6F861
:102DE0004FF40050009069465C48FEF7CFF84FF46E
:102DF0008040009069465948FEF7C8F84FF40040FB
:102E0000009069465548FEF7C1F84FF48070009075
:102E100069464F48FEF7BAF84FF4007000906946D3
:102E20004B48FEF7B3F84FF480600090694648487D
:102E3000FEF7ACF801208DF8040000208DF80600A4
:102E400002208DF805001020009069464048FEF7EA
:102E50009DF82020009069463D48FEF797F84FF412
:102E60008050009069463B48FEF790F801200090A2
:102E700069463848FEF78AF801208DF804000020E2
:102E80008DF8060002208DF805004020009069466C
:102E90003248FEF77BF801208DF8040000208DF801
:102EA000060002208DF805000120009069462C489C
:102EB000FEF76CF81CBD00B597B001210846FEF77F
:102EC0003BFB012001900420039080060790002026
:102ED00002900490059006900890099008200A90AE
:102EE00010200B9000200C900E900F9010904FF43B
:102EF00080501190002012901390149001A815900A
:102F0000169008A8FDF7F3FC01210020FDF77AFDDB
:102F100017B000BD10B5CF20FFF719FE0020FFF756
:102F20006FFE8120FFF76CFE3020FFF769FEED2079
:102F3000FFF70DFE6420FFF763FE0320FFF760FE3E
:102F40001220FFF75DFE8120FFF75AFEE82009E01E
:102F5000000C0240001802404C000020001002400B
:102F600000040240FFF7F3FD8520FFF749FE102023
:102F7000FFF746FE7820FFF743FECB20FFF7E7FD83
:102F80003920FFF73DFE2C20FFF73AFE0020FFF727
:102F900037FE3420FFF734FE0220FFF731FEF72022
:102FA000FFF7D5FD2020FFF72BFEEA20FFF7CFFD2E
:102FB0000020FFF725FE0020FFF722FEB120FFF7DB
:102FC000C6FD0020FFF71CFE1B20FFF719FEB620F0
:102FD000FFF7BDFD0A20FFF713FEA220FFF710FE4A
:102FE000C020FFF7B4FD3520FFF70AFEC120FFF730
:102FF000AEFD1120FFF704FEC520FFF7A8FD452018
:10300000FFF7FEFD4520FFF7FBFDC720FFF79FFD03
:10301000A220FFF7F5FDF220FFF799FD0020FFF752
:10302000EFFD2620FFF793FD0120FFF7E9FDE020EB
:10303000FFF78DFD0F20FFF7E3FD2620FFF7E0FDF2
:103040002420FFF7DDFD0B20FFF7DAFD0E20FFF750
:10305000D7FD0920FFF7D4FD5420FFF7D1FDA820AC
:10306000FFF7CEFD4620FFF7CBFD0C20FFF7C8FD94
:103070001720FFF7C5FD0920FFF7C2FD0F20FFF75E
:10308000BFFD0720FFF7BCFD0020FFF7B9FDE120E1
:10309000FFF75DFD0020FFF7B3FD1920FFF7B0FD3E
:1030A0001B20FFF7ADFD0420FFF7AAFD1020FFF75E
:1030B000A7FD0720FFF7A4FD2A20FFF7A1FD472069
:1030C000FFF79EFD3920FFF79BFD0320FFF798FDDA
:1030D0000620FFF795FD0620FFF792FD3020FFF751
:1030E0008FFD3820FFF78CFD0F20FFF789FD36207C
:1030F000FFF72DFDC820FFF783FD2A20FFF727FDEE
:103100000020FFF77DFD0020FFF77AFD0020FFF78C
:1031100077FDEF20FFF774FD2B20FFF718FD00204F
:10312000FFF76EFD0020FFF76BFD0120FFF768FD44
:103130003F20FFF765FD3A20FFF709FD5520FFF717
:103140005FFD1120FFF703FDFE48FFF7F7FC292084
:10315000FFF7FDFC10BD10B50446072C00DD10BDC7
:10316000F9480470204604EBD0714910A4EB4101EA
:1031700039B9F020F54908804FF4A070F44908806F
:1031800006E04FF4A070F1490880F020F049088073
:103190003620FFF7DCFC082141EA4410FFF730FD40
:1031A0002A20FFF7D4FC0020FFF72AFD0020FFF7BC
:1031B00027FDE6490988491EC1F30720FFF720FDD6
:1031C000E2490978491EC8B2FFF71AFD2B20FFF724
:1031D000BEFC0020FFF714FD0020FFF711FDDC49C5
:1031E0000988491EC1F30720FFF70AFDD84909786D
:1031F000491EC8B2FFF704FD2C20FFF7A8FC00BF52
:10320000ADE710B54021D348FDF73EFF40F6FF2063
:10321000FFF794FC4021CF48FDF734FF40F6FF2034
:10322000FFF78CFC10BD10B504460121CA48FDF71C
:1032300029FF10BD10B5FFF783FD0120FFF7F3FF55
:10324000FFF7DFFFFFF766FEBF480078FFF783FF59
:1032500010BD2DE9F04104460D4616461F462A20B2
:10326000FFF775FC2012FFF7CBFCE0B2FFF7C8FCBC
:10327000A119491EC1F30F20FFF7C2FCA119491E75
:10328000C8B2FFF7BDFC2B20FFF761FC2812FFF747
:10329000B7FCE8B2FFF7B4FCE919491EC1F30F20EF
:1032A000FFF7AEFCE919491EC8B2FFF7A9FCBDE85B
:1032B000F08170B504460D4601231A462946204682
:1032C000FFF7C7FF70BD70B504460D4600262C20E1
:1032D000FFF73DFC00BF03E02846FFF791FC761C9A
:1032E000A642F9D370BD2DE9F04106460F461446BB
:1032F0001D462B46224639463046FFF7AAFF04FBFF
:1033000005F096490988FFF7DEFFBDE8F08170B54A
:1033100005460C468D48008885420CDA8C480088AA
:10332000844208DA21462846FFF7C3FF8C4801880B
:103330000120FFF7C8FF70BD70B5002400250026EE
:103340002E20FFF704FCFFF7B4FC0446FFF7B1FCA6
:103350000446FFF7AEFC0646FFF7ABFC0546E0125D
:10336000C002A91240EA411040EAE62070BD70B5E3
:1033700004460D4629462046FFF79BFFFFF7DCFF7A
:103380000646304670BD2DE9FF4F83B081464FF0B1
:10339000000AD3460598A0EB090504990698461A39
:1033A000CDF8049004980090002D01DD012705E080
:1033B0000DB9002702E04FF0FF376D42002E02DD0D
:1033C0004FF0010806E016B94FF0000802E04FF098
:1033D000FF387642B54201DD2C4600E0344600203D
:1033E000029019E0DDE90010FFF791FFAA44B34411
:1033F000A24505DDAAEB040A0198384480B2019089
:10340000A34505DDABEB040B0098404480B200906F
:103410000298401C80B20290611C02988842E1DD53
:1034200007B0BDE8F08F2DE9F04104460D46164681
:103430001F46DDF81880B8F1000F0CD03B4632462D
:1034400029462046FFF705FF06FB07F04449098897
:10345000FFF739FF27E0A019401E82B22B4629460C
:103460002046FFF790FFE819401E83B2A019401EC6
:1034700082B2E819401E81B22046FFF784FFE819A6
:10348000401E83B2224629462046FFF77CFFE919F9
:10349000491E8BB2A119491E8AB2A119491E88B2D0
:1034A0002946FFF770FFBDE8F0812DE9F05F054682
:1034B0000E4691469B4600240FFA89F70320A0EBA5
:1034C00049000FFA80FA98E0BBF1000F51D0A046F6
:1034D0004CE006EB080291B22A1990B2FFF717FFF1
:1034E00006EB080291B22A1B90B2FFF710FF3219C7
:1034F00091B2A5EB080290B2FFF709FF321B91B21F
:10350000A5EB080290B2FFF702FFA6EB080291B20A
:103510002A1B90B2FFF7FBFEA6EB080291B22A1914
:1035200090B2FFF7F4FE321B91B205EB080290B2A5
:10353000FFF7EDFE321991B205EB080290B2FFF7EA
:10354000E6FE0FE0FCBF0200700000206C000020CF
:103550006E00002000100240000402407A000020AB
:103560007800002008F101000FFA80F8B845B0DDBE
:103570002FE0F21991B22A1990B2FFF7C8FEF219A2
:1035800091B22A1B90B2FFF7C2FE321991B2EA1B28
:1035900090B2FFF7BCFE321B91B2EA1B90B2FFF76C
:1035A000B6FEF21B91B22A1B90B2FFF7B0FEF21BDF
:1035B00091B22A1990B2FFF7AAFE321B91B2EA1912
:1035C00090B2FFF7A4FE321991B2EA1990B2FFF758
:1035D0009EFE601C04B2BAF1000F05DAA000801D47
:1035E00050440FFA80FA07E0E01B80000A30504494
:1035F0000FFA80FA781E07B200BFBC427FF764AFB3
:10360000BDE8F09F2DE9F05F804689461646A6F199
:1036100020001FFA80FA754909688988734A126880
:10362000D28801FB02F0C11700EB5171C1F3C7074B
:103630006E48006800680AFB070B6C480068C38886
:103640006A480068828849464046FFF702FE2C20FF
:10365000FFF77DFA002416E0002510E01BF80400B7
:1036600080212941084020B161480088FFF7C8FA4D
:1036700003E060480088FFF7C3FA681CC5B2082D54
:10368000ECDB601CC4B2BC42E6DBBDE8F09F70B569
:1036900004460D46002624E03046544909688988CE
:1036A000084455490988884205DD00264F480068CE
:1036B000C088204484B220464C490968C98808441F
:1036C0004E490988884201DD002600242A782146D7
:1036D0003046FFF797FF6D1C4448006880883044EF
:1036E00086B228780028D7D170BD70B505460E4641
:1036F000144624E028463D490968898808443E4923
:103700000988884205DD002538480068C0883044B3
:1037100086B2304635490968C9880844374909885E
:10372000884201DD00250026227831462846FFF731
:1037300069FF641C2D4800688088284485B2207881
:103740000028D7D170BD70B505460E46144624E05A
:10375000304626490968C9880844284909888842AA
:1037600005DD0026214800688088284485B2284667
:103770001E490968898808441F490988884201DD73
:1037800000250026227831462846FFF73BFF641CBF
:1037900016480068C088304486B220780028D7D107
:1037A00070BD124908607047104800687047104AA1
:1037B0001080104A118070470D4A128802800D4A0D
:1037C00012880A8070470A490880704709490880B2
:1037D000704770B50446FFF7E7FFC5882B460648DB
:1037E000028821460020FFF77EFD70BD7400002096
:1037F000780000207A0000206C0000206E0000207D
:10380000704700000FB41CB5074B06AA7B446946FD
:103810000090059800F0DDF80020694600F0ECF813
:103820001CBC5DF814FB0000E90100002DE9F0412B
:103830000E460446002020622046E168884730B3E7
:10384000252805D0D4E901219047206A401CF2E7E1
:10385000E168204600278847050018D0A5F14100FF
:10386000192802D820354FF40067324629462046F1
:103870002760FCF7C3FC40B1012804D0F61D26F0F8
:1038800007060836D8E7361DD6E72846DAE7206A65
:10389000BDE8F0812DE9F041064600241068752945
:1038A000314616A510D0AFF30080002802DA40425E
:1038B00013A507E031688A0701D512A502E0490780
:1038C00004D511A5012401E0AFF3008000210A22F4
:1038D00006F1240709E0B0FBF2FCB0FBF2F302FBB7
:1038E0001C00303078541846491C0028F3D1234678
:1038F0002A463046BDE8F04100F00CB80000000058
:103900002D0000002B0000002000000070477047D1
:10391000704770472DE9F0470D4699469246044698
:1039200000F124080168880604D5E06921F010013F
:10393000216000E00120A84201DD471B00E00027D4
:10394000A1697A1902EB0900081AA0612078C00663
:1039500002D42046AFF30080002608E0D4E901211C
:103960001AF806009047206A401C761C20624E45DB
:10397000F4DB2078C0060AD52046AFF3008006E0CD
:10398000D4E9012130209047206A401C2062381E73
:10399000A7F10107F4DC07E0D4E9012118F80500DC
:1039A0009047206A401C2062281EA5F10105F3DC27
:1039B0002046AFF300802078000602D50220BDE843
:1039C000F0870120FBE7000001694A1C02610878CA
:1039D000704700B58FB0CDE901310021059105494F
:1039E0007944CDE9031011466846FFF71FFF0FB079
:1039F00000BD0000E5FFFFFF0A6802F8010B0A6046
:103A00007047754600F02CF8AE46050069465346EF
:103A100020F00700854618B020B5FCF7CBFEBDE8C6
:103A200020404FF000064FF000074FF000084FF025
:103A3000000B21F00701AC46ACE8C009ACE8C009B6
:103A4000ACE8C009ACE8C0098D46704710B5044623
:103A5000AFF300802046BDE81040FCF7E3BB000058
:103A600000487047440100204FF04070E1EE100A1A
:103A7000704700000F0000000F000000FF00000072
:103A80000F0000000F0000000F0000000000000009
:103A90000000000000000000000000000000000026
:103AA000000000181818181818080008180000005E
:103AB0000000003424242400000000000000000066
:103AC0000000000016247F2424247E24240000000B
:103AD000000000083E6848681C1612127C10100096
:103AE00000000061D296740810162949C600000033
:103AF000000000003C646438724ACE467F0000003B
:103B00000000001818181800000000000000000055
:103B100000000004081810303030301010180C0469
:103B2000000000201008080C0404040C08181020E1
:103B3000000000080A341C6A0800000000000000B1
:103B40000000000000001818187F18181800000066
:103B500000000000000000000000001818083000FD
:103B60000000000000000000003C00000000000019
:103B70000000000000000000000000181800000015
:103B80000000000206040C0808101020204000006D
:103B9000000000003C6642475B7342663C00000048
:103BA0000000000018784808080808087E00000097
:103BB000000000003C460606040810207E000000BD
:103BC000000000007C0606043C0202067C000000A7
:103BD000000000000C1C14246444FF0404000000D6
:103BE000000000007E6060607E0202067C00000033
:103BF000000000001E306048764242623C00000037
:103C0000000000007E0206040C08181030000000BE
:103C1000000000003C6242361C6642423C0000004C
:103C2000000000003C664242661A02047800000070
:103C30000000000000001818000000181800000024
:103C400000000000000018180000001818083000DC
:103C500000000000000004183060100C0600000096
:103C600000000000000000007E007E000000000058
:103C7000000000000000301804060C1020000000B6
:103C8000000000301C06060618100010100000008E
:103C90000000001C224141DDB5A5A5AF94C0403C09
:103CA00000000000181C342426627E43C10000007E
:103CB000000000007C4642467C4242427C000000FC
:103CC000000000001E204040404040603E000000D8
:103CD000000000007C464243434342467800000017
:103CE000000000007E6060607E6060607E0000001A
:103CF000000000007E6060607E6060606000000028
:103D0000000000001E604040CE4242623E000000C3
:103D100000000000424242427E4242424200000015
:103D2000000000007E181818181818187E000000EF
:103D3000000000007C040404040404447800000033
:103D4000000000004244485070584C4442000000BB
:103D50000000000020202020202020203E00000025
:103D6000000000006266675F5B5BC1C1C1000000CC
:103D700000000000626272525A4A4E46460000003D
:103D8000000000003C6243C3C3C343623C00000028
:103D9000000000007C46424246784040400000005F
:103DA000000000003C6243C3C3C343623C180F00E1
:103DB000000000007C6662667C6C64666200000045
:103DC000000000003E6040601C0602027C00000013
:103DD000000000007F1818181818181818000000A4
:103DE0000000000042424242424242623C00000067
:103DF00000000000C14342622624341C1800000069
:103E000000000000C1C141495B5B766666000000AE
:103E10000000000043663418181C2466C30000002C
:103E200000000000C14266341C1818181800000079
:103E3000000000007E02040C181020607E000000CC
:103E40000000001C10101010101010101010101C8A
:103E5000000000402020101008080C04060200009A
:103E60000000003C0C0C0C0C0C0C0C0C0C0C0C3C56
:103E700000000000181C2462000000000000000088
:103E8000000000000000000000000000000000FF33
:103E900000000020100000000000000000000000F2
:103EA0000000000000003C06023E42467A0000008E
:103EB0000000004040405C62424242427C00000000
:103EC0000000000000001E20604060203E00000056
:103ED0000000000202023E62424242663A000000D6
:103EE0000000000000003C62427E40603E00000096
:103EF0000000000F1810107E1010101010000000AD
:103F00000000000000003F66426658403E43423CCD
:103F10000000004040405C624242424242000000D9
:103F20000000001818007808080808087E00000043
:103F3000000000040C007C040404040404040C7855
:103F4000000000606060626C78706864620000006D
:103F50000000007808080808080808087E0000002B
:103F6000000000000000764B4B4B4B4B4B00000019
:103F70000000000000005C62424242424200000039
:103F80000000000000003C62424342623C0000002E
:103F90000000000000005C62424242427C4040401F
:103FA0000000000000003E62424242663A02020205
:103FB0000000000000006E7263606060600000003E
:103FC0000000000000003E20203C06027C000000B3
:103FD000000000001010FE10101010101E00000055
:103FE0000000000000004242424242663A000000E7
:103FF000000000000000434266243418180000004E
:10400000000000000000C1C15B5A5E66660000004F
:1040100000000000000062261C181C266200000040
:1040200000000000000043426624341C181830E0F1
:104030000000000000007E060C1810207E0000002A
:104040000000000E18101010307010101010180E14
:1040500000000808080808080808080808080808F0
:1040600000000030180808080C0E0808080818306E
:104070000000000000000000714B0600000000007E
:104080000000000000000000000000000000000030
:104090000000000000000000000000000000000020
:1040A0000000000000000000000000000000000010
:1040B000000000000000000000000380018001807B
:1040C0000180018001800180018001800180000069
:1040D000000003C003C0000000000000000000005A
:1040E000000000000000000000000E700E700E7056
:1040F0000C30000000000000000000000000000084
:1041000000000000000000000000000000000000AF
:104110000000000000000000000000000618063843
:1041200006307FFE0C300C300C300C307FFE0C6003
:104130001C60186018600000000000000000000013
:10414000000000000000000000C000C00FF83CC8E4
:1041500031C031803D801F8003F001F8031C030C47
:10416000031C3FF83FE007000600000000000000CD
:1041700000000000000000001C007E0E630C6318AD
:1041800063307E6000C001800300077C0EE61CC621
:1041900018C630C6607C000000000000000000006F
:1041A000000000000000000000000FE01CF038706C
:1041B00038701C601FC00F003F8C71CC60EC607CBD
:1041C00070383CFC1FCE0000000000000000000022
:1041D0000000000000000000000003C0018001801A
:1041E000018000000000000000000000000000004E
:1041F00000000000000000000000000000000000BF
:104200000000000000000000003000E001C001805C
:1042100003000700060006000E000E000E000E0050
:10422000060007000300038001C000E0003000002A
:1042300000000000000000000C0006000380018068
:1042400001C000E00060006000700070007000605D
:10425000006000E000C00180038006000C00000048
:1042600000000000000000000000018011881DB85F
:1042700003C007E03DBC0188018000000000000091
:10428000000000000000000000000000000000002E
:10429000000000000000000000000000000000001E
:1042A000018001800180018001807FFE018001800A
:1042B00001800180000000000000000000000000FC
:1042C00000000000000000000000000000000000EE
:1042D00000000000000000000000000000000000DE
:1042E00003C003C001C001C003801F000000000024
:1042F00000000000000000000000000000000000BE
:10430000000000000000000000000FF000000000AE
:10431000000000000000000000000000000000009D
:10432000000000000000000000000000000000008D
:10433000000000000000000000000000000000007D
:1043400003C003C003C00000000000000000000024
:1043500000000000000000000000001800380030DD
:10436000006000E000C001C00180030003000600FF
:104370000E000C001C0018003000000000000000BF
:104380000000000000000000000001800FF01C3859
:10439000381C301C707E70EE738E7E0E7C0C300CE0
:1043A000381C1E780FE00000000000000000000034
:1043B00000000000000000000000000007C01FC057
:1043C00039C001C001C001C001C001C001C001C0AD
:1043D00001C03FFC3FFC00000000000000000000A6
:1043E0000000000000000000000003801FF01838EB
:1043F0000038001800380038007001E00380070022
:104400001C003FFC3FFC000000000000000000001A
:104410000000000000000000000007801FF00038CE
:1044200000380038003007E007F00038001C001C9E
:10443000001820F83FE0000000000000000000002D
:1044400000000000000000000000000000F001B0CB
:10445000033007300E301C30383070307FFE7FFE66
:1044600000300030003000000000000000000000BC
:104470000000000000000000000000001FF818000D
:104480001800180018001FE000F8001C001C001C99
:10449000003800F01FC00000000000000000000015
:1044A00000000000000000000000000003F80F0002
:1044B0001C001800300037F83C3C300C300C380C35
:1044C000381C1E380FF00000000000000000000043
:1044D0000000000000000000000000003FFC001C85
:1044E000001800380070006000E001C00180038007
:1044F000070006000E0000000000000000000000A1
:104500000000000000000000000003C01FF8381C7D
:10451000381C381C1C380FF007F01C78381C300C85
:10452000381C3C380FF000000000000000000000C4
:104530000000000000000000000003801FF0383879
:10454000301C701C700C380C1FFC0FCC001C0018A9
:1045500000701FE01F80000000000000000000004D
:10456000000000000000000000000000000000004B
:10457000000003C003C00180000000000000000034
:1045800003C003C003C000000000000000000000E2
:10459000000000000000000000000000000000001B
:1045A000000003C003C00180000000000000000004
:1045B00003C003C001C001C003800F000000000061
:1045C00000000000000000000000000000000000EB
:1045D000003800F001C007001E0038000E00078000
:1045E00001C000700030000000000000000000006A
:1045F00000000000000000000000000000000000BB
:104600000000000000003FFC000000003FFC3FFCF9
:10461000000000000000000000000000000000009A
:10462000000000000000000000000000000000008A
:104630001C000F00038001E00078001C007001E006
:1046400003800E000C0000000000000000000000CD
:10465000000000000000000000000FC000F0003863
:1046600000380038003803F0038003000300000026
:10467000000007800780000000000000000000002C
:10468000000000000000000000E007F80C0C180615
:104690003006700363F36633C673CC63CC62CC66BA
:1046A000CCE6C7FCE0006000700038101FF000008E
:1046B00000000000000000000000000003C007E050
:1046C00006E00E700E700C301C3818183FFC3FFCD2
:1046D000700E600EE0070000000000000000000007
:1046E0000000000000000000000000003FF038382B
:1046F000381C381C38383FF03FF8381C380C380C60
:10470000381C3FF83FE000000000000000000000FF
:104710000000000000000000000000E007FC1E0494
:104720003800380030007000700070003000380031
:104730003C001F9C07FC000000000000000000007F
:104740000000000000000000000000003FF0307892
:10475000301C300C300E300E300E300E300E301C4F
:1047600030383FF03FC000000000000000000000B3
:104770000000000000000000000000001FF818000A
:104780001800180018001FF81FF81800180018006B
:1047900018001FF81FF800000000000000000000D3
:1047A0000000000000000000000000001FF81800DA
:1047B0001800180018001FF81FF81800180018003B
:1047C00018001800180000000000000000000000A1
:1047D0000000000000000000000000F007FC1E04C4
:1047E000380030007000700070FC700C700C300CE1
:1047F000380C1F1C07FC0000000000000000000037
:10480000000000000000000000000000300C300C30
:10481000300C300C300C3FFC3FFC300C300C300CBA
:10482000300C300C300C00000000000000000000D4
:104830000000000000000000000000003FFC0180BC
:104840000180018001800180018001800180018060
:1048500001803FFC3FFC0000000000000000000061
:104860000000000000000000000000001FF0003009
:1048700000300030003000300030003000300030B8
:1048800000701DE01FC000000000000000000000DC
:10489000000000000000000000000000381C38701C
:1048A00038E039C03B803F003F003B8039C038E0F2
:1048B00038703838381C000000000000000000008C
:1048C0000000000000000000000000001C001C00B0
:1048D0001C001C001C001C001C001C001C001C00F8
:1048E0001C001FFC1FFC0000000000000000000076
:1048F000000000000000000000000000381C7C3CAC
:104900006C3E6E6E666E66CE63C6638661866006BA
:104910006006600660060000000000000000000065
:104920000000000000000000000000003C0C3C0CF7
:104930003E0C360C330C338C318C31CC30EC306C7B
:10494000307C303C301C0000000000000000000003
:104950000000000000000000000001C00FF81C3C37
:10496000381C700E700E60066006700E700E700CB3
:10497000381C1E780FE0000000000000000000005E
:104980000000000000000000000000003FF0383C84
:10499000381C380C380C381C38783FE038003800A8
:1049A000380038003800000000000000000000005F
:1049B0000000000000000000000001C00FF81C3CD7
:1049C000381C700E700E60066006700E700E700C53
:1049D000381C1E780FE0018001C000FF003C000081
:1049E0000000000000000000000000003FF0383828
:1049F00038183818383838F03FC038E03870383850
:104A00003838381C380E000000000000000000009C
:104A10000000000000000000000001E00FF8380076
:104A2000380038003C001F8003F00078001C001C98
:104A3000001C38783FE0000000000000000000008B
:104A40000000000000000000000000007FFE018068
:104A5000018001800180018001800180018001804E
:104A600001800180018000000000000000000000C3
:104A7000000000000000000000000000300C300CBE
:104A8000300C300C300C300C300C300C300C300C46
:104A9000381C1C380FF0000000000000000000006F
:104AA000000000000000000000000000E006700EA2
:104AB000700E381C381C1C181C380C300E70066028
:104AC00007E003C003C00000000000000000000079
:104AD000000000000000000000000000600660060A
:104AE000600660066186638673C673CE766C366C2C
:104AF0003C3C3C3C381C0000000000000000000072
:104B0000000000000000000000000000301C381809
:104B10001C380E7007E003C003C007E00E701C389D
:104B20001838381C700E0000000000000000000063
:104B3000000000000000000000000000700E700C7B
:104B4000381C1C380E70066007E003C0018001802D
:104B500001800180018000000000000000000000D2
:104B60000000000000000000000000003FFC001CEE
:104B70000038007000E001C0038007000E000C0048
:104B800018003FFC3FFC0000000000000000000097
:104B9000000000000000000007F007F0060006001B
:104BA00006000600060006000600060006000600D5
:104BB00006000600060006000600060007F00000DA
:104BC0000000000000000000000018001C000C00A5
:104BD0000600070003000380018001C000C00060E0
:104BE0000070003000380018000C000000000000C9
:104BF00000000000000000000FE00FE00060006017
:104C000000600060006000600060006000600060A4
:104C10000060006000600060006000600FE0000065
:104C200000000000000000000000000003C006C0FB
:104C300006600C301818301C000000000000000056
:104C40000000000000000000000000000000000064
:104C50000000000000000000000000000000000054
:104C60000000000000000000000000000000000044
:104C7000000000000000000000000000FFFF000036
:104C8000000000000000000000001E000380000083
:104C90000000000000000000000000000000000014
:104CA0000000000000000000000000000000000004
:104CB00000000000000000000000000000000000F4
:104CC00000001FF01038001C001C0FFC1C1C381CBE
:104CD000381C3CFC1FDC000000000000000000004D
:104CE000000000000000000000003800380038001C
:104CF00038003BF83E1C3C1C380C380C380C380C87
:104D0000381C3C781FE0000000000000000000009C
:104D10000000000000000000000000000000000093
:104D2000000007F80E001C0038003800380038007A
:104D30001C000F1807F80000000000000000000031
:104D400000000000000000000000001C001C001C0F
:104D5000001C0FFC1C1C381C301C301C301C301C70
:104D6000383C1CFC0F9C000000000000000000000C
:104D70000000000000000000000000000000000033
:104D800000000FF01C38381C300C3FFC30003000A5
:104D900038001E0C07FC00000000000000000000AE
:104DA0000000000000000000003C01FE0380030042
:104DB000030003007FFC7FFC0300030003000300EB
:104DC00003000300030000000000000000000000DA
:104DD00000000000000000000000000000000000D3
:104DE00000000FFE1C383818381818381FF03B80A8
:104DF00030003FF01FFC300E700E381C1FF8000012
:104E000000000000000000000000380038003800FA
:104E100038003BF83E383C1C381C381C381C381C09
:104E2000381C381C381C0000000000000000000086
:104E30000000000000000000018003C003C000006B
:104E400000001FC001C001C001C001C001C001C0FD
:104E500001C001C03FFC0000000000000000000095
:104E60000000000000000000002000700070000042
:104E700000003FF000700070007000700070007063
:104E80000070007000700070007020E03FC00000F3
:104E900000000000000000000000180018001800CA
:104EA0001800183C187018E01B801F001B8019E0C8
:104EB00018701838181C00000000000000000000E6
:104EC000000000000000000000001FC001C001C081
:104ED00001C001C001C001C001C001C001C001C0CA
:104EE00001C001C03FFC0000000000000000000005
:104EF00000000000000000000000000000000000B2
:104F000000006F3C79EE71CE718E718E718E718E54
:104F1000718E718E718E0000000000000000000094
:104F20000000000000000000000000000000000081
:104F300000003BF83E383C1C381C381C381C381C20
:104F4000381C381C381C0000000000000000000065
:104F50000000000000000000000000000000000051
:104F600000000FF01C3C381C700E700E700E700CA0
:104F7000381C1E780FE00000000000000000000058
:104F80000000000000000000000000000000000021
:104F900000003BF83E1C3C1C380C380C380C380C1C
:104FA000381C3C783FE038003800380038000000FA
:104FB00000000000000000000000000000000000F1
:104FC00000000FFC1C1C381C301C301C301C301C1A
:104FD000383C1CFC0F9C001C001C001C001C00002A
:104FE00000000000000000000000000000000000C1
:104FF000000019F81F1C1C0C180E180018001800CF
:105000001800180018000000000000000000000058
:105010000000000000000000000000000000000090
:1050200000000FF81C0018001E000FC001F8001847
:10503000001818381FF000000000000000000000F9
:105040000000000000000000000000000600060054
:1050500006007FFC060006000600060006000600AB
:105060000700078401FC00000000000000000000B1
:105070000000000000000000000000000000000030
:105080000000381C381C381C381C381C381C381CD4
:10509000383C1CFC0FDC0000000000000000000099
:1050A0000000000000000000000000000000000000
:1050B0000000700C381C38181C380C300E7006605C
:1050C00007E003C003C00000000000000000000073
:1050D00000000000000000000000000000000000D0
:1050E0000000600660066186738E73CC33CC366C2C
:1050F000366C3C3C3C380000000000000000000022
:10510000000000000000000000000000000000009F
:105110000000381C1C380E7007E003C003C007E015
:105120000E701C38381E0000000000000000000057
:10513000000000000000000000000000000000006F
:105140000000700C381C38181C380C300E700660CB
:1051500007E003C003C0038007000E007C000000CE
:10516000000000000000000000000000000000003F
:1051700000001FF80038007000E001C00380070045
:105180000C001FFC3FFC00000000000000000000BD
:105190000000000000000000007801F80380038098
:1051A00003800380038003003F003E000300038070
:1051B0000380038003800380038001C000F80000A7
:1051C00000000000018001800180018001800180D9
:1051D00001800180018001800180018001800180C7
:1051E0000180018001800180018001800180000038
:1051F00000000000000000001E001F80018001C0B0
:1052000001C001C001C000C000FC007C00C001C0A2
:1052100001C001C001C001C001C003801F00000027
:10522000000000000000000000000000000000007E
:105230000000000000001C003F0671CE60FC000072
:10524000000000000000000000000000000000005E
:10525000000000000000000000000000000000004E
:10526000000000000000000000000000000000003E
:10527000000000000000000000000000000000002E
:10528000000000000000000000000000000000001E
:10529000000000000000000000000000000000000E
:1052A00000000000000000000000000000000000FE
:1052B00000000000000000000000000000000000EE
:1052C0000000003C00003C00003C00003C00003CB2
:1052D00000003C00003C00003C00003C00003C00A2
:1052E000003C00003C00003C00003C0000000000CE
:1052F0000000003C00007E00003C000000000000B8
:10530000000000000000000000000000000000009D
:10531000000000000000000000000000000000008D
:10532000000003C3E003C3E003C3C003C3C003C35F
:10533000C003C3C003C1C0000000000000000000A3
:10534000000000000000000000000000000000005D
:10535000000000000000000000000000000000004D
:10536000000000000000000000000000000000003D
:10537000000000000000000000000000000000002D
:10538000000000000000000001E0E001C0E001C0FA
:10539000E001C0E03FFFFE3FFFFE03C1C00381C04C
:1053A0000381C00381C07FFFFC7FFFFC0783800770
:1053B00003800703800703800707800000000000C8
:1053C00000000000000000000000000000000000DD
:1053D00000000000000000000000000000000000CD
:1053E0000700000F00000E0001FFF007FFF01F0E86
:1053F000001E1E001E1C001E1C000FDC0007FC000F
:1054000000FF80003FF00038F800387800783C005A
:1054100070783071F83FFFE01FFF0000E00000E00F
:105420000000E0000000000000000000000000009C
:10543000000000000000000000000000000000006C
:1054400000000F800F3FE01E78703C70707070702D
:10545000E07071C03FE3801FC700000E00001C0019
:1054600000780000F0F001E7FC03CF0E078E0E0F6E
:105470000E0E1E0E0E3C07BC7003F800000000006C
:10548000000000000000000000000000000000001C
:10549000000000000000000000000000000000000C
:1054A000000000000001FF0007FF800F03C00F0392
:1054B000C00F03C00F0780079F0003FE0003F0002A
:1054C0000FF83C3E7C3C3C1F3C780FF87807F87C9A
:1054D00001F03E03F81FFFFC07FE1F000000000064
:1054E00000000000000000000000000000000000BC
:1054F00000000000000000000000000000000000AC
:105500000000003E00003C00003C00003C00003C6D
:1055100000003C00003C0000000000000000000013
:10552000000000000000000000000000000000007B
:10553000000000000000000000000000000000006B
:10554000000000000000000000000000000000005B
:10555000000000000000000000000000000000004B
:1055600000800001C0000780000F00001E00003C0A
:105570000000780000F00000E00001E00001E00021
:1055800001C00003C00003C00001C00001E0000131
:10559000E00000F00000F000007800003C00001E79
:1055A00000000F000007C00001C000000000000064
:1055B00000000000000000000000000000000000EB
:1055C000000003C00001E00000F000007C00003E8D
:1055D00000001E00000F000007800007800003800D
:1055E0000003C00003C00003C00003C0000380002C
:1055F0000780000780000F00001E00003C000078BC
:105600000000F00001E00003800000000000000046
:10561000000000000000000000000000000000008A
:105620000000001C00001C000018000F18F007DB31
:10563000E0007F0000FF0007DBE00E18700018009C
:10564000001C00001C000000000000000000000022
:10565000000000000000000000000000000000004A
:10566000000000000000000000000000000000003A
:10567000000000000000000000000000000000002A
:10568000000000000000000000000000000000001A
:1056900000003C00003C00003C00003C00003C00DE
:1056A000003C003FFFFC3FFFFC003C00003C0000D2
:1056B0003C00003C00003C00000000000000000036
:1056C00000000000000000000000000000000000DA
:1056D00000000000000000000000000000000000CA
:1056E00000000000000000000000000000000000BA
:1056F00000000000000000000000000000000000AA
:105700000000000000000000000000000000000099
:105710007C00007E00007E00003E00001E00003C79
:105720000000F80007E00004000000000000000096
:105730000000000000000000000000000000000069
:105740000000000000000000000000000000000059
:105750000000000000000000000000000000000049
:1057600000000003FFE003FFE00000000000000075
:105770000000000000000000000000000000000029
:105780000000000000000000000000000000000019
:105790000000000000000000000000000000000009
:1057A00000000000000000000000000000000000F9
:1057B00000000000000000000000000000000000E9
:1057C00000000000000000000000000000000000D9
:1057D0007C0000FE0000FE00007E000000000000D3
:1057E00000000000000000000000000000000000B9
:1057F00000000000000000000000000000000000A9
:1058000000000000780000F00000E00001E000036C
:10581000C0000380000780000F00000E00001E0083
:10582000003C0000380000700000F00000E00001C3
:10583000C00003C0000780000700000F00001E002A
:10584000001C00000000000000000000000000003C
:105850000000000000000000000000000000000048
:10586000000000000000000001FFC007FFE00F0083
:10587000F01E00781E003C3C00FC3C07FC3C1FBCBA
:105880003C7C1C3DF03C3FC03C3F003C1E00381EB1
:1058900000780F80F007FFE001FF800000000000AB
:1058A00000000000000000000000000000000000F8
:1058B00000000000000000000000000000000000E8
:1058C0000000000000000000007E0003FE001FDE5C
:1058D000000E1E00001E00001E00001E00001E0024
:1058E000001E00001E00001E00001E00001E000022
:1058F0001E00001E000FFFF80FFFF8000000000060
:105900000000000000000000000000000000000097
:105910000000000000000000000000000000000087
:10592000000000000000000003FF800FFFE00E01F8
:10593000F00000F00000F00000F00000F00001E0D6
:105940000003C0000F80003E00007C0001F0000357
:10595000C0000F80001FFFFC1FFFFC0000000000C4
:105960000000000000000000000000000000000037
:105970000000000000000000000000000000000027
:1059800000000000000000000FFF800FFFE000019A
:10599000E00000F00000F00001E00003C001FF00A3
:1059A00001FFC00003F000007800007800007800DC
:1059B00000780001F00FFFC00FFF000000000000A2
:1059C00000000000000000000000000000000000D7
:1059D00000000000000000000000000000000000C7
:1059E0000000000000000000000FC0001FC0003FCA
:1059F000C0007BC000F3C001E3C003C3C00783C085
:105A00000F03C01C03C03803C07FFFFE7FFFFE00F2
:105A100003C00003C00003C00003C000000000007A
:105A20000000000000000000000000000000000076
:105A30000000000000000000000000000000000066
:105A400000000000000000000FFFE00FFFE00F006B
:105A5000000F00000F00000F00000F00000FFF807C
:105A60000FFFE00000F000007800007800007800F0
:105A700000F00003E00FFFC00FFE00000000000078
:105A80000000000000000000000000000000000016
:105A90000000000000000000000000000000000006
:105AA0000000000000000000003FF001FFF003E0F4
:105AB000000780000F00001E00001E1F001FFFE0F7
:105AC0001FC1F81E00781E003C1E003C1E003C0F4B
:105AD00000780F80F807FFE001FF80000000000061
