:020000040800F2
:1000000090C601207D800008190400081B04000828
:100010001F04000823040008270400080000000053
:100020000000000000000000000000002B04000899
:100030002D040008000000002F040008310400080F
:100040009780000897800008978000089780000834
:100050009780000897800008978000089780000824
:100060009780000897800008978000089780000814
:10007000978000089780000897800008BD790008E5
:1000800097800008978000089780000897800008F4
:1000900097800008978000089780000897800008E4
:1000A00097800008978000089780000897800008D4
:1000B000978000089780000803B400089780000824
:1000C00097800008978000089780000897800008B4
:1000D00097800008F37F0008978000089780000849
:1000E0009780000897800008978000089780000894
:1000F0009780000897800008978000089780000884
:100100009780000811740008978000089780000805
:100110009780000897800008978000089780000863
:100120009780000897800008978000089780000853
:100130009780000897800008978000089780000843
:100140009780000897800008978000089780000833
:100150009780000897800008978000089780000823
:100160009780000897800008978000089780000813
:100170009780000897800008978000089780000803
:10018000978000089780000800F002F800F06DF8F2
:100190000AA090E8000C82448344AAF10107DA45E2
:1001A00001D100F062F8AFF2090EBAE80F0013F0C7
:1001B000010F18BFFB1A43F00103184784320100F6
:1001C000A43201000A444FF0000C10F8013B13F078
:1001D000070408BF10F8014B1D1108BF10F8015BA0
:1001E000641E05D010F8016B641E01F8016BF9D193
:1001F00013F0080F1EBF10F8014BAD1C0C1B09D1EA
:100200006D1E58BF01F801CBFAD505E014F8016B5B
:1002100001F8016B6D1EF9D59142D6D370470000ED
:100220000023002400250026103A28BF78C1FBD8FF
:10023000520728BF30C148BF0B607047642910F0D7
:100240001984752910F01684782910F04F846329D9
:1002500010F0EE86732910F0F386002070471FB56A
:1002600011F0CAF81FBD10B510BD10F04DFF1146BA
:10027000FFF7F5FF00F010F810F06BFF03B4FFF785
:10028000F2FF03BC07F056FE30BF72B6704762B68D
:10029000704780F3088870470EB54FF4A06007F0F0
:1002A0000DFFA82007F0C4FD4FF4E13007F04FFE2A
:1002B00000F0C8F93F4841685420884701F09DF894
:1002C00005F006F805F032F907F0C8FB14210846DE
:1002D00007F0FDFC322007F011FD00200AF04FFC72
:1002E00002200AF04CFC0FF01DF833490122086887
:1002F00032A10DF0AFF94FF4784031490880002069
:10030000102130A20B46CDE900210290C8223221F3
:100310003C200FF06AFD0020102130A20B46CDE9F1
:1003200000210290C8226E213C200FF05EFD0020CB
:1003300010212EA20B46CDE900210290C822822175
:100340003C200FF052FD002010212EA20B46CDE9DB
:1003500000210290C82296213C200FF046FD4FF666
:10036000FF701023F02200210090084604F0E3FC07
:100370004FF6FF70F023102200210090084604F091
:10038000DAFC4FF6FF704FF4A073F0224FF498712F
:100390000090002004F0CFFC4FF6FF704FF4A073E4
:1003A000F02200210090E02004F0C5FC01E010F0F4
:1003B0008AF9FCE7D80100208CBF0120303A000008
:1003C000140000204578706C6F7265722053544D94
:1003D00033324634BFAAB7A2B0E500003230313420
:1003E000C4EA35D4C23234C8D50000004B45593078
:1003F0003A4E4558542020204B4559323A505245E8
:10040000560000004B45595F55503A5041555345F1
:100410002F504C4159000000704700BFFEE700BF5D
:10042000FEE700BFFEE700BFFEE77047704770477A
:10043000704700000CB500200190009076480068DD
:1004400040F480307449086000BF7348006800F4CD
:10045000003000900198401C0190009818B9019854
:10046000B0F5A04FF1D16C48006800F4003010B135
:100470000120009001E0002000900098012846D162
:1004800065484030006840F0805063494031086062
:100490006248006840F44040604908605E480830A7
:1004A00000685D49083108600846006840F4004073
:1004B00008600846006840F4A05008605848091FCA
:1004C0000860081F006840F08070091F086000BFC6
:1004D0005148006800F000700028F9D040F2057023
:1004E000504908604C480830006820F003004A4931
:1004F000083108600846006840F00200086000BF4C
:1005000045480830006800F00C000828F8D10CBD00
:1005100010B54548006840F47000434908603E4803
:10052000006840F001003C49086000203A49083169
:100530000860394800683D490840374908603C4830
:10054000091D0860081F006820F48020091F08604A
:10055000002031490C310860FFF76CFF4FF000605C
:1005600031498039086010BD70B500200022022397
:1005700000240221284D08352D6805F00C0020B11B
:10058000042806D0082834D107E02A4D2A4E3560C9
:1005900033E02A4D284E35602FE01F4D2D1D2D686C
:1005A000C5F380541C4D2D1D2D6805F03F0154B13D
:1005B000224DB5FBF1F5184E361D3668C6F3881688
:1005C00005FB06F209E01B4DB5FBF1F5124E361D99
:1005D0003668C6F3881605FB06F20F4D2D1D2D68F3
:1005E000C5F301456D1C6B00B2FBF3F5124E35608F
:1005F00003E0104D104E356000BF00BF064D0835BA
:100600002D68C5F303150E4E705D0B4D2D68C5406A
:10061000094E356070BD0000003802400070004097
:1006200008544007003C024088ED00E0FFFFF6FE62
:10063000103000240024F4000000002000127A0092
:10064000040000201CB50121202008F0AFFB4FF46E
:10065000C060009001208DF8040000208DF8060095
:1006600003208DF8050001208DF807006946044835
:1006700007F01AFE4FF4C061014807F091FE1CBD5F
:100680000014024001B5BDF800000090BDF8000064
:10069000F749088008BD01B5BDF800000090BDF81D
:1006A0000000F349891C088008BD08B5F048801C8B
:1006B00000880090BDF8000008BDED4A1080921C33
:1006C0001180704710B504462046FFF7DBFF052078
:1006D00007F0C8FBFFF7E9FF10BDE6480089E449D1
:1006E00008807047E249891C0880704730B5014690
:1006F00001F01F04C1F34513CA0AE50205EB4315D7
:100700001544A8B230BD00BF011EA0F10102D0B255
:10071000FAD1704730B504460D46D648808849F274
:100720004131884205D0D348808845F21031884253
:1007300014D1D0494889FFF7A5FF2012FFF7ABFF7E
:10074000E0B2FFF7A8FFCB498889FFF79BFF28128B
:10075000FFF7A1FFE8B2FFF79EFFABE0C548808836
:1007600046F6040188421DD1C2488079012804D18F
:10077000C0480088401E001B84B2BE494889FFF76C
:1007800081FF2012FFF787FFE0B2FFF784FFB9492E
:100790008889FFF777FF2812FFF77DFFE8B2FFF7A0
:1007A0007AFF87E0B348808841F66311884247D1D9
:1007B000B0488079A8B9AF480088401E001B84B2B9
:1007C000AC494889FFF75EFF0020FFF764FF002077
:1007D000FFF761FF2012FFF75EFFE0B2FFF75BFF5C
:1007E00016E0A4494889FFF74DFF2012FFF753FF99
:1007F000E0B2FFF750FF9F490988491EC1F30F205F
:10080000FFF749FF9B490978491EC8B2FFF743FF2C
:1008100098498889FFF736FF2812FFF73CFFE8B2B6
:10082000FFF739FF93494988491EC1F30F20FFF7AD
:1008300032FF90498978491EC8B2FFF72CFF39E092
:100840008C48808845F21051884220D189494889D6
:10085000FFF718FF2012FFF71EFF86494989491C40
:1008600088B2FFF70FFFE0B2FFF715FF81498889D3
:10087000FFF708FF2812FFF70EFF7E498989491C00
:1008800088B2FFF7FFFEE8B2FFF705FF12E07948F4
:100890008079012804D177480088401E001B84B26B
:1008A000744948892146FFF708FF7249888929461B
:1008B000FFF703FF30BD2DE9F04105460E46002449
:1008C0000027A0466B480088A84203DD694840889D
:1008D000B04202DC0020BDE8F08131462846FFF737
:1008E00019FF6448808849F24131884211D061483B
:1008F000808846F6040188420BD05E48808845F225
:100900001031884205D05B48808841F663118842E7
:1009100003D12E20FFF7B6FE0DE05648808845F241
:100920001051884204D14FF43850FFF7ABFE02E07B
:100930002220FFF7A7FE4F48808849F220318842E5
:1009400002D10220FFF7DFFEFFF7AFFE0446494861
:10095000808841F66311884201D12046BBE702201E
:10096000FFF7D1FEFFF7A1FE04464248808849F216
:10097000413188420BD03F48808845F2103188428F
:1009800005D03C48808845F2105188420AD10220A7
:10099000FFF7B9FEFFF789FE8046E7B24FF6FF701A
:1009A00000EA07273348808849F22531884216D06B
:1009B0003048808844F23551884210D02D488088D4
:1009C000091F88420BD02B4880884BF20551884282
:1009D00005D0284880884CF20551884201D1204634
:1009E00079E72448808849F2413188420BD0214878
:1009F000808845F21031884205D01E48808845F233
:100A00001051884207D1E012C002B91240EA4110E9
:100A100040EAE8205FE72046FFF768FE5BE700B5A5
:100A20001448808849F24131884211D011488088A9
:100A300046F6040188420BD00E48808845F21031FA
:100A4000884205D00B48808841F66311884203D163
:100A50002920FFF717FE14E00648808845F2105160
:100A6000884209D14FF42450FFF70CFE09E0000042
:100A7000FE07006CE802002040F273110720FFF728
:100A80001CFE00BD00B5FD48808849F24131884216
:100A900011D0FA48808846F6040188420BD0F74806
:100AA000808845F21031884205D0F448808841F6AC
:100AB0006311884203D12820FFF7E4FD0EE0EF48E0
:100AC000808845F21051884204D14FF42050FFF73E
:100AD000D9FD03E000210720FFF7EFFD00BDF0B5D1
:100AE000054600240027E548807901280BD1E3481A
:100AF000808846F60401884205D0E048808841F6A7
:100B00006311884208D1DD488079F0B9DB488088DC
:100B100041F66311884218D1082D15D2DFE805F09F
:100B20000406080A0C0E101206250DE007250BE03E
:100B3000042509E0052507E0012505E0002503E07F
:100B4000032501E0022500BF00BFCC48808849F2A0
:100B50004131884217D0C948808846F6040188424E
:100B600011D0C648808845F2103188420BD0C34866
:100B7000808845F21051884205D0C048808841F6EF
:100B8000631188427ED1082D1CD2DFE805F00406EF
:100B9000090C0F12151800BF14E044F0800411E096
:100BA00044F040040EE044F0C0040BE044F02004A4
:100BB00008E044F0600405E044F0A00402E044F0E2
:100BC000E00400BF00BFAD48808845F21051884264
:100BD00002D14FF4585700E03627A848808845F2E4
:100BE000103188420DD0A548808845F210518842C6
:100BF00007D0A248808841F66311884201D044F0B2
:100C000008049E48808846F60401884201D144F0D9
:100C1000020421463846FFF750FD9848808841F687
:100C2000631188421DD004F0200068B19348008809
:100C300092494988884214DA9048068840888F494A
:100C40000880084646800CE08C4800888B4949881B
:100C5000884206DD89480688408888490880084619
:100C600046808648808845F21051884254D1834995
:100C70004889FFF707FD0020FFF70DFD7F494989EF
:100C8000491C00E077E088B2FFF7FCFC0020FFF78A
:100C900002FD7A494989891C88B2FFF7F3FC77493C
:100CA0000988491EC1F30F20FFF7F5FC73494989F4
:100CB000C91C88B2FFF7E6FC70490978491EC8B222
:100CC000FFF7E9FC6D498889FFF7DCFC0020FFF79E
:100CD000E2FC6A498989491C88B2FFF7D3FC0020ED
:100CE000FFF7D9FC65498989891C88B2FFF7CAFCDE
:100CF00062494988491EC1F30F20FFF7CCFC5F49C8
:100D00008989C91C88B2FFF7BDFC5C498978491EF6
:100D1000C8B2FFF7C0FC55E058494889FFF7B2FC5C
:100D20000020FFF7B8FC0020FFF7B5FC5349098805
:100D3000491EC1F30F20FFF7AEFC50490978491E48
:100D4000C8B2FFF7A8FC4D498889FFF79BFC00203B
:100D5000FFF7A1FC0020FFF79EFC48494988491E87
:100D6000C1F30F20FFF797FC44498978491EC8B2A8
:100D7000FFF791FC26E0082D1CD2DFE805F0040700
:100D80000A0D0F12151844F0300413E044F010045B
:100D900010E044F020040DE000BF0BE044F0380404
:100DA00008E044F0280405E044F0180402E044F0B0
:100DB000080400BF00BF032744F48054214638468E
:100DC000FFF77BFCF0BD30B504460D4629462046B2
:100DD000FFF7A0FCFFF781FC29480088294908801B
:100DE00030BD70B504460D4616462448808849F249
:100DF0004131884205D02148808845F2103188422F
:100E000014D11E494889FFF73DFC2012FFF743FC2F
:100E1000E0B2FFF740FC19498889FFF733FC28123C
:100E2000FFF739FCE8B2FFF736FC93E013488088FF
:100E300045F21051884227D110494889FFF722FC1A
:100E40002012FFF728FC0D494989491C88B2FFF799
:100E500019FCE0B2FFF71FFC08498889FFF712FC74
:100E60002812FFF718FC05498989491C88B2FFF749
:100E700009FCE8B2FFF70FFC6CE00000E80200207C
:100E8000140000200008006CFE48808841F66311C1
:100E9000884228D1FB48807920B9FA480088401E52
:100EA000001B84B2F7494889FFF7ECFB2012FFF7DB
:100EB000F2FBE0B2FFF7EFFB2012FFF7ECFBE0B232
:100EC000FFF7E9FBEF498889FFF7DCFB2812FFF702
:100ED000E2FBE8B2FFF7DFFB2812FFF7DCFBE8B22A
:100EE000FFF7D9FB36E0E748808846F604018842E0
:100EF0001DD1E4488079012804D1E2480088401ED1
:100F0000001B84B2DF494889FFF7BCFB2012FFF7C2
:100F1000C2FBE0B2FFF7BFFBDA498889FFF7B2FBFB
:100F20002812FFF7B8FBE8B2FFF7B5FB12E0D5488F
:100F30008079012804D1D3480088401E001B84B268
:100F4000D04948892146FFF7B8FBCE498889294610
:100F5000FFF7B3FBCB480089CB490880881C06808B
:100F600070BD70B52DED048B0446BE20FFF78AFBE3
:100F70000520FFF790FB204610F02DF941EC190BEE
:100F80009FEDC20B53EC102B10F038F941EC180B0D
:100F900010F0F4F885B22846FFF77DFB0120FFF73B
:100FA0007AFBFF20FFF777FB0020FFF774FB0020A0
:100FB000FFF771FBBDEC048B70BD10B50446002C2F
:100FC00066D1B0498871F02008804FF4A070488045
:100FD0000846808849F2413188420BD0A948808870
:100FE00046F60401884205D0A648808845F21031B3
:100FF00088421AD12C20A34908812A2048812B201D
:1010000088810846808846F60401884205D09D48BC
:10101000808845F21031884206D14FF4A07099497A
:1010200008804FF4F0704880A1E09648808845F22F
:101030001051884210D14FF43050924908814FF43A
:10104000285048814FF42C5088814FF4F07008806C
:101050004FF4487048808AE08A48808841F66311DE
:1010600088420DD12C20874908812B2048812A20D5
:1010700088814FF4F07008804FF44870488076E023
:1010800022208049088120204881212088816EE02B
:1010900001207C4988714FF4A0700880F0204880BE
:1010A0000846808849F24131884205D075488088D9
:1010B00045F21031884207D12C20724908812A203C
:1010C00048812B2088813FE06E48808846F60401E5
:1010D000884207D12C206B4908812B2048812A2087
:1010E000888131E06748808845F21051884210D1EC
:1010F0004FF43050634908814FF4285048814FF431
:101100002C5088814FF4487008804FF4F07048806C
:101110001AE05C48808841F6631188420DD12C208A
:10112000584908812A2048812B2088814FF4487033
:1011300008804FF4F070488006E022205149088171
:1011400021204881202088814E48808846F604016D
:10115000884205D04B48808845F21031884206D13C
:101160004FF4F070474908804FF4A0704880002089
:10117000FFF7B5FC10BD2DE9F04F86B004460D46D3
:101180009046994604EB0800401E86B205EB090024
:10119000401E87B23B48808849F24131884215D0D1
:1011A0003848808845F2103188420FD03548808811
:1011B00046F60401884209D032488079012826D1B8
:1011C0003048808841F66311884220D12D494889F2
:1011D000FFF758FA2012FFF75EFAE0B2FFF75BFA6A
:1011E0003012FFF758FAF0B2FFF755FA254988890F
:1011F000FFF748FA2812FFF74EFAE8B2FFF74BFA6A
:101200003812FFF748FAF8B2FFF745FAC0E01D4878
:10121000808841F6631188423CD11A480088A0EBCF
:101220000800001B84B205EB0900401E1FFA80F97C
:1012300014494889FFF726FA2012FFF72CFAE0B28A
:10124000FFF729FA04EB0801491EC1F30F20FFF74D
:1012500022FA04EB0801491EC8B2FFF71CFA09493B
:101260008889FFF70FFA2812FFF715FAE8B2FFF79F
:1012700012FA4FEA2920FFF70EFA09F0FF00FFF7F4
:101280000AFA85E0E8020020FE07006C66666666E2
:1012900066660440FE48808845F21051884244D179
:1012A000FB494889FFF7EEF92012FFF7F4F9F849F6
:1012B0004989491C88B2FFF7E5F9E0B2FFF7EBF97D
:1012C000F3494989891C88B2FFF7DCF93012FFF72E
:1012D000E2F9EF494989C91C88B2FFF7D3F9F0B2A6
:1012E000FFF7D9F9EA498889FFF7CCF92812FFF707
:1012F000D2F9E7498989491C88B2FFF7C3F9E8B2F6
:10130000FFF7C9F9E2498989891C88B2FFF7BAF960
:101310003812FFF7C0F9DE498989C91C88B2FFF786
:10132000B1F9F8B2FFF7B7F932E0D948807901286E
:101330000ED1AA46BB46D6480088801B401E80B20C
:101340000190D3480088001B401E80B2009003E04B
:10135000A246B34601950097502005905120049075
:10136000522003905320029051460598FFF7A5F9AB
:1013700059460498FFF7A1F901990398FFF79DF9E1
:1013800000990298FFF799F929462046FFF7C2F91C
:1013900006B0BDE8F08F70B504460026BC4805884D
:1013A00040884543BA48808846F60401884216D1F1
:1013B000B7488079012812D10020B54988712A20C8
:1013C00048812B20888100210846FFF7A3F90120DE
:1013D000AF4988712B2048812A20888103E00021B1
:1013E0000846FFF797F9FFF778F9002602E0A948C9
:1013F0000480761CAE42FAD370BD00B5A1B00020C7
:10140000209001217A2007F0D1FC0121084607F045
:1014100005FD01201E908DF87C0000208DF87E00D7
:1014200002208DF87D0001208DF87F001EA99A48CA
:1014300006F03AFF4CF233701E9002208DF87C00CB
:1014400000208DF87E0003208DF87D0001208DF8AE
:101450007F001EA9914806F027FF4FF680701E906E
:1014600002208DF87C0000208DF87E0003208DF88E
:101470007D0001208DF87F001EA9894806F014FF29
:1014800041F201001E9002208DF87C0000208DF8B2
:101490007E0003208DF87D0001208DF87F001EA9BD
:1014A000804806F001FF0C2200217C4806F087FFEF
:1014B0000C220121794806F082FF0C220421774892
:1014C00006F07DFF0C220521744806F078FF0C22FF
:1014D0000821724806F073FF0C2209216F4806F0BC
:1014E0006EFF0C220A216D4806F069FF0C220E21C6
:1014F0006A4806F064FF0C220F21684806F05FFF7F
:101500000C220721664806F05AFF0C220821644885
:1015100006F055FF0C220921614806F050FF0C220D
:101520000A215F4806F04BFF0C220B215C4806F0B5
:1015300046FF0C2211465A4806F041FF0C220D21AD
:10154000574806F03CFF0C220E21554806F037FFA5
:101550000C220F21524806F032FF0C220021514884
:1015600006F02DFF0C2211464E4806F028FF0F20F2
:101570000890002009903C200A9000200B900C90CD
:101580000D900E90092001900020029008200390F9
:101590000020049005900690079006200F900020F0
:1015A000109011901020129000201390159014901C
:1015B000169017904FF480501890002019904FF417
:1015C00080401A9000201B9008A81C9001A81D9034
:1015D0000FA806F048FF0121062006F0CFFF3220B9
:1015E00006F088FC01210020FFF767F8322006F0A2
:1015F00081FC0020FFF766F825498880084680882E
:10160000FF280ADB084680884FF6FF71884204D025
:101610001F488088B0F5134F7ED1D320FFF732F8F2
:10162000FFF743F81A498880FFF73FF81849888088
:10163000FFF73BF816498880084680884FF6FF710F
:1016400001EA002012498880FFF72FF810498988A5
:1016500008430F4988800846808849F24131884212
:101660005AD0BF20FFF70EF8FFF71FF8084988800F
:10167000FFF71BF806498880FFF717F804498880B0
:10168000FFF713F802498880084680880CE00000C4
:10169000E80200200008006C00040240000C024038
:1016A00000100240001802404FF6FF7101EA0020CE
:1016B000FE498880FEF7F9FFFC4989880843FB4909
:1016C00088800846808846F6040188427AD0D42073
:1016D000FEF7D8FFFEF7E9FFF4498880FEF7E5FF43
:1016E000F2498880FEF7E1FFF0498880084680884B
:1016F0004FF6FF7101EA0020EC498880FEF7D5FF24
:10170000EA4989880843E94988800846808845F283
:101710001031884256D000E054E04FF45A40FEF7B2
:10172000B1FFFEF7C2FFE14988804FF45B40FEF74E
:10173000A9FFFEF7BAFFDD498880084680884FF68A
:10174000FF7101EA0020D94988804FF45C40FEF720
:1017500099FFFEF7AAFFD54989880843D3498880B5
:1017600008468088B0F5004F02D145F210508880BD
:10177000CE48808845F21051884223D0A120FEF740
:1017800081FFFEF792FFC9498880FEF78EFFC749A7
:101790008880084680884FF6FF7101EA0020C3491F
:1017A0008880FEF782FFC14989880843BF49888045
:1017B0000846808845F26171884203D141F6631082
:1017C000BA498880B948808849F24131884211D0AD
:1017D000B648808845F2103188420BD0B3488088E3
:1017E00045F21051884205D0B048808841F6631117
:1017F00088421DD1AE48006820F00F004FF0204114
:10180000C1F81C010846D0F81C0120F47060C1F832
:101810001C010846D0F81C0140F00300C1F81C016F
:101820000846D0F81C0140F40070C1F81C0128E003
:101830009E48808846F60401884205D09B488088EF
:101840004CF2055188421CD19948006820F00F00E5
:101850004FF02041C1F81C010846D0F81C0120F4CB
:101860007060C1F81C010846D0F81C0140F00A0065
:10187000C1F81C010846D0F81C0140F44060C1F8D2
:101880001C018A4881888BA00FF098F887488088CF
:1018900049F2413188427CD1CF20FEF7F3FE00208F
:1018A000FEF7F9FEC120FEF7F6FE3020FEF7F3FE4C
:1018B000ED20FEF7E7FE6420FEF7EDFE0320FEF7C5
:1018C000EAFE1220FEF7E7FE8120FEF7E4FEE820A4
:1018D000FEF7D8FE8520FEF7DEFE1020FEF7DBFEC9
:1018E0007A20FEF7D8FECB20FEF7CCFE3920FEF79B
:1018F000D2FE2C20FEF7CFFE0020FEF7CCFE3420D7
:10190000FEF7C9FE0220FEF7C6FEF720FEF7BAFE7C
:101910002020FEF7C0FEEA20FEF7B4FE0020FEF70E
:10192000BAFE0020FEF7B7FEC020FEF7ABFE1B207C
:10193000FEF7B1FEC120FEF7A5FE0120FEF7ABFECB
:10194000C520FEF79FFE3020FEF7A5FE3020FEF7F3
:10195000A2FEC720FEF796FEB720FEF79CFE3620BB
:10196000FEF790FE4820FEF796FE3A20FEF78AFE2C
:101970005520FEF790FEB120FEF784FE0020FEF712
:101980008AFE1A20FEF787FEB620FEF77BFE0A20AD
:1019900000E0A7E0FEF77FFEA220FEF77CFEF2202B
:1019A000FEF770FE0020FEF776FE2620FEF76AFEA8
:1019B0000120FEF770FEE020FEF764FE0F20FEF728
:1019C0006AFE2A20FEF767FE2820FEF764FE082044
:1019D000FEF761FE0E20FEF75EFE0820FEF75BFEBE
:1019E0005420FEF758FEA920FEF755FE4320FEF7CF
:1019F00052FE0A20FEF74FFE0F20FEF74CFE00209D
:101A0000FEF749FE0020FEF746FE0020FEF743FEEB
:101A10000020FEF740FEE120FEF734FE0020FEF736
:101A20003AFE1520FEF737FE1720FEF734FE07209A
:101A3000FEF731FE1120FEF72EFE0620FEF72BFEEC
:101A40002B20FEF728FE5620FEF725FE3C20FEF751
:101A500022FE0520FEF71FFE1020FEF71CFE0F20C1
:101A6000FEF719FE3F20FEF716FE3F20FEF713FE9D
:101A70000F20FEF710FE2B20FEF704FE0020FEF7DD
:101A80000AFE0020FEF707FE0120FEF704FE3F20BD
:101A9000FEF701FE2A20FEF7F5FD0020FEF7FBFD14
:101AA0000020FEF7F8FD00200CE00000E802002016
:101AB0001C0100A0204C43442049443A25780D0ADB
:101AC00000000000FEF7E7FDEF20FEF7E4FD112027
:101AD000FEF7D8FD782006F00DFA2920FEF7D2FD9A
:101AE00003F01DB9FE48808846F6040188427CD187
:101AF0001120FEF7C7FD142006F0FCF9D020FEF7F8
:101B0000C1FD0720FEF7C7FD4220FEF7C4FD1D20E2
:101B1000FEF7C1FDD120FEF7B5FD0020FEF7BBFDAD
:101B20001A20FEF7B8FD0920FEF7B5FDD220FEF71A
:101B3000A9FD0120FEF7AFFD2220FEF7ACFDC0207D
:101B4000FEF7A0FD1020FEF7A6FD3B20FEF7A3FD4B
:101B50000020FEF7A0FD0220FEF79DFD1120FEF7FC
:101B60009AFDC520FEF78EFD0320FEF794FDC820E8
:101B7000FEF788FD0020FEF78EFD2520FEF78BFD89
:101B80002120FEF788FD0520FEF785FD0020FEF7E9
:101B900082FD0A20FEF77FFD6520FEF77CFD2520F3
:101BA000FEF779FD7720FEF776FD5020FEF773FDF6
:101BB0000F20FEF770FD0020FEF76DFDF820FEF708
:101BC00061FD0120FEF767FDFE20FEF75BFD0020B2
:101BD000FEF761FD0220FEF75EFD2020FEF752FDBC
:101BE0003620FEF74FFD082000E02CE0FEF753FD05
:101BF0003A20FEF747FD5520FEF74DFD2B20FEF75E
:101C000041FD0020FEF747FD0020FEF744FD0120C6
:101C1000FEF741FD3F20FEF73EFD2A20FEF732FD94
:101C20000020FEF738FD0020FEF735FD0120FEF70D
:101C300032FDDF20FEF72FFD782006F05BF929202A
:101C4000FEF720FD4CE7A648808845F21031884217
:101C500040F07C87ED20FEF715FD0120FEF71BFD0F
:101C6000FE20FEF718FDEE20FEF70CFDDE20FEF74D
:101C700012FD2120FEF70FFDF120FEF703FD0120EC
:101C8000FEF709FDDF20FEF7FDFC1020FEF703FD47
:101C9000C420FEF7F7FC8F20FEF7FDFCC620FEF700
:101CA000F1FC0020FEF7F7FCE220FEF7F4FCE22056
:101CB000FEF7F1FCE220FEF7EEFCBF20FEF7E2FCAF
:101CC000AA20FEF7E8FCB020FEF7DCFC0D20FEF7B2
:101CD000E2FC0020FEF7DFFC0D20FEF7DCFC00201C
:101CE000FEF7D9FC1120FEF7D6FC0020FEF7D3FC4E
:101CF0001920FEF7D0FC0020FEF7CDFC2120FEF7D6
:101D0000CAFC0020FEF7C7FC2D20FEF7C4FC002013
:101D1000FEF7C1FC3D20FEF7BEFC0020FEF7BBFC39
:101D20005D20FEF7B8FC0020FEF7B5FC5D20FEF755
:101D3000B2FC0020FEF7AFFCB120FEF7A3FC802030
:101D4000FEF7A9FC0020FEF7A6FC8B20FEF7A3FC03
:101D50000020FEF7A0FC9620FEF79DFC0020FEF779
:101D60009AFCB220FEF78EFC0020FEF794FC0020C7
:101D7000FEF791FC0220FEF78EFC0020FEF78BFCA4
:101D80000320FEF788FC0020FEF785FCB320FEF759
:101D900079FC0020FEF77FFC0020FEF77CFC002091
:101DA000FEF779FC0020FEF776FC0020FEF773FCBE
:101DB0000020FEF770FC0020FEF76DFC0020FEF70F
:101DC0006AFC0020FEF767FC0020FEF764FC0020A0
:101DD000FEF761FC0020FEF75EFC0020FEF75BFCD6
:101DE0000020FEF758FC0020FEF755FC0020FEF70F
:101DF00052FC0020FEF74FFC0020FEF74CFC0020B8
:101E0000FEF749FC0020FEF746FC0020FEF743FCED
:101E10000020FEF740FC0020FEF73DFC0020FEF70E
:101E20003AFCB420FEF72EFC8B20FEF734FC002099
:101E3000FEF731FC9620FEF72EFC0020FEF72BFC6F
:101E4000A120FEF728FC0020FEF725FCB520FEF7B8
:101E500019FC0220FEF71FFC0020FEF71CFC0320EB
:101E6000FEF719FC0020FEF716FC0420FEF713FC19
:101E70000020FEF710FCB620FEF704FC0020FEF761
:101E80000AFC0020FEF707FCB720FEF7FBFB002052
:101E9000FEF701FC0020FEF7FEFB3F20FEF7FBFBF8
:101EA0000020FEF7F8FB5E20FEF7F5FB0020FEF7B2
:101EB000F2FB6420FEF7EFFB0020FEF7ECFB8C202A
:101EC000FEF7E9FB0020FEF7E6FBAC20FEF7E3FBA4
:101ED0000020FEF7E0FBDC20FEF7DDFB002001E048
:101EE000E8020020FEF7D7FB7020FEF7D4FB0020AD
:101EF000FEF7D1FB9020FEF7CEFB0020FEF7CBFBD8
:101F0000EB20FEF7C8FB0020FEF7C5FBDC20FEF748
:101F1000C2FB0020FEF7BFFBB820FEF7B3FB00209A
:101F2000FEF7B9FB0020FEF7B6FB0020FEF7B3FB7F
:101F30000020FEF7B0FB0020FEF7ADFB0020FEF70F
:101F4000AAFB0020FEF7A7FB0020FEF7A4FBBA20A7
:101F5000FEF798FB2420FEF79EFB0020FEF79BFB7C
:101F60000020FEF798FB0020FEF795FBC120FEF74E
:101F700089FB2020FEF78FFB0020FEF78CFB54200E
:101F8000FEF789FB0020FEF786FBFF20FEF783FBB0
:101F90000020FEF780FBC220FEF774FB0A20FEF74C
:101FA0007AFB0020FEF777FB0420FEF774FB00208D
:101FB000FEF771FBC320FEF765FB3C20FEF76BFBD1
:101FC0000020FEF768FB3A20FEF765FB0020FEF7D5
:101FD00062FB3920FEF75FFB0020FEF75CFB372039
:101FE000FEF759FB0020FEF756FB3C20FEF753FBA3
:101FF0000020FEF750FB3620FEF74DFB0020FEF7D9
:102000004AFB3220FEF747FB0020FEF744FB2F205F
:10201000FEF741FB0020FEF73EFB2C20FEF73BFBCA
:102020000020FEF738FB2920FEF735FB0020FEF7E5
:1020300032FB2620FEF72FFB0020FEF72CFB24208E
:10204000FEF729FB0020FEF726FB2420FEF723FBEA
:102050000020FEF720FB2320FEF71DFB0020FEF7EB
:102060001AFB3C20FEF717FB0020FEF714FB36207E
:10207000FEF711FB0020FEF70EFB3220FEF70BFBF4
:102080000020FEF708FB2F20FEF705FB0020FEF7DF
:1020900002FB2C20FEF7FFFA0020FEF7FCFA2920B5
:1020A000FEF7F9FA0020FEF7F6FA2620FEF7F3FA1B
:1020B0000020FEF7F0FA2420FEF7EDFA0020FEF7EC
:1020C000EAFA2420FEF7E7FA0020FEF7E4FA2320DC
:1020D000FEF7E1FA0020FEF7DEFAC420FEF7D2FA9E
:1020E0006220FEF7D8FA0020FEF7D5FA0520FEF7A9
:1020F000D2FA0020FEF7CFFA8420FEF7CCFA0020B7
:10210000FEF7C9FAF020FEF7C6FA0020FEF7C3FA80
:102110001820FEF7C0FA0020FEF7BDFAA420FEF753
:10212000BAFA0020FEF7B7FA1820FEF7B4FA00203A
:10213000FEF7B1FA5020FEF7AEFA0020FEF7ABFA38
:102140000C20FEF7A8FA0020FEF7A5FA1720FEF7EC
:10215000A2FA0020FEF79FFA9520FEF79CFA0020D5
:10216000FEF799FAF320FEF796FA0020FEF793FAAD
:10217000E620FEF790FA0020FEF78DFAC520FEF764
:1021800081FA3220FEF787FA0020FEF784FA442015
:10219000FEF781FA0020FEF77EFA6520FEF77BFA53
:1021A0000020FEF778FA7620FEF775FA0020FEF799
:1021B00072FA8820FEF76FFA0020FEF76CFAC6204C
:1021C000FEF760FA2020FEF766FA0020FEF763FAB9
:1021D0001720FEF760FA0020FEF75DFA0120FEF7F7
:1021E0005AFA0020FEF757FAC720FEF74BFA0020F4
:1021F000FEF751FA0020FEF74EFA0020FEF74BFAE8
:102200000020FEF748FAC820FEF73CFA0020FEF74F
:1022100042FA0020FEF73FFA0020FEF73CFA0020C9
:10222000FEF739FAC920FEF72DFA0020FEF733FA3F
:102230000020FEF730FA0020FEF72DFA0020FEF70E
:102240002AFA0020FEF727FA0020FEF724FA0020E1
:10225000FEF721FA0020FEF71EFA0020FEF71BFA17
:102260000020FEF718FA0020FEF715FA0020FEF70E
:1022700012FA0020FEF70FFA0020FEF70CFA0020F9
:10228000FEF709FA0020FEF706FAE020FEF7FAF959
:102290001620FEF700FA0020FEF7FDF91C20FEF7DD
:1022A000FAF90020FEF7F7F92120FEF7F4F90020F3
:1022B000FEF7F1F93620FEF7EEF90020FEF7EBF914
:1022C0004620FEF7E8F90020FEF7E5F95220FEF778
:1022D000E2F90020FEF7DFF96420FEF7DCF90020C8
:1022E000FEF7D9F97A20FEF7D6F90020FEF7D3F9E8
:1022F0008B20FEF7D0F90020FEF7CDF99920FEF7EC
:10230000CAF90020FEF7C7F9A820FEF7C4F900209B
:10231000FEF7C1F9B920FEF7BEF90020FEF7BBF9C0
:10232000C420FEF7B8F90020FEF7B5F9CA20FEF781
:10233000B2F90020FEF7AFF9D220FEF7ACF9002089
:10234000FEF7A9F9D920FEF7A6F90020FEF7A3F9B8
:10235000E020FEF7A0F90020FEF79DF9F320FEF73C
:102360009AF90020FEF797F9E120FEF78BF9162085
:10237000FEF791F90020FEF78EF91C20FEF78BF98D
:102380000020FEF788F92220FEF785F90020FEF7ED
:1023900082F93620FEF77FF90020FEF77CF9452010
:1023A000FEF779F90020FEF776F95220FEF773F96F
:1023B0000020FEF770F96420FEF76DF90020FEF7AB
:1023C0006AF97A20FEF767F90020FEF764F98B209E
:1023D000FEF761F90020FEF75EF99920FEF75BF940
:1023E0000020FEF758F9A820FEF755F90020FEF767
:1023F00052F9B920FEF74FF90020FEF74CF9C4203E
:10240000FEF749F90020FEF746F9CA20FEF743F926
:102410000020FEF740F9D220FEF73DF90020FEF73C
:102420003AF9D820FEF737F90020FEF734F9E0201A
:10243000FEF731F90020FEF72EF9F320FEF72BF915
:102440000020FEF728F9E220FEF71CF90520FEF730
:1024500022F90020FEF71FF90B20FEF71CF90020DF
:10246000FEF719F91B20FEF716F90020FEF713F905
:102470003420FEF710F90020FEF70DF94420FEF796
:102480000AF90020FEF707F94F20FEF704F90020B3
:10249000FEF701F96120FEF7FEF80020FEF7FBF8D9
:1024A0007920FEF7F8F80020FEF7F5F88820FEF70F
:1024B000F2F80020FEF7EFF89720FEF7ECF8002086
:1024C000FEF7E9F8A620FEF7E6F80020FEF7E3F8AD
:1024D000B720FEF7E0F80020FEF7DDF8C220FEF797
:1024E000DAF80020FEF7D7F8C720FEF7D4F800206E
:1024F000FEF7D1F8D120FEF7CEF80020FEF7CBF89A
:10250000D620FEF7C8F80020FEF7C5F8DD20FEF75C
:10251000C2F80020FEF7BFF8F320FEF7BCF8002059
:10252000FEF7B9F8E320FEF7ADF80520FEF7B3F8A3
:102530000020FEF7B0F80A20FEF7ADF80020FEF705
:10254000AAF81C20FEF7A7F80020FEF7A4F8332015
:10255000FEF7A1F80020FEF79EF84420FEF79BF856
:102560000020FEF798F85020FEF795F80020FEF7BF
:1025700092F86220FEF78FF80020FEF78CF87820A2
:10258000FEF789F80020FEF786F88820FEF783F82A
:102590000020FEF780F89720FEF77DF80020FEF778
:1025A0007AF8A620FEF777F80020FEF774F8B72037
:1025B000FEF771F80020FEF76EF8C220FEF76BF808
:1025C0000020FEF768F8C720FEF765F80020FEF748
:1025D00062F8D120FEF75FF80020FEF75CF8D52006
:1025E000FEF759F80020FEF756F8DD20FEF753F805
:1025F0000020FEF750F8F320FEF74DF80020FEF71C
:102600004AF8E420FEF73EF80120FEF744F80020E7
:10261000FEF741F80120FEF73EF80020FEF73BF8F8
:102620000220FEF738F80020FEF735F82A20FEF7E2
:1026300032F80020FEF72FF83C20FEF72CF800209F
:10264000FEF729F84B20FEF726F80020FEF723F8C6
:102650005D20FEF720F80020FEF71DF87420FEF73D
:102660001AF80020FEF717F88420FEF714F800206F
:10267000FEF711F89320FEF70EF80020FEF70BF896
:10268000A220FEF708F80020FEF705F8B320FEF7B9
:1026900002F80020FDF7FFFFBE20FDF7FCFF002041
:1026A000FDF7F9FFC420FDF7F6FF0020FDF7F3FF6B
:1026B000CD20FDF7F0FF0020FDF7EDFFD320FDF763
:1026C000EAFF0020FDF7E7FFDD20FDF7E4FF002033
:1026D000FDF7E1FFF320FDF7DEFF0020FDF7DBFF54
:1026E000E520FDF7CFFF0020FDF7D5FF0020FDF727
:1026F000D2FF0020FDF7CFFF0020FDF7CCFF022026
:10270000FDF7C9FF0020FDF7C6FF2920FDF7C3FF35
:102710000020FDF7C0FF3C20FDF7BDFF0020FDF7C6
:10272000BAFF4B20FDF7B7FF0020FDF7B4FF5D2097
:10273000FDF7B1FF0020FDF7AEFF7420FDF7ABFF02
:102740000020FDF7A8FF8420FDF7A5FF0020FDF77E
:10275000A2FF9320FDF79FFF0020FDF79CFFA22022
:10276000FDF799FF0020FDF796FFB320FDF793FFDB
:102770000020FDF790FFBE20FDF78DFF0020FDF744
:102780008AFFC420FDF787FF0020FDF784FFCD20DE
:10279000FDF781FF0020FDF77EFFD320FDF77BFFD3
:1027A0000020FDF778FFDC20FDF775FF0020FDF726
:1027B00072FFF320FDF76FFF0020FDF76CFFE620AE
:1027C000FDF760FF1120FDF766FF0020FDF763FFB6
:1027D0003420FDF760FF0020FDF75DFF5620FDF778
:1027E0005AFF0020FDF757FF7620FDF754FF002029
:1027F000FDF751FF7720FDF74EFF0020FDF74BFF5F
:102800006620FDF748FF0020FDF745FF8820FDF713
:1028100042FF0020FDF73FFF9920FDF73CFF00201D
:10282000FDF739FFBB20FDF736FF0020FDF733FF32
:102830009920FDF730FF0020FDF72DFF6620FDF702
:102840002AFF0020FDF727FF5520FDF724FF002079
:10285000FDF721FF5520FDF71EFF0020FDF71BFFB0
:102860004520FDF718FF0020FDF715FF4320FDF779
:1028700012FF0020FDF70FFF4420FDF70CFF0020A2
:10288000FDF709FFE720FDF7FDFE3220FDF703FF0E
:102890000020FDF700FF5520FDF7FDFE0020FDF7AD
:1028A000FAFE7620FDF7F7FE0020FDF7F4FE662025
:1028B000FDF7F1FE0020FDF7EEFE6720FDF7EBFED1
:1028C0000020FDF7E8FE6720FDF7E5FE0020FDF79C
:1028D000E2FE8720FDF7DFFE0020FDF7DCFE9920F9
:1028E000FDF7D9FE0020FDF7D6FEBB20FDF7D3FE95
:1028F0000020FDF7D0FE9920FDF7CDFE0020FDF76A
:10290000CAFE7720FDF7C7FE0020FDF7C4FE442075
:10291000FDF7C1FE0020FDF7BEFE5620FDF7BBFE11
:102920000020FDF7B8FE2320FDF7B5FE0020FDF7DF
:10293000B2FE3320FDF7AFFE0020FDF7ACFE4520D0
:10294000FDF7A9FE0020FDF7A6FEE820FDF79AFEA0
:102950000020FDF7A0FE0020FDF79DFE9920FDF769
:102960009AFE0020FDF797FE8720FDF794FE0020D9
:10297000FDF791FE8820FDF78EFE0020FDF78BFE0F
:102980007720FDF788FE0020FDF785FE6620FDF725
:1029900082FE0020FDF77FFE8820FDF77CFE0020F0
:1029A000FDF779FEAA20FDF776FE0020FDF773FE05
:1029B000BB20FDF770FE0020FDF76DFE9920FDF7AE
:1029C0006AFE0020FDF767FE6620FDF764FE00202A
:1029D000FDF761FE5520FDF75EFE0020FDF75BFE72
:1029E0005520FDF758FE0020FDF755FE4420FDF769
:1029F00052FE0020FDF74FFE4420FDF74CFE002064
:102A0000FDF749FE5520FDF746FE0020FDF743FE89
:102A1000E920FDF737FEAA20FDF73DFE0020FDF777
:102A20003AFE0020FDF737FE0020FDF734FE0020BF
:102A3000FDF728FEAA20FDF72EFECF20FDF722FE8F
:102A40000020FDF728FE0020FDF725FE0020FDF701
:102A500022FE0020FDF71FFE0020FDF71CFE0020D7
:102A6000FDF719FE0020FDF716FE0020FDF713FE0E
:102A70000020FDF710FE0020FDF70DFE0020FDF701
:102A80000AFE0020FDF707FE0020FDF704FE0020EF
:102A9000FDF701FE0020FDF7FEFD0020FDF7FBFD28
:102AA0000020FDF7F8FDF020FDF7ECFD0020FDF71C
:102AB000F2FD5020FDF7EFFD0020FDF7ECFD0020BA
:102AC000FDF7E9FD0020FDF7E6FDF320FDF7DAFD57
:102AD0000020FDF7E0FDF920FDF7D4FD0620FDF70D
:102AE000DAFD1020FDF7D7FD2920FDF7D4FD0020E9
:102AF000FDF7D1FD3A20FDF7C5FD5520FDF7CBFDD3
:102B00001120FDF7BFFD642005F0F4F92920FDF741
:102B1000B9FD3520FDF7B6FD0020FDF7BCFD5120C5
:102B2000FDF7B0FDFF20FDF7B6FD5320FDF7AAFD30
:102B30002C20FDF7B0FD5520FDF7A4FD8220FDF708
:102B4000AAFD2C20FDF79EFD02F0E9B8FE48808822
:102B500045F2105188427DD155214FF47040FDF768
:102B6000ACFDAA214FF20100FDF7A7FD52214FF263
:102B70000200FDF7A2FD08214FF20300FDF79DFDC5
:102B800001214FF20400FDF798FD0D214FF4304074
:102B9000FDF793FD0D214BF20100FDF78EFD0D2198
:102BA0004BF20200FDF789FD34214FF43640FDF76A
:102BB00084FD34214BF20160FDF77FFD34214BF29F
:102BC0000260FDF77AFD0D214FF43140FDF775FDF0
:102BD0000D214BF20110FDF770FD0D214BF202109B
:102BE000FDF76BFD34214FF43740FDF766FD3421CE
:102BF0004BF20170FDF761FD34214BF20270FDF7DD
:102C00005CFD00214FF43240FDF757FD00214BF2EF
:102C10000120FDF752FD00214BF20220FDF74DFD92
:102C200024214FF43840FDF748FD24214BF60100E4
:102C3000FDF743FD24214BF60200FDF73EFD012187
:102C40004FF43F40FDF739FD0F214FF43340FDF7BE
:102C500034FD00E0FDE30F214BF20130FDF72DFDC7
:102C60000F214BF20230FDF728FD34214FF439409B
:102C7000FDF723FD34214BF60110FDF71EFD342135
:102C80004BF60210FDF719FD08214FF43540FDF712
:102C900014FD08214BF20150FDF70FFD08214BF206
:102CA0000250FDF70AFD03214FF44240FDF705FDF8
:102CB00024214FF43A40FDF700FD24214BF601207A
:102CC000FDF7FBFC24214BF60220FDF7F6FC00216A
:102CD0004FF43C40FDF7F1FC78214BF60140FDF745
:102CE000ECFC00214BF60240FDF7E7FC00214FF41D
:102CF0003D40FDF7E2FC78214BF60150FDF7DDFC8D
:102D000000214BF60250FDF7D8FC00214FF43E4065
:102D1000FDF7D3FC64214BF60160FDF7CEFC0021EA
:102D20004FF45140FDF7C9FC33214DF20110FDF77E
:102D3000C4FC00214DF20210FDF7BFFC34214DF21E
:102D40000310FDF7BAFC00214DF20410FDF7B5FCAD
:102D50003A214DF20510FDF7B0FC00214DF20610AE
:102D6000FDF7ABFC4A214DF20710FDF7A6FC002150
:102D70004DF20810FDF7A1FC5C214DF20910FDF7A2
:102D80009CFC00214DF20A10FDF797FC81214DF2C9
:102D90000B10FDF792FC00214DF20C10FDF78DFC9D
:102DA000A6214DF20D10FDF788FC00214DF20E100A
:102DB000FDF783FCE5214DF20F10FDF77EFC0121AC
:102DC0004DF21010FDF779FC13214DF21110FDF7B3
:102DD00074FC01214DF21210FDF76FFC54214DF2ED
:102DE0001310FDF76AFC01214DF21410FDF765FC8C
:102DF00082214DF21510FDF760FC01214DF21610F5
:102E0000FDF75BFCCA214DF21710FDF756FC0221BD
:102E10004DF21810FDF751FC00214DF21910FDF78D
:102E20004CFC02214DF21A10FDF747FC01214DF236
:102E30001B10FDF742FC02214DF21C10FDF73DFC7A
:102E400034214DF21D10FDF738FC02214DF21E1009
:102E5000FDF733FC67214DF21F10FDF72EFC022118
:102E60004DF22010FDF729FC84214DF22110FDF7D1
:102E700024FC02214DF22210FDF71FFCA4214DF28B
:102E80002310FDF71AFC02214DF22410FDF715FC6A
:102E9000B7214DF22510FDF710FC02214DF226104E
:102EA000FDF70BFCCF214DF22710FDF706FC0221A8
:102EB0004DF22810FDF701FCDE214DF22910FDF73F
:102EC000FCFB02214DF22A10FDF7F7FBF2214DF237
:102ED0002B10FDF7F2FB02214DF22C10FDF7EDFB5C
:102EE000FE214DF22D10FDF7E8FB03214DF22E10CF
:102EF000FDF7E3FB10214DF22F10FDF7DEFB032160
:102F00004DF23010FDF7D9FB33214DF23110FDF7B2
:102F1000D4FB03214DF23210FDF7CFFB6D214DF2B2
:102F20003310FDF7CAFB00214FF45240FDF7C5FBFB
:102F300033214DF20120FDF7C0FB00214DF20220AC
:102F4000FDF7BBFB342101E0E80200204DF2032035
:102F5000FDF7B3FB00214DF20420FDF7AEFB3A2153
:102F60004DF20520FDF7A9FB00214DF20620FDF7EB
:102F7000A4FB4A214DF20720FDF79FFB00214DF2F3
:102F80000820FDF79AFB5C214DF20920FDF795FB27
:102F900000214DF20A20FDF790FB81214DF20B201C
:102FA000FDF78BFB00214DF20C20FDF786FBA621DF
:102FB0004DF20D20FDF781FB00214DF20E20FDF7B3
:102FC0007CFBE5214DF20F20FDF777FB01214DF24F
:102FD0001020FDF772FB13214DF21120FDF76DFB60
:102FE00001214DF21220FDF768FB54214DF2132010
:102FF000FDF763FB01214DF21420FDF75EFB8221FA
:103000004DF21520FDF759FB01214DF21620FDF779
:1030100054FBCA214DF21720FDF74FFB02214DF260
:103020001820FDF74AFB00214DF21920FDF745FB62
:1030300002214DF21A20FDF740FB01214DF21B2029
:10304000FDF73BFB02214DF21C20FDF736FB34213E
:103050004DF21D20FDF731FB02214DF21E20FDF740
:103060002CFB67214DF21F20FDF727FB02214DF2BB
:103070002020FDF722FB84214DF22120FDF71DFBCE
:1030800002214DF22220FDF718FBA4214DF223204E
:10309000FDF713FB02214DF22420FDF70EFBB721B3
:1030A0004DF22520FDF709FB02214DF22620FDF708
:1030B00004FBCF214DF22720FDF7FFFA02214DF24C
:1030C0002820FDF7FAFADE214DF22920FDF7F5FA66
:1030D00002214DF22A20FDF7F0FAF2214DF22B20C9
:1030E000FDF7EBFA02214DF22C20FDF7E6FAFE2166
:1030F0004DF22D20FDF7E1FA03214DF22E20FDF7D0
:10310000DCFA10214DF22F20FDF7D7FA03214DF202
:103110003020FDF7D2FA33214DF23120FDF7CDFA00
:1031200003214DF23220FDF7C8FA6D214DF2332014
:10313000FDF7C3FA00214FF45340FDF7BEFA3321E7
:103140004DF20130FDF7B9FA00214DF20230FDF7E2
:10315000B4FA34214DF20330FDF7AFFA00214DF2FD
:103160000430FDF7AAFA3A214DF20530FDF7A5FA31
:1031700000214DF20630FDF7A0FA4A214DF207304A
:10318000FDF79BFA00214DF20830FDF796FA5C211D
:103190004DF20930FDF791FA00214DF20A30FDF7AA
:1031A0008CFA81214DF20B30FDF787FA00214DF2A8
:1031B0000C30FDF782FAA6214DF20D30FDF77DFAB5
:1031C00000214DF20E30FDF778FAE5214DF20F3077
:1031D000FDF773FA01214DF21030FDF76EFA13215D
:1031E0004DF21130FDF769FA01214DF21230FDF771
:1031F00064FA54214DF21330FDF75FFA01214DF2CC
:103200001430FDF75AFA82214DF21530FDF755FAC8
:1032100001214DF21630FDF750FACA214DF2173058
:10322000FDF74BFA02214DF21830FDF746FA002166
:103230004DF21930FDF741FA02214DF21A30FDF737
:103240003CFA01214DF21B30FDF737FA02214DF215
:103250001C30FDF732FA34214DF21D30FDF72DFA06
:1032600002214DF21E30FDF728FA67214DF21F3082
:10327000FDF723FA02214DF22030FDF71EFA8421DA
:103280004DF22130FDF719FA02214DF22230FDF7FF
:1032900014FAA4214DF22330FDF70FFA02214DF26A
:1032A0002430FDF70AFAB7214DF22530FDF705FA73
:1032B00002214DF22630FDF700FACF214DF22730E2
:1032C000FDF7FBF902214DF22830FDF7F6F9DE217A
:1032D0004DF22930FDF7F1F902214DF22A30FDF7C8
:1032E000ECF9F2214DF22B30FDF7E7F902214DF216
:1032F0002C30FDF7E2F9FE214DF22D30FDF7DDF91E
:1033000003214DF22E30FDF7D8F910214DF22F3068
:10331000FDF7D3F903214DF23030FDF7CEF933211B
:103320004DF23130FDF7C9F903214DF23230FDF78E
:10333000C4F96D214DF23330FDF7BFF900214FF490
:103340005440FDF7BAF933214DF20140FDF7B5F9CC
:1033500000214DF20240FDF7B0F934214DF2034057
:10336000FDF7ABF900214DF20440FDF7A6F93A2133
:103370004DF20540FDF7A1F900214DF20640FDF7A1
:103380009CF94A214DF20740FDF797F900214DF2D3
:103390000840FDF792F95C214DF20940FDF78DF9E7
:1033A00000214DF20A40FDF788F981214DF20B40D2
:1033B000FDF783F900214DF20C40FDF77EF9A621BF
:1033C0004DF20D40FDF779F900214DF20E40FDF769
:1033D00074F9E5214DF20F40FDF76FF901214DF22F
:1033E0001040FDF76AF913214DF21140FDF765F920
:1033F00001214DF21240FDF760F954214DF21340C6
:10340000FDF75BF901214DF21440FDF756F98221D9
:103410004DF21540FDF751F901214DF21640FDF72F
:103420004CF9CA214DF21740FDF747F902214DF240
:103430001840FDF742F900214DF21940FDF73DF922
:1034400002214DF21A40FDF738F901214DF21B40DF
:1034500000E006E3FDF731F902214DF21C40FDF7D3
:103460002CF934214DF21D40FDF727F902214DF2D0
:103470001E40FDF722F967214DF21F40FDF71DF9AF
:1034800002214DF22040FDF718F984214DF2214030
:10349000FDF713F902214DF22240FDF70EF9A421A8
:1034A0004DF22340FDF709F902214DF22440FDF7CA
:1034B00004F9B7214DF22540FDF7FFF802214DF246
:1034C0002640FDF7FAF8CF214DF22740FDF7F5F839
:1034D00002214DF22840FDF7F0F8DE214DF229409F
:1034E000FDF7EBF802214DF22A40FDF7E6F8F22154
:1034F0004DF22B40FDF7E1F802214DF22C40FDF793
:10350000DCF8FE214DF22D40FDF7D7F803214DF2F6
:103510002E40FDF7D2F810214DF22F40FDF7CDF8E7
:1035200003214DF23040FDF7C8F833214DF2314010
:10353000FDF7C3F803214DF23240FDF7BEF86D21CF
:103540004DF23340FDF7B9F800214FF45540FDF737
:10355000B4F833214DF20150FDF7AFF800214DF2E0
:103560000250FDF7AAF834214DF20350FDF7A5F8FB
:1035700000214DF20450FDF7A0F83A214DF205501C
:10358000FDF79BF800214DF20650FDF796F84A2111
:103590004DF20750FDF791F800214DF20850FDF76C
:1035A0008CF85C214DF20950FDF787F800214DF2AF
:1035B0000A50FDF782F881214DF20B50FDF77DF89E
:1035C00000214DF20C50FDF778F8A6214DF20D5078
:1035D000FDF773F800214DF20E50FDF76EF8E5216E
:1035E0004DF20F50FDF769F801214DF21050FDF733
:1035F00064F813214DF21150FDF75FF801214DF2EF
:103600001250FDF75AF854214DF21350FDF755F8BA
:1036100001214DF21450FDF750F882214DF2155062
:10362000FDF74BF801214DF21650FDF746F8CA217F
:103630004DF21750FDF741F802214DF21850FDF7F9
:103640003CF800214DF21950FDF737F802214DF2F8
:103650001A50FDF732F801214DF21B50FDF72DF8FD
:1036600002214DF21C50FDF728F834214DF21D5077
:10367000FDF723F802214DF21E50FDF71EF86721D9
:103680004DF21F50FDF719F802214DF22050FDF7C1
:1036900014F884214DF22150FDF70FF802214DF26C
:1036A0002250FDF70AF8A4214DF22350FDF705F84A
:1036B00002214DF22450FDF700F8B7214DF22550BC
:1036C000FCF7FBFF02214DF22650FCF7F6FFCF215D
:1036D0004DF22750FCF7F1FF02214DF22850FCF784
:1036E000ECFFDE214DF22950FCF7E7FF02214DF2FD
:1036F0002A50FCF7E2FFF2214DF22B50FCF7DDFFE0
:1037000002214DF22C50FCF7D8FFFE214DF22D5036
:10371000FCF7D3FF03214DF22E50FCF7CEFF102112
:103720004DF22F50FCF7C9FF03214DF23050FCF74A
:10373000C4FF33214DF23150FCF7BFFF03214DF29E
:103740003250FCF7BAFF6D214DF23350FCF7B5FF54
:1037500000214FF45640FCF7B0FF33214DF20160D9
:10376000FCF7ABFF00214DF20260FCF7A6FF34210D
:103770004DF20360FCF7A1FF00214DF20460FCF75D
:103780009CFF3A214DF20560FCF797FF00214DF2B6
:103790000660FCF792FF4A214DF20760FCF78DFFAF
:1037A00000214DF20860FCF788FF5C214DF20960B2
:1037B000FCF783FF00214DF20A60FCF77EFF8121B8
:1037C0004DF20B60FCF779FF00214DF20C60FCF725
:1037D00074FFA6214DF20D60FCF76FFF00214DF242
:1037E0000E60FCF76AFFE5214DF20F60FCF765FF04
:1037F00001214DF21060FCF760FF13214DF21160C2
:10380000FCF75BFF01214DF21260FCF756FF5421DB
:103810004DF21360FCF751FF01214DF21460FCF7EB
:103820004CFF82214DF21560FCF747FF01214DF25C
:103830001660FCF742FFCA214DF21760FCF73DFF0E
:1038400002214DF21860FCF738FF00214DF219609B
:10385000FCF733FF02214DF21A60FCF72EFF012125
:103860004DF21B60FCF729FF02214DF21C60FCF7B2
:1038700024FF34214DF21D60FCF71FFF02214DF2A1
:103880001E60FCF71AFF67214DF21F60FCF715FF61
:1038900002214DF22060FCF710FF84214DF22160DF
:1038A000FCF70BFF02214DF22260FCF706FFA4217A
:1038B0004DF22360FCF701FF02214DF22460FCF77A
:1038C000FCFEB7214DF22560FCF7F7FE02214DF218
:1038D0002660FCF7F2FECF214DF22760FCF7EDFEEB
:1038E00002214DF22860FCF7E8FEDE214DF229604E
:1038F000FCF7E3FE02214DF22A60FCF7DEFEF22126
:103900004DF22B60FCF7D9FE02214DF22C60FCF742
:10391000D4FEFE214DF22D60FCF7CFFE03214DF2C7
:103920002E60FCF7CAFE10214DF22F60FCF7C5FE99
:1039300003214DF23060FCF7C0FE33214DF23160BF
:10394000FCF7BBFE03214DF23260FCF7B6FE6D21A1
:103950004DF23360FCF7B1FE55214FF47040FCF797
:10396000ACFEAA214FF20100FCF7A7FE52214FF254
:103970000200FCF7A2FE08214FF20300FCF79DFEB7
:1039800000214FF20400FCF798FECC214FF43140A7
:10399000FCF793FE00214BF20110FCF78EFE05218F
:1039A0004FF43640FCF789FE70214FF43740FCF7A6
:1039B00084FE70214BF20170FCF77FFE01214FF471
:1039C0003840FCF77AFE03214BF60100FCF775FE48
:1039D00003214BF60200FCF770FE03214BF60300B7
:1039E000FCF76BFE02214FF43C40FCF766FE002121
:1039F0004BF60140FCF761FE00214BF60240FCF75C
:103A00005CFED0214FF44940FCF757FE02214CF6F2
:103A10000110FCF752FE50214CF60210FCF74DFE4F
:103A200050214CF60310FCF748FE50214CF60410D0
:103A3000FCF743FE00214FF45450FCF73EFE5521A5
:103A40004FF46850FCF739FE4FF48850FCF71AFE2B
:103A5000782004F007FA4FF42450FCF713FE01F02D
:103A60005EB9FE48808849F2253188427ED147F60A
:103A7000F001E520FCF721FE4FF480710120FCF7F6
:103A80001CFE4FF4E0610220FCF717FE41F230010A
:103A90000320FCF712FE00210420FCF70EFE40F28A
:103AA00002210820FCF709FE00210920FCF705FE91
:103AB00000210A20FCF701FE00210C20FCF7FDFD8F
:103AC00000210D20FCF7F9FD00210F20FCF7F5FD8A
:103AD00000211020FCF7F1FD07211120FCF7EDFD7E
:103AE00000211220FCF7E9FD00211320FCF7E5FD81
:103AF00000210720FCF7E1FD41F290611020FCF766
:103B0000DCFD40F227211120FCF7D7FD9D2112207A
:103B1000FCF7D3FD4FF4C8511320FCF7CEFD25214F
:103B20002920FCF7CAFD0D212B20FCF7C6FD07213B
:103B30003020FCF7C2FD40F203313120FCF7BDFD1F
:103B400003213220FCF7B9FD40F206213520FCF7B5
:103B5000B4FD08213620FCF7B0FD40F206413720C5
:103B6000FCF7ABFD4FF44171382000E057E0FCF763
:103B7000A4FD07213920FCF7A0FD40F202613C20A2
:103B8000FCF79BFD08213D20FCF797FD002150200C
:103B9000FCF793FDEF215120FCF78FFD002152200F
:103BA000FCF78BFD40F23F115320FCF786FD4FF4EC
:103BB00027416020FCF781FD01216120FCF77DFD9C
:103BC00000216A20FCF779FD00218020FCF775FDBB
:103BD00000218120FCF771FD00218220FCF76DFDA2
:103BE00000218320FCF769FD00218420FCF765FD9E
:103BF00000218520FCF761FD10219020FCF75DFD80
:103C00004FF4C0619220FCF758FD40F233110720B9
:103C1000FCF753FD22210020FCF74FFD1FE78F48E2
:103C2000808849F2283188427ED141F28F01EC2010
:103C3000FCF743FD41F23421EF20FCF73EFD4FF449
:103C400080710120FCF739FD4FF4E0610220FCF7A0
:103C500034FD41F230010320FCF72FFD0021042048
:103C6000FCF72BFD40F202210820FCF726FD002185
:103C70000920FCF722FD00210A20FCF71EFD01218E
:103C80000C20FCF71AFD00210D20FCF716FD002189
:103C90000F20FCF712FD00211020FCF70EFD07217C
:103CA0001120FCF70AFD00211220FCF706FD00217F
:103CB0001320FCF702FD01210720FCF7FEFC322057
:103CC00004F018F941F290411020FCF7F6FC40F2A4
:103CD00027211120FCF7F1FC322004F00BF98A2196
:103CE0001220FCF7EAFC322004F004F94FF4D05122
:103CF0001320FCF7E2FC06212920FCF7DEFC0D2155
:103D00002B20FCF7DAFC322004F0F4F8002120200C
:103D1000FCF7D3FC00212120FCF7CFFC322004F07B
:103D2000E9F80021302000E074E0FCF7C6FC40F226
:103D300004613120FCF7C1FC40F205313220FCF770
:103D4000BCFC00213520FCF7B8FC40F609413620C8
:103D5000FCF7B3FC4FF401713720FCF7AEFC40F2E6
:103D600001313820FCF7A9FC40F207713920FCF73B
:103D7000A4FC00213C20FCF7A0FC40F60A213D20D9
:103D8000FCF79BFC322004F0B5F800215020FCF732
:103D900094FCEF215120FCF790FC00215220FCF70D
:103DA0008CFC40F23F115320FCF787FC4FF4274175
:103DB0006020FCF782FC01216120FCF77EFC0021E1
:103DC0006A20FCF77AFC00218020FCF776FC0021B9
:103DD0008120FCF772FC00218220FCF76EFC0021A0
:103DE0008320FCF76AFC00218420FCF766FC00219C
:103DF0008520FCF762FC10219020FCF75EFC4FF45C
:103E0000C0619220FCF759FC40F233110720FCF707
:103E100054FC24E61148808849F2203188427DD143
:103E200000210846FCF749FC4FF480710120FCF7A3
:103E300044FC4FF4E0610220FCF73FFC41F230010A
:103E40000320FCF73AFC00210420FCF736FC40F28A
:103E500002210820FCF731FC002101E0E8020020EB
:103E60000920FCF72AFC00210A20FCF726FC01218E
:103E70000C20FCF722FC00210D20FCF71EFC002189
:103E80000F20FCF71AFC322004F034F840F2011144
:103E90000720FCF712FC322004F02CF84FF4865176
:103EA0001020FCF70AFC07211120FCF706FC4FF458
:103EB00088711220FCF701FC4FF430611320FCF7ED
:103EC000FCFB00212920FCF7F8FB44F210012B2019
:103ED000FCF7F3FB00215020FCF7EFFBEF21512012
:103EE000FCF7EBFB00215220FCF7E7FB40F23F110F
:103EF0005320FCF7E2FB4FF41C516020FCF7DDFB84
:103F000001216120FCF7D9FB00216A20FCF7D5FBD9
:103F100000218020FCF7D1FB002100E031E081206E
:103F2000FCF7CBFB00218220FCF7C7FB002183209C
:103F3000FCF7C3FB00218420FCF7BFFB0021852098
:103F4000FCF7BBFB10219020FCF7B7FB002192206F
:103F5000FCF7B3FB01219320FCF7AFFB4FF4887112
:103F60009520FCF7AAFB00219720FCF7A6FB002177
:103F70009820FCF7A2FB40F273110720FCF79DFB91
:103F80006DE5FE48808849F2313188427DD141F2A9
:103F90001401E720FCF791FB4FF480710120FCF73E
:103FA0008CFB4FF400710220FCF787FB41F23801D3
:103FB0000320FCF782FB40F202210820FCF77DFB86
:103FC00000210920FCF779FB00210A20FCF775FB92
:103FD00000210C20FCF771FB00210D20FCF76DFB8C
:103FE00000210F20FCF769FB00211020FCF765FB86
:103FF00007211120FCF761FB00211220FCF75DFB7B
:1040000000211320FCF759FBC82003F073FF41F295
:1040100090611020FCF751FB40F227211120FCF7A2
:104020004CFB322003F066FF0C211220FCF745FB0D
:10403000322003F05FFF4FF400611320FCF73DFBDB
:1040400011212920FCF739FB0B212B20FCF735FB34
:10405000322003F04FFF00212020FCF72EFB40F21E
:104060003F112120FCF729FB00213020FCF725FB24
:104070004FF483713120FCF720FB00213220FCF744
:104080001CFB4FF40171352000E064E0FCF715FBE8
:1040900041F20A613620FCF710FB40F2077137202D
:1040A000FCF70BFB4FF483713820FCF706FB40F262
:1040B00007713920FCF701FB40F202413C20FCF77C
:1040C000FCFA40F60F413D20FCF7F7FA00215020A2
:1040D000FCF7F3FAEF215120FCF7EFFA0021522010
:1040E000FCF7EBFA40F23F115320FCF7E6FA4FF4ED
:1040F0001C516020FCF7E1FA01216120FCF7DDFA98
:1041000000216A20FCF7D9FA00218020FCF7D5FABB
:1041100000218120FCF7D1FA00218220FCF7CDFAA2
:1041200000218320FCF7C9FA00218420FCF7C5FA9E
:1041300000218520FCF7C1FA10219020FCF7BDFA80
:104140004FF4C0619220FCF7B8FA40F23311072017
:10415000FCF7B3FA83E48948808845F20841884235
:104160007ED14FF480710120FCF7A7FA4FF4E06193
:104170000220FCF7A2FA41F230010320FCF79DFA7D
:1041800000210420FCF799FA40F207210820FCF7EF
:1041900094FA00210920FCF790FA00210A20FCF78C
:1041A0008CFA00210C20FCF788FA00210D20FCF786
:1041B00084FA00210F20FCF780FA142003F09AFE05
:1041C00041F2B0611020FCF778FA01211120FCF7D0
:1041D00074FA01211720FCF770FA4FF49C71122039
:1041E000FCF76BFA4FF400611320FCF766FA092123
:1041F0002920FCF762FA09212A20FCF75EFA002147
:10420000A420FCF75AFA00215020FCF756FAEF21BF
:104210005120FCF752FA00215220FCF74EFA40F2EE
:104220003F115320FCF749FA4FF41C516020FCF772
:1042300044FA01216120FCF740FA00216A20FCF7D2
:104240003CFA00218020FCF738FA00218120FCF79D
:1042500034FA00218220FCF730FA0021832000E0AC
:1042600023E0FCF72AFA00218420FCF726FA00213B
:104270008520FCF722FA13219020FCF71EFA00217A
:104280009220FCF71AFA03219320FCF716FA4FF458
:1042900088719520FCF711FA40F273110720FCF7A2
:1042A0000CFA322003F026FEB8E43448808841F24C
:1042B000055188427ED100210720FCF7FEF932200B
:1042C00003F018FE4FF48E711220FCF7F6F901216D
:1042D000A420FCF7F2F90F210820FCF7EEF90821E1
:1042E0000A20FCF7EAF908210D20FCF7E6F940F274
:1042F00007713020FCF7E1F907213120FCF7DDF9E7
:1043000040F203613220FCF7D8F94FF4E06133202A
:10431000FCF7D3F940F202213420FCF7CEF9022158
:104320003520FCF7CAF941F60F713620FCF7C5F9C4
:1043300040F207713720FCF7C0F900213820FCF764
:10434000BCF900213920FCF7B8F940F207713A2096
:10435000FCF7B3F900213B20FCF7AFF907213C2023
:10436000FCF7ABF900213D20FCF7A7F9322003F060
:10437000C1FD01210720FCF7A0F901E0E8020020BF
:1043800001211720FCF799F9322003F0B3FD4FF417
:10439000BD511020FCF791F940F217211120FCF7D4
:1043A0008CF94FF48F711220FCF787F94FF470618C
:1043B000132000E097E0FCF780F900212A20FCF7A9
:1043C0007CF90A212920FCF778F94FF49F7112201B
:1043D000FCF773F900215020FCF76FF9EF21512011
:1043E000FCF76BF900215220FCF767F940F23F110E
:1043F0005320FCF762F94FF41C516020FCF75DF983
:1044000001216120FCF759F900216A20FCF755F9D8
:1044100000218020FCF751F900218120FCF74DF9A3
:1044200000218220FCF749F900218320FCF745F99F
:1044300000218420FCF741F900218520FCF73DF99B
:1044400013219020FCF739F94FF440719220FCF7CA
:1044500034F905219320FCF730F900219520FCF771
:104460002CF900219720FCF728F900219820FCF76F
:1044700024F94FF480710120FCF71FF94FF4E0613B
:104480000220FCF71AF941F238010320FCF715F974
:1044900000210420FCF711F900210C20FCF70DF994
:1044A00000210F20FCF709F900212020FCF705F975
:1044B00000212120FCF701F921210720FCF7FDF85C
:1044C000142003F017FD61210720FCF7F6F81420F3
:1044D00003F010FD40F273110720FCF7EEF81420F2
:1044E00003F008FD95E4FE4880884BF205518842B0
:1044F0007ED100210846FCF7E0F800210846FCF7D1
:10450000DCF800210846FCF7D8F800210846FCF743
:10451000D4F80121A420FCF7D0F8142003F0EAFC21
:104520004FF41C516020FCF7C8F840F2022108202B
:10453000FCF7C3F84FF405713020FCF7BEF843F2E6
:1045400015713120FCF7B9F840F204613220FCF714
:10455000B4F840F616613320FCF7AFF842F21121AF
:104560003420FCF7AAF84FF4A8513520FCF7A5F841
:1045700048F207513620FCF7A0F841F207413720F6
:10458000FCF79BF841F203413820FCF796F8202114
:104590003920FCF792F81A219020FCF78EF80021C0
:1045A0001020FCF78AF807211120FCF786F800217B
:1045B0001220FCF782F800211320FCF77EF814206B
:1045C00003F098FC4FF4E6611020FCF776F840F217
:1045D00037111120FCF771F8142003F08BFC4FF415
:1045E000DC711220FCF769F8142003F083FC00E072
:1045F00083E04FF470611320FCF75FF880212A20DC
:10460000FCF75BF848212920FCF757F8142003F049
:1046100071FC4FF480710120FCF74FF84FF4E0611A
:104620000220FCF74AF841F238010320FCF745F874
:1046300040F202210820FCF740F800210A20FCF794
:104640003CF800210C20FCF738F800210D20FCF785
:1046500034F830210E20FCF730F800215020FCF710
:104660002CF8EF215120FCF728F800215220FCF70C
:1046700024F840F23F115320FCF71FF84FF41C516F
:104680006020FCF71AF801216120FCF716F80021E0
:104690006A20FCF712F811219020FCF70EF84FF475
:1046A000C0619220FCF709F840F202419320FCF728
:1046B00004F802219420FCF700F8142003F01AFCFF
:1046C00001210720FBF7F9FF142003F013FC6121FF
:1046D0000720FBF7F2FF40F273110720FBF7EDFF15
:1046E00000212020FBF7E9FF00212120FBF7E5FF57
:1046F00022210020FBF7E1FF11E3794880884CF28A
:10470000055188427ED100210846FBF7D6FF0021E3
:104710000846FBF7D2FF142003F0ECFB002108460B
:10472000FBF7CBFF00210846FBF7C7FF0021084637
:10473000FBF7C3FF00210846FBF7BFFF0121A420C0
:10474000FBF7BBFF142003F0D5FB4FF41C51602096
:10475000FBF7B3FF40F606010820FBF7AEFF40F27F
:1047600003713020FBF7A9FF01213120FBF7A5FFE2
:1047700004213220FBF7A1FF4FF481713320FBF7B6
:104780009CFF4FF440713420FBF797FF40F2031178
:104790003520FBF792FF1F213620FBF78EFF40F2FA
:1047A00003713720FBF789FF01213820FBF785FFD4
:1047B00004213920FBF781FF15219020FBF77DFFB5
:1047C0004FF482611020FBF778FF40F2472111205F
:1047D000FBF773FF4FF4DE711220FBF76EFF4FF40F
:1047E00060611320FBF769FF782003F083FB4FF42F
:1047F00080710120FBF761FF4FF400710220FBF78D
:104800005CFF00E050E041F230010320FBF755FF70
:1048100008210A20FBF751FF00210C20FBF74DFF78
:1048200020210E20FBF749FF00210F20FBF745FF59
:1048300000212020FBF741FF00212120FBF73DFF55
:104840003D212A20FBF739FF142003F053FB2D21D3
:104850002920FBF732FF00215020FBF72EFF4DF2FD
:10486000EF015120FBF729FF00215220FBF725FF24
:1048700040F23F115320FBF720FF00216120FBF79E
:104880001CFF00216A20FBF718FF4FF440719220B3
:10489000FBF713FF05219320FBF70FFF4FF4807107
:1048A0000720FBF70AFF3AE20D48808844F23151B5
:1048B00088427CD101210020FBF7FFFE0A2003F093
:1048C00019FB41F228611020FBF7F7FE0E211220A0
:1048D000FBF7F3FE40F639211320FBF7EEFE01E073
:1048E000E80200200A2003F005FB40211120FBF71D
:1048F000E4FE50211520FBF7E0FE0A2003F0FAFA4F
:104900001E211220FBF7D9FE0A2003F0F3FA4FF420
:10491000B1511020FBF7D1FE42F639211320FBF7ED
:10492000CCFE0A2003F0E6FA4FF480710120FBF779
:10493000C4FE4FF440710220FBF7BFFE41F2380184
:104940000320FBF7BAFE40F202210820FBF7B5FE78
:1049500008210A20FBF7B1FE00213020FBF7ADFE55
:1049600040F202413120FBF7A8FE4FF48371322060
:10497000FBF7A3FE40F203513320FBF79EFE4FF4FA
:1049800082713420FBF799FE40F201313520FBF7AC
:1049900094FE40F207713620FBF78FFE40F205319E
:1049A0003720FBF78AFE4FF40271382000E040E028
:1049B000FBF783FE40F60B713920FBF77EFE0221E8
:1049C0004120FBF77AFE4FF41C516020FBF775FE87
:1049D00001216120FBF771FE4FF404719020FBF779
:1049E0006CFE4FF485719220FBF767FE0421932043
:1049F000FBF763FE4FF48071A020FBF75EFE012100
:104A00000720FBF75AFE21210720FBF756FE232142
:104A10000720FBF752FE33210720FBF74EFE40F242
:104A200033110720FBF749FE0021A020FBF745FECC
:104A300075E1F748808844F2355188427ED13021B3
:104A40001520FBF73AFE10219A20FBF736FE2021B5
:104A50001120FBF732FE43F228411020FBF72DFE18
:104A600002211220FBF729FE41F238011320FBF747
:104A700024FE282003F03EFA12210846FBF71DFE13
:104A8000282003F037FA43F220411020FBF715FEEF
:104A900043F238011320FBF710FE462003F02AFAF8
:104AA00000213020FBF709FE40F202413120FBF7E4
:104AB00004FE40F207313220FBF7FFFD4FF4417155
:104AC0003320FBF7FAFD04213420FBF7F6FD40F21A
:104AD00001413520FBF7F1FD40F207713620FBF76D
:104AE000ECFD40F205313720FBF7E7FD4FF4C261E2
:104AF0003820FBF7E2FD4FF4C2613920FBF7DDFD02
:104B00004FF480710120FBF7D8FD4FF44071022073
:104B1000FBF7D3FD41F230010320FBF7CEFD40F659
:104B200008010820FBF7C9FD08210A20FBF7C5FD95
:104B30004FF41C516020FBF7C0FD00E031E0012183
:104B40006120FBF7BAFD4FF49F719020FBF7B5FD94
:104B50004FF480719220FBF7B0FD4FF480719320E9
:104B6000FBF7ABFD4FF44051A020FBF7A6FD102151
:104B7000A320FBF7A2FD01210720FBF79EFD2121C9
:104B80000720FBF79AFD23210720FBF796FD332131
:104B90000720FBF792FD40F233110720FBF78DFD54
:104BA000BDE09B48808841F663118842F8D1E2203D
:104BB000FBF768FD1D20FBF76EFD0220FBF76BFD88
:104BC0000420FBF768FD642003F04CF9E020FBF7BC
:104BD00059FD0120FBF75FFD0A2003F08BF9E0206F
:104BE000FBF750FD0320FBF756FD0C2003F082F984
:104BF0000120FBF747FD0A2003F07CF9E620FBF7D4
:104C000041FD2F20FBF747FDFF20FBF744FDFF2070
:104C1000FBF741FDB020FBF735FD2020FBF73BFD06
:104C20000020FBF738FD0320FBF735FD40F21F3075
:104C3000FBF731FD0120FBF72EFD40F2DF10FBF703
:104C40002AFD0020FBF727FDB420FBF71BFD042005
:104C5000FBF721FD40F21F40FBF71DFD0020FBF795
:104C60001AFD2E20FBF717FD0020FBF714FD002096
:104C7000FBF711FD0020FBF70EFD0020FBF70BFDFD
:104C8000B620FBF7FFFC0220FBF705FD4FF4037095
:104C9000FBF701FD0020FBF7FEFC1720FBF7FBFCF8
:104CA0001520FBF7F8FC0020FBF7F5FC0020FBF7D4
:104CB000F2FCF020FBF7E6FC0320FBF7ECFC2920DC
:104CC000FBF7E0FCD020FBF7DDFC0020FBF7E3FC6A
:104CD000BE20FBF7D7FC0520FBF7DDFCFE20FBF731
:104CE000DAFC0120FBF7D7FC0020FBF7D4FC002006
:104CF000FBF7D1FC0020FBF7CEFCB820FBF7C2FC91
:104D00000320FBF7C8FC0120FBF7C5FCBA20FBF72A
:104D1000B9FC0120FBF7BFFC6420FCF722F900205E
:104D2000FCF74BF901203B4908604FF6FF70FCF798
:104D300032FB21B000BD2DE9FC4F05460E4617465B
:104D40009846DDF82C90002001903148808846F686
:104D50000401884229D12E488079012825D1AB460B
:104D600035462B480088C01B401E86B2474628485F
:104D70000088A0EB0B00401E1FFA80F80020244999
:104D800088712A2048812B20888143463A46314643
:104D90002846CDF80090FFF7CEFF01201C4988710E
:104DA0002B2048812A2088811CE0781B401C80B27F
:104DB0000190344614E021462846FBF7ABFCFBF794
:104DC0008CFC4FF0000A06E01348A0F800900AF1AE
:104DD00001001FFA80FA01988245F5DB601C84B25D
:104DE0004445E8DDBDE8FC8F2DE9F84F07460D4648
:104DF00090469946DDF828B0A8EB0700401C1FFA42
:104E000080FAA9EB0500401C80B2009000241AE053
:104E1000E8020020808240420008006C281981B21C
:104E20003846FBF777FCFBF758FC002607E004FB4D
:104E30000A603BF81000F8490880701C86B256459D
:104E4000F5DB601C84B200988442E7DBBDE8F88F94
:104E50002DE9FF4F84B081468A46002003900290DE
:104E60000698A0EB09050798A0EB0A06CDF8049078
:104E7000CDF800A0002D01DD012705E00DB90027C8
:104E800002E04FF0FF376D42002E02DD4FF00108C7
:104E900006E016B94FF0000802E04FF0FF38764206
:104EA000B54201DD2C4600E034464FF0000B21E016
:104EB000009A91B2019A90B2FBF785FF03982844BB
:104EC00003900298304402900398A04205DD0398B5
:104ED000001B03900198384401900298A04205DD20
:104EE0000298001B02900098404400900BF10100D2
:104EF0001FFA80FB601C8345DADD08B0BDE8F08F47
:104F0000F0B504460D4616461F462B463246294646
:104F10002046FFF79DFF3B46224629462046FFF7E5
:104F200097FF3B46324639462046FFF791FF3B4606
:104F3000324629463046FFF78BFFF0BD2DE9F0439E
:104F400006460F469046002445460320A0EB48093C
:104F50003CE07A1B91B2321990B2FBF734FF3A1B56
:104F600091B2721990B2FBF72EFF3A1991B27219F1
:104F700090B2FBF728FF7A1991B2321990B2FBF781
:104F800022FF7A1991B2321B90B2FBF71CFF3A193B
:104F900091B2721B90B2FBF716FF7A1B91B2321BD3
:104FA00090B2FBF710FF3A1B91B2721B90B2FBF765
:104FB0000AFF641CB9F1000F03DAA000801D8144D0
:104FC00004E0601B80000A3081446D1EAC42C0DDED
:104FD000BDE8F0832DE9F84F80460E4617461C4683
:104FE000B3462046E31704EB5373DB1021464FEA28
:104FF000E47C04EB5C7C4FEAEC0CA4EBCC0CBCF145
:10500000000F02D04FF0010C01E04FF0000C6344A0
:10501000224604EBD27C4FEA6C0C03FB0CF3DBB2B0
:105020000093A7F12000C7B2002556E00C2C07D151
:1050300007EB4700794901EB800010F8059013E079
:10504000102C05D1764800EB071010F805900BE006
:10505000182C07D107EBC700724901EB800010F84C
:10506000059001E0BDE8F88F4FF0000A2FE009F04D
:10507000800030B16C48028831464046FBF7B1FEF3
:1050800007E00A9828B96948028831464046FBF78C
:10509000A8FE4FEA49604FEA1069701C86B2644866
:1050A0004088B04200DCDDE7A6EB0B00A0420AD14D
:1050B0005E4608F101001FFA80F85D48008840450F
:1050C00000DCCFE706E00AF1010000F0FF0ABAF1C8
:1050D000080FCCDB00BF681CC5B200988542A5DB79
:1050E00000BFBFE710B50246012000E050430B1E91
:1050F000A1F10104E1B2F9D110BD2DE9FF4F81B05A
:10510000074691461E460E9D4FF0000A002439E0E6
:10511000301B401EC1B20A20FFF7E4FFB9FBF0F0DC
:105120000A21B0FBF1F201FB1208BAF1000F16D10F
:10513000701EA04213DDB8F1000F0ED10020AB4667
:1051400005EBDB71491001FB0471009088B22B461E
:1051500020220299FFF73EFF12E04FF0010A0020E3
:10516000AB4605EBDB71491001FB0471009088B27E
:1051700008F13001CAB22B460299FFF72BFF00BF9E
:10518000601CC4B2B442C3DB05B0BDE8F08F2DE9AA
:10519000FF4F82B0064692461F46DDE90F480020C9
:1051A000019000255CE0781B401EC1B20A20FFF789
:1051B00099FFBAFBF0F00A21B0FBF1F201FB1209F2
:1051C000019840BB781EA84236DDB9F1000F31D1FD
:1051D00008F0800078B108F00100A34604EBDB7111
:1051E000491001FB0561009088B2234630220399E3
:1051F000FFF7F0FE0EE008F00100A34604EBDB71C0
:10520000491001FB0561009088B2234620220399D2
:10521000FFF7E0FE22E00FE00008006C0214010836
:1052200076180108661E01081400002016000020F0
:10523000E80200200120019008F00100A34604EBE1
:10524000DB71491001FB0561009088B209F1300162
:10525000CAB223460399FFF7BDFE00BF681CC5B262
:10526000BD42A0DB06B0BDE8F08F2DE9F84704464B
:105270000D4690469946DDE9096704F0FF0A08EB00
:1052800004001FFA80F809EB05001FFA80F916E008
:10529000444502DB5446A81985B24D4500DB14E0B5
:1052A000002000903A78334629462046FFF792FEC8
:1052B000304606EBD07104EB61018CB27F1C38786C
:1052C0007E2802DC38782028E2DA00BFBDE8F887C3
:1052D0001CB50121112003F069FD1C200090002065
:1052E0008DF8040003208DF8050001208DF80700DB
:1052F0006946354802F0D8FF0120009002208DF861
:1053000007006946314802F0CFFF1CBD10B50446C6
:1053100014B101202E4908702D480078002837D09C
:105320001021294803F022F878B10821264803F01B
:105330001DF850B10421244803F018F828B10121C8
:10534000224803F013F8012822D10A2002F0D2FDEE
:1053500000201F49087010211B4803F007F808B906
:10536000012010BD0821184803F000F808B90220F8
:10537000F7E70421144802F0F9FF08B90320F0E729
:105380000121124802F0F2FF01281BD10420E8E7B6
:1053900010210D4802F0EAFF012813D108210A4824
:1053A00002F0E4FF01280DD10421074802F0DEFFDE
:1053B000012807D10121054802F0D8FF10B90120CA
:1053C000034908700020CCE70010024000000240B2
:1053D0001800002010B5044600BF0221414805F026
:1053E000C5F80028F9D021463E4805F076F800BF00
:1053F00001213C4805F0BAF80028F9D0394805F0F9
:1054000069F8C0B210BD00B587B00121084603F0AD
:10541000CDFC0121080303F023FD38200590022074
:105420008DF8180000208DF81A0003208DF819005F
:1054300001208DF81B0005A92B4802F035FF05223D
:105440000321294802F0BBFF05220421264802F06F
:10545000B6FF05221146244802F0B1FF01210803DE
:1054600003F053FD00214FF4805003F04EFD002067
:10547000ADF800004FF48270ADF802000020ADF8E6
:1054800004000220ADF806000120ADF8080040023B
:10549000ADF80A003820ADF80C000020ADF80E0081
:1054A0000720ADF8100069460E4804F09BFE01216C
:1054B0000C4804F091FFFF20FFF78CFF07B000BD00
:1054C00010B50446074800884FF6C77108400549E3
:1054D000088008460088204308800121014804F024
:1054E0007BFF10BD003001400004024010B50024D5
:1054F0000020D84908609020FFF76CFF0020FFF7DC
:1055000069FF0020FFF766FF0020FFF763FFFF2021
:10551000FFF760FF44EA0024FF20FFF75BFF04432E
:105520000120CD49C1F8B802204610BD1CB50121AB
:10553000022003F03BFC0121402003F037FC4FF434
:105540008040009001208DF8040000208DF80600B6
:1055500003208DF8050001208DF807006946BF483B
:1055600002F0A2FE802000906946BD4802F09CFE39
:105570008021BB4802F014FF0120B6490860FFF704
:1055800042FF0020FFF79CFFFFF7B0FFB5490880FE
:105590001CBD10B500240020AE4908600520FFF7AF
:1055A00019FFFF20FFF716FF04460120AA49C1F8A2
:1055B000B802204610BD10B504460020A549086079
:1055C0000120FFF707FF2046FFF704FF0120A24953
:1055D000C1F8B80210BD10B500209E490860062031
:1055E000FFF7F8FE01209C49C1F8B80210BD10B5C4
:1055F0000020984908600420FFF7ECFE012096493E
:10560000C1F8B80210BD2DE9F04106460C46174618
:105610000020904908600320FFF7DCFEC4F3074038
:10562000FFF7D8FEC4F30720FFF7D4FEE0B2FFF780
:10563000D1FE002505E0FF20FFF7CCFE7055681C69
:1056400085B2BD42F7DB012082490860BDE8F081E8
:1056500010B500BFFFF79DFF00F001000028F9D151
:1056600010BD2DE9F04106460C461746FFF7B3FF83
:105670000020784908600220FFF7ACFEC4F3074021
:10568000FFF7A8FEC4F30720FFF7A4FEE0B2FFF780
:10569000A1FE002504E0705DFFF79CFE681C85B24A
:1056A000BD42F8DB01206B490860FFF7D1FFBDE880
:1056B000F0812DE9F04107460E461446F0B2C0F5E0
:1056C0008075AC4200DC254612E02A463146384659
:1056D000FFF7C7FFAC4200D10BE02F442E44601B04
:1056E00084B2B4F5807F02DD4FF4807500E025467A
:1056F000EBE700BFBDE8F08110B5044621465AA093
:105700000BF05CF92403FFF766FFFFF7A1FF002011
:10571000504908602020FFF75DFEC4F30740FFF703
:1057200059FEC4F30720FFF755FEE0B2FFF752FE23
:1057300001204949C1F8B802FFF78AFF10BD2DE9E1
:10574000F05F81460F461646DFF824B14FEA17385E
:10575000C7F30B0ACAF58054A64200DC344644E085
:105760004FEA08314FF480525846FFF74CFF0025AE
:1057700008E00AEB05001BF80000FF2800D003E05A
:10578000681C85B2A542F4DB00BFA54216DA40468C
:10579000FFF7B2FF002507E019F8050005EB0A0145
:1057A0000BF80100681C85B2A542F5DB4FEA083111
:1057B0004FF480525846FFF77CFF04E022463946FA
:1057C0004846FFF776FFA64200D10FE008F1010836
:1057D0004FF0000AA1442744301B86B2B6F5805F23
:1057E00002DD4FF4805400E03446B9E700BFBDE865
:1057F000F09F10B5FFF7EFFEFFF72AFF00201549D5
:105800000860C720FFF7E6FD01201349C1F8B80280
:10581000FFF71EFF10BD10B500200E490860B9202B
:10582000FFF7D8FD01200C49C1F8B802032002F0AF
:1058300019FB10BD10B5002006490860AB20FFF72A
:10584000C9FD01200449C1F8B802032002F00AFB97
:1058500010BD0000B8824042008040420004024077
:10586000001802401A00002066653A25780D0A00EB
:10587000F60200200020FE490860091D0860091D8D
:105880000860091D0860FA4924310860091D086094
:10589000091D0860F748F649383108600020091DE5
:1058A0000860704701460020012900D011B9F24B71
:1058B000197000E0262070470146ED4A121D10685D
:1058C00020F0FF0008431060704770B5044606E002
:1058D000E7483430056805F0450000B100E0F7E71F
:1058E00000BF042004F03AFF20B1042004F041FF7F
:1058F000032070BD012004F031FF20B1012004F02D
:1059000038FF0120F5E7DA4810300068A04201D0E6
:105910001020EEE740F2FF5004F02BFFD448143083
:10592000006808210840C0B2E3E72DE9FC410746C2
:105930000D46002600240020009001900820CF4949
:10594000086010204860402088600020C8604FF444
:1059500080600861084604F06EFE1020FFF7B5FF76
:10596000044614B12046BDE8FC81C5480088000407
:10597000C249086037204860402088600020C86025
:105980004FF480600861084604F055FE3720FFF7A9
:105990009CFF04460CB12046E5E74FF0FF30B949C3
:1059A000086008204860302088600220C86000201D
:1059B000086101204861084604F069FE0020AF49F3
:1059C000086033204860402088600020C8604FF4A1
:1059D00080600861084604F02EFE3320FFF775FF53
:1059E00004460CB12046BEE70DE04FF4001004F071
:1059F000B5FE40B19E48803000684DF82600761C08
:105A0000022E00D307E09A483430006840F22A6141
:105A100008400028E9D000BF082004F09FFE20B114
:105A2000082004F0A6FE04209DE7022004F096FE64
:105A300020B1022004F09DFE022094E7202004F013
:105A40008DFE20B1202004F094FE06208BE74FF459
:105A5000007004F083FE28B14FF4007004F089FE5A
:105A6000072080E740F2FF5004F083FE0098000614
:105A7000009901F47F4140EA0120009901F47F017F
:105A800040EA1120009940EA116068600198000620
:105A9000019901F47F4140EA0120019901F47F015D
:105AA00040EA1120019940EA1160286020465AE737
:105AB0007CB50546002400200090019000260DB121
:105AC000022600E000266A481430006800F00070EA
:105AD00008B10E207CBD6A49098888B26946FFF783
