:020000040800F2
:100000008808002069010008FD0C0008EB040008C6
:10001000F90C000877020008E51B0008000000004A
:10002000000000000000000000000000C1180008EF
:100030007B02000800000000FF0C0008E519000822
:100040008301000883010008830100088301000880
:100050008301000883010008830100088301000870
:100060008301000883010008830100088301000860
:100070008301000883010008830100088301000850
:100080008301000883010008830100088301000840
:100090008301000883010008830100088301000830
:1000A0008301000883010008830100088301000820
:1000B0008301000883010008830100088301000810
:1000C0008301000883010008830100088301000800
:1000D00083010008830100088301000883010008F0
:1000E000830100088301000883010008000000006C
:1000F0000000000000000000000000000000000000
:1001000000000000000000008301000883010008D7
:1001100083010008830100088301000883010008AF
:10012000830100088301000883010008830100089F
:10013000830100088301000883010008830100088F
:10014000830100088301000883010008830100087F
:10015000DFF810D000F05EF8004800475D3100087D
:10016000AFF3008088080020064880470648004713
:10017000FEE7FEE7FEE7FEE7FEE7FEE7FEE7FEE757
:10018000FEE7FEE7E91900085101000840EA010313
:100190009B0703D009E008C9121F08C0042AFAD23D
:1001A00003E011F8013B00F8013B521EF9D2704701
:1001B0002DE9F05F0546002092469B46884606469C
:1001C000814640241BE0284641464746224600F02F
:1001D00042F853465A46C01A914110D31146184668
:1001E000224600F029F82D1A67EB01084F462246F7
:1001F0000120002100F020F817EB00094E41201EDD
:10020000A4F10104DFDC484631462A464346BDE8F6
:10021000F09F0000064C074D06E0E06840F0010347
:1002200094E8070098471034AC42F6D3FFF794FFE8
:10023000E89E0208089F0208202A04DB203A00FA00
:1002400002F1002070479140C2F1200320FA03F32D
:10025000194390407047202A04DB203A21FA02F02B
:100260000021704721FA02F3D040C2F120029140F0
:1002700008431946704700BFFEE770474FF47A7095
:1002800006E04FF47A7100E0491E0029FCDC401EB4
:100290000028F6DC7047002100E0491C00EBC0029A
:1002A00002EB0012B1EB820FF7D370472DE9F0415A
:1002B0009AB004460D4664221E4901A8FFF766FF66
:1002C000267867781C49002002F018FC01221BA147
:1002D0001E4802F029FC8046B8F1000F0CD0002027
:1002E0004FF4784301AA64210090202000F00EFC16
:1002F00001201AB0BDE8F081A7F1A102A6F1A1008A
:10030000C0EB001303EB401002EB400041010F482B
:1003100002F011FB0E4B202229460C4802F0CAFCC9
:100320000A4802F0FDFA0021084602F0E7FB00202F
:10033000DFE70000849E0208300000202F737973ED
:100340002F485A4B31362E62696E00006002002041
:10035000180000202DE9F04102460025002600206B
:1003600000230024002791F803C00CF00F0591F83A
:1003700003C00CF0100CBCF1000F03D091F802C0C8
:100380004CEA050591F800C0BCF1000F31D01468AB
:1003900000202BE04FF0010C0CFA00F3B1F800C084
:1003A0000CEA03069E4220D183004FF00F0C0CFA9A
:1003B00003F7BC4305FA03FC4CEA040491F803C0BC
:1003C000BCF1280F06D14FF0010C0CFA00FCC2F86A
:1003D00014C00AE091F803C0BCF1480F05D14FF0FA
:1003E000010C0CFA00FCC2F810C0401C0828D1D344
:1003F0001460B1F800C0BCF1FF0F34DD5468002078
:100400002EE000F1080C4FF0010808FA0CF3B1F8E7
:1004100000C00CEA03069E4221D183004FF00F0C6E
:100420000CFA03F7BC4305FA03FC4CEA040491F808
:1004300003C0BCF1280F05D100F1080C08FA0CF834
:10044000C2F8148091F803C0BCF1480F07D100F145
:10045000080C4FF0010808FA0CF8C2F81080401C94
:100460000828CED35460BDE8F0810146886880B288
:1004700070474161704701617047C16070472DE965
:10048000F84305460E4614461F46DDF8208000BF9F
:10049000E02D03DD06F1100086B20025B6F5987F49
:1004A00000DD0026207880280DDA1FFA88F0BBB224
:1004B000224631460090284600F0D2FA05F10800A5
:1004C00085B2641C0CE02246641C3B46314628463B
:1004D000CDF8008000F014FC641C05F1100085B21A
:1004E00020780028D4D1BDE8F88300BFFEE770B5BE
:1004F000054600244FF4A073F0220021084600F0C6
:100500008BFB0021084600F02BFA00F0BFFB00BF78
:1005100003E0284600F02CFB641CB4F5963FF8D3AA
:1005200070BD000008B50121702000F039FC4FF6C5
:10053000FF70ADF8000003208DF8020010208DF848
:10054000030069460948FFF705FF4020ADF80000A9
:1005500069460748FFF7FEFE4FF46040ADF8000023
:1005600069460448FFF7F6FE08BD00000018014088
:10057000001001400014014010B5FFF7D3FF0A201E
:10058000FFF789FE0A20FFF786FE002000F0A4F99D
:10059000D04908800A20FFF77EFECE48008848F642
:1005A000991188427ED10121002000F074FB43F6AE
:1005B0003F31012000F06FFB4FF4C061022000F0DA
:1005C0006AFB07210C2000F066FB06210D2000F0DD
:1005D00062FB4FF448510E2000F05DFBBB211E2052
:1005E00000F059FB46F66421032000F054FB002183
:1005F0000F2000F050FB4FF46F41442000F04BFB04
:100600000021452000F047FB40F23F11462000F05A
:1006100042FB0021302000F03EFB40F20671312009
:1006200000F039FB40F20621322000F034FB4FF499
:100630004071332000F02FFB0221342000F02BFB0F
:100640000021352000F027FB40F20771362000F032
:1006500022FB4FF40071372000F01DFB40F608111B
:100660003A2000F018FB40F60D713B2000F013FB20
:100670000621282000F00FFB41F2EB212F2000F093
:100680000AFB4FF4E041262000F005FB4BF2E301AA
:10069000202000F000FB4421272000F0FCFA47F660
:1006A000456100E013E02E2000F0F5FA0021102053
:1006B00000F0F1FA0320FFF7EEFD46F6700111207D
:1006C00000F0E9FA3321072000F0E5FAFAE081486A
:1006D000008849F22531884204D07E480088C91C30
:1006E0008842F3D11021E72000F0D5FA0121002043
:1006F00000F0D1FA4FF48071012000F0CCFA4FF4F1
:10070000E061022000F0C7FA41F2B001032000F0DE
:10071000C2FA0021042000F0BEFA40F207210820AE
:1007200000F0B9FA0021092000F0B5FA00210A20F2
:1007300000F0B1FA01210C2000F0ADFA00210D20EB
:1007400000F0A9FA00210F2000F0A5FA00211020E6
:1007500000F0A1FA0721112000F09DFA00211220DB
:1007600000F099FA0021132000F095FA41F290511F
:10077000102000F090FA40F22721112000F08BFAAF
:100780009C21122000F087FA4FF4C851132000F08A
:1007900082FA2321292000F07EFA0E212B2000F07E
:1007A0007AFA0021202000F076FA0021212000F0C2
:1007B00072FA0721302000F06EFA40F20771312002
:1007C00000F069FA0621322000F065FA40F2047167
:1007D000352000F060FA41F60471362000F05BFA33
:1007E0000421372000F057FA0021382000F053FA96
:1007F00040F20671392000F04EFA40F201713C20BF
:1008000000F049FA0F213D2000F045FA0021502068
:1008100000F041FAEF21512000F03DFA0021522072
:1008200000F039FA40F23F11532000F034FA4FF44F
:100830002741602000F02FFA0121612000F02BFAFF
:1008400000216A2000F027FA0021802000F023FA1E
:100850000021812000F01FFA0021822000F01BFA05
:100860000021832000F017FA0021842000F013FA01
:100870000021852000F00FFA1021902000F00BFAE3
:100880000021922000F007FA0321932000F003FAE0
:100890004FF48871952000F0FEF90021972000F0B8
:1008A000FAF90021982000F0F6F940F23311072000
:1008B00000F0F1F90021202000F0EDF900212120C5
:1008C00000F0E9F90520FFF7E6FC0020FFF70FFE36
:1008D00010BD00001400002038B50446204600F08A
:1008E00071F94FF6FF70ADF8000003208DF802009B
:1008F00048208DF8030069461648FFF72BFD40217C
:100900001548FFF7B6FD4FF400511448FFF7B3FD4B
:100910004FF400411148FFF7ACFD4FF400410F4880
:10092000FFF7A9FD0B48FFF7A0FD054640210A4847
:10093000FFF7A1FD4FF6FF70ADF8000003208DF822
:10094000020010208DF8030069460248FFF702FDFF
:10095000284638BD00180140001001400014014035
:1009600070B504460D460F48008848F69911884234
:1009700005D00C48008849F61911884208D1214653
:100980004E2000F088F929464F2000F084F907E056
:100990002146202000F07FF92946212000F07BF934
:1009A00070BD0000140000202DE9F05F0746884666
:1009B00016461C46E82F02DCB8F5987F01DDBDE83D
:1009C000F09FA34604EBDB7007EB600208EB040327
:1009D0004146384600F020F941463846FFF7C0FF4F
:1009E00000F054F9A6F12000C6B2002528E00C2C36
:1009F00007D106EB4600184901EB800010F805907E
:100A000004E0164800EB061010F805904FF0000ABD
:100A10000FE009F0010018B10A9800F0A9F802E00F
:100A20000B9800F0A5F84FEA69090AF1010000F0FF
:100A3000FF0A04EBD471BAEB610FEADB681CC5B2A4
:100A4000A542D4DB4FF4A073F0220021084600F049
:100A5000E3F800BFB3E700008A360008FE3A00085A
:100A60002DE9FC4704460D4616461F46DDF8289042
:100A70004FF01008E82C03DD002405EB080085B2D8
:100A8000B5F5987F06DD0020044605464FF6FF7059
:100A9000FFF72DFDCDE900793278E0B243462946D3
:100AA000FFF782FFBDE8FC872DE9F84F05460C46AD
:100AB00016469846DDF828904FF0100A4FF0000BCC
:100AC000DFF844B0E02D03DD002504EB0A0084B21A
:100AD000B4F5987F06DD0020054604464FF6FF700A
:100AE000FFF705FD304602F01BFA074607EB07103B
:100AF0000BEB4000821C434621462846CDF800906F
:100B000001F072F8BDE8F88FEE4000082DE9F843D7
:100B100005460E4614469846089F23E0E02D03DD67
:100B200006F1100086B20025B6F5987F00DD00269C
:100B3000207880280BDD4346224631462846009720
:100B4000FFF7B2FFA41C05F1100085B20AE043468E
:100B50002246314628460097FFF782FF641C05F1C4
:100B6000080085B220780028D8D1BDE8F8830000BD
:100B700010B504464FF400410F48FFF77CFC4FF4DA
:100B800000510D48FFF777FC4FF480410A48FFF70A
:100B900070FC40210948FFF76CFC21460848FFF72C
:100BA0006CFC40210548FFF766FC4FF48041024889
:100BB000FFF761FC10BD000000140140001001406F
:100BC0000018014010B504464FF400410F48FFF7EC
:100BD00052FC4FF400510D48FFF74BFC4FF480419D
:100BE0000A48FFF746FC40210948FFF742FC21462E
:100BF0000848FFF742FC40210548FFF73CFC4FF452
:100C000080410248FFF737FC10BD0000001401408E
:100C100000100140001801402DE9F04104460D4646
:100C200016461F461548008848F69911884210D18B
:100C3000701E44EA002081B2442000F02CF8A9B2D2
:100C4000452000F028F8781E81B2462000F023F8F5
:100C500011E0A1B2502000F01EF8701E81B25120A8
:100C600000F019F8A9B2522000F015F8781E81B2F0
:100C7000532000F010F8BDE8F081000014000020BF
:100C800010B504462046FFF773FF10BD10B52220B3
:100C9000FFF798FF10BD70B505460C462846FFF7D4
:100CA00091FF2046FFF764FF70BD000008B50121E9
:100CB000202000F075F89C20ADF8000003208DF88E
:100CC000020010208DF8030069460A48FFF742FB36
:100CD00004210848FFF7CDFB08210648FFF7C9FBB0
:100CE00010210448FFF7C5FB80210248FFF7C1FB34
:100CF00008BD00000014014000BFFEE770477047C8
:100D00002DE9F04F89B00746884691469A46DDF8AE
:100D100048B000240025002601A94846FFF7C6FA7E
:100D200000283AD108F1100307F110024146384675
:100D3000FFF772FF41463846FFF712FEFFF7A6FFA6
:100D400000BF21E001A810F814604FF6FF7000EA20
:100D500006266000401C01A9085C064300250FE040
:100D600006FA05F000F4004020B11FFA8AF0FFF700
:100D700087FF03E01FFA8BF0FFF782FF681C85B244
:100D8000102DEDDB601C84B2102CDBDB40F23F1336
:100D9000EF2200210846FFF73FFF09B0BDE8F08FC2
:100DA00029B1064A92690243044B9A6104E0034A5E
:100DB00092698243014B9A61704700000010024023
:100DC0002DE9F04100210022002500230026002407
:100DD00000278C46DFF86081D8F8048008F00C0109
:100DE00021B1042907D0082959D109E0DFF84C8145
:100DF000C0F8008058E0DFF84881C0F8008053E078
:100E0000DFF83481D8F8048008F47012DFF8288104
:100E1000D8F8048008F48035920C0D2A01D0921C79
:100E200000E0062235B9DFF81C8102FB08F8C0F8A3
:100E3000008033E0DFF80081D8F82C8008F4803699
:100E4000DFF8F480D8F82C8008F00F0808F10104CE
:100E500046B9DFF8EC80B8FBF4F808FB02F8C0F8FC
:100E600000801BE0DFF8D080D8F82C80C8F303188E
:100E700008F10107DFF8C080D8F82C80C8F30328F8
:100E800008F1020CDFF8B880B8FBF7F808FB0CF8A3
:100E9000B8FBF4F808FB02F8C0F8008004E0DFF8C3
:100EA0009C80C0F8008000BF00BFDFF88C80D8F8BD
:100EB000048008F0F0010909DFF88C8018F801308F
:100EC000D0F8008028FA03F8C0F80480DFF86880C2
:100ED000D8F8048008F4E061090ADFF86C8018F89B
:100EE0000130D0F8048028FA03F8C0F80880DFF851
:100EF0004880D8F8048008F46051C90ADFF84880B7
:100F000018F80130D0F8048028FA03F8C0F80C80F3
:100F1000DFF82480D8F8048008F44041890BDFF81A
:100F20002C8018F80130D0F80C80B8FBF3F8C0F82A
:100F30001080BDE8F08100000010024000127A002D
:100F400040787D0100093D000000002010000020D5
:100F500070B50546FF220021092000F077FA04460B
:100F60000CB1204670BD01221021284600F030FA55
:100F70000020F7E72DE9FF416846FFF7E9FF18B1C8
:100F8000002004B0BDE8F0819DF8000000F0C00032
:100F9000402808D19DF809009DF8081000EB0120B9
:100FA000401C870238E09DF8060000F003044FF66D
:100FB000FF7000EA04249DF8070004444FF6FF7018
:100FC00000EA84049DF8080004EB90149DF80900E1
:100FD00000F0030676009DF80A0006EBD016B61C5A
:100FE000012505E04FF6FF7000EA4505701EC6B208
:100FF000002EF7D1601C00FB05F79DF8050000F0FE
:101000000F04012505E04FF6FF7000EA4505601E5C
:1010100084B2002CF7D16F433846B2E72DE9FC418A
:1010200000F080FB002000F01FFC002605E0FF2000
:1010300000F0FCFB0746701C86B2322EF7DB002561
:1010400000BF95220021084600F000FA0446681C03
:1010500085B2012C01D0C82DF3DBC82D05D174A0B9
:1010600000F01AFE0120BDE8FC81394674A000F0B2
:1010700013FE87224FF4D571082000F023FA0446AE
:10108000214675A000F008FE052C4BD101207A49BD
:10109000087010217948FFF7EEF9FF2000F0C6FB39
:1010A000002500BF00221146372000F0CFF904468A
:1010B000012C01D02046D6E700221146292000F05D
:1010C000C5F90446681C85B214B1B5F5C87FE9DBE3
:1010D000B5F5C87F15D1002500BF002211460120BB
:1010E00000F0B4F90446681C85B214B1B5F5C87FA8
:1010F000F3DBB5F5C87F01D10120B4E700205E49DC
:101100000870012000F0B0FBFF2000F08FFBFF22F1
:101110004FF40071102000F099F90446002C79D0AA
:101120002046A0E7012C7CD155A000F0B5FDFF20A2
:1011300000F07CFB8DF80000FF2000F077FB8DF8BD
:101140000100FF2000F072FB8DF80200FF2000F08C
:101150006DFB8DF8030010214848FFF78CF9FF2044
:1011600000F064FB9DF8020001285AD19DF80300AD
:10117000AA2856D147A000F08FFD002500BF00220D
:101180001146372000F062F90446012C01D02046B8
:1011900069E700224FF08041292000F057F904460A
:1011A000C82D01DD20465EE7002CE8D141A000F00B
:1011B00073FD002211463A2000F084F904460CB178
:1011C000204650E7214642A000F066FDFF2000F0D7
:1011D0002DFB8DF80000FF2000F028FB8DF80100AA
:1011E000FF2000F023FB8DF80200FF2000F01EFB23
:1011F0008DF8030010212148FFF73DF9FF2000F092
:1012000015FB9DF8000000F0400020B104201A49B1
:10121000087003E005E0022017490870012000F083
:1012200023FB214633A000F037FD20461BE70000DA
:101230000D0A20B3ACCAB1B7B5BBD820200D0A0047
:101240000D0A205344BFA8D2D1B8B4CEBBB5BD69F6
:10125000646C65200D0A00000D0A20BFA8C6ACB55D
:10126000C45344B0E6B1BED0C5CFA2A3BA307825EE
:1012700078200D0A00000000200000200008014036
:101280000D0A20D5E2CAC756322E30B5C4BFA820F9
:101290000D0A00000D0A20D6A7B3D6B5E7D1B9B71D
:1012A000B6CEA7A3ACBFC9D2D4B2D9D7F7200D0A06
:1012B000000000000D0A20B3F5CABCBBAFD6B8C110
:1012C000EEB7A2CBCDCDEAB3C9200D0A00000000D5
:1012D0000D0A205344322E30BFA8B0E6B1BEBCF890
:1012E000B1F0BDE1CAF8207231203D203078257878
:1012F000200D0A000D0A20B3F5CABCBBAFBDE1CA80
:10130000F8A3ACB7B5BBD8B5C47231203D20307856
:10131000257800002DE9F04105460E4614460120CF
:1013200000F0A2FA17480078042800D16D0A0022C4
:101330002946122000F08AF8074617B13846BDE862
:10134000F08100BF00224FF40071304600F040F8F9
:1013500000B105E006F50076601EC0B2041EF1D1B2
:1013600000BF002211460C2000F070F81021064842
:10137000FFF781F8FF2000F059FA0CB12046DEE7B4
:101380000020DCE7200000200008014070B5054681
:101390000E46012000F068FA0C480078042800D1BD
:1013A0006D0A00222946112000F050F804460CB1C5
:1013B000204670BD01225102304600F009F8044673
:1013C0000CB12046F5E70020F3E7000020000020E4
:1013D0002DE9F04104468846164610211A48FFF7C9
:1013E00048F8002700BFFF2000F020FA0546781CCF
:1013F00087B2B7F5FA6F06DD10211348FFF73BF807
:101400000120BDE8F081FE2DEDD104E0FF2000F0C9
:101410000DFA2070641CB8F10000A8F101011FFA58
:1014200081F8F3D1FF2000F001FAFF2000F0FEF96F
:10143000012E06D110210448FFF71DF8FF2000F00F
:10144000F5F90020DDE70000000801402DE9F0413A
:1014500005460C4616460027FF2000F0E7F910214C
:101460001748FFF706F845F0400000F0DFF9200EBE
:1014700000F0DCF9C4F3074000F0D8F9C4F307200A
:1014800000F0D4F9E0B200F0D1F9304600F0CEF926
:1014900004E0781CC7B2C82F00DD05E0FF2000F093
:1014A000C5F98046FF28F4D000BF10210448FEF79C
:1014B000E2FFFF2000F0BAF94046BDE8F0810000ED
:1014C000000801402DE9F04105460C46164600276C
:1014D000FF2000F0ABF910211348FEF7CAFF45F0DA
:1014E000400000F0A3F9200E00F0A0F9C4F307407B
:1014F00000F09CF9C4F3072000F098F9E0B200F086
:1015000095F9304600F092F904E0781CC7B2C82F74
:1015100000DD05E0FF2000F089F98046FF28F4D0C7
:1015200000BF4046BDE8F0810008014070B50025CD
:1015300000BFFF2000F07AF904464FF6FE708542A6
:1015400001D1012070BDFF2CF3D10020FAE700008B
:101550002DE9F04106460F461546012000F084F9BA
:1015600034480078042800D1760A3248007828B13F
:10157000002229461720FFF769FF04460022314662
:101580001920FFF763FF044614B12046BDE8F0813F
:1015900010212948FEF76DFFFF2000F047F9FF20DA
:1015A00000F044F900BFFC2000F040F94FF00008C3
:1015B00007E017F8010B00F039F908F101001FFAF4
:1015C00080F8B8F5007FF4DBFF2000F02FF9FF2052
:1015D00000F02CF9FF2000F029F9044604F01F0068
:1015E000052805D010211448FEF745FF2046CDE719
:1015F000FFF79CFF012805D110210F48FEF73BFFA4
:101600000120C3E7681EC0B2051ECCD1FD2000F04A
:101610000DF9044604B9FE25FFF788FF08B100BFA5
:10162000FEE710210448FEF726FFFF2000F0FEF839
:101630002846ABE720000020000801402DE9F041DA
:1016400005460E46012000F00FF92E4800780428C8
:1016500000D16D0A002229461820FFF7F7FE044644
:1016600014B12046BDE8F08110212748FEF701FFA4
:10167000FF2000F0DBF8FF2000F0D8F8FF2000F09A
:10168000D5F8FE2000F0D2F8002705E016F8010B8F
:1016900000F0CCF8781C87B2B7F5007FF6DBFF20AE
:1016A00000F0C4F8FF2000F0C1F8FF2000F0BEF801
:1016B000044604F01F00052805D010211248FEF74B
:1016C000DAFE2046CEE74FF000080DE008F10100F9
:1016D0001FFA80F84FF6FE70804505DD10210A489C
:1016E000FEF7C9FE0120BDE7FF2000F09FF80028AB
:1016F000ECD010210448FEF7BEFEFF2000F096F863
:101700000020AFE7200000200008014021B102883E
:1017100042F04002028004E002884FF6BF731A4094
:101720000280704700B587B001210520FFF738FB24
:1017300001210803FFF734FBA020ADF818000320B7
:101740008DF81A0018208DF81B0006A91F48FEF717
:1017500001FE4020ADF818001C208DF81B0006A9E2
:101760001A48FEF7F7FD1020ADF818008DF81B00A1
:1017700006A91648FEF7EEFD10211448FEF77BFE81
:101780000020ADF804004FF48270ADF80600002090
:10179000ADF808000220ADF80A000120ADF80C00F9
:1017A0004002ADF80E002020ADF810000020ADF88A
:1017B00012000720ADF8140001A9054800F018F840
:1017C00001210348FFF7A2FF07B000BD0008014058
:1017D000003001400246002013890B400BB101206C
:1017E00000E000207047014688897047818170477A
:1017F00010B50022028802F441520B884C88234322
:101800008C882343CC8823430C8923434C8923436E
:101810008C892343CC8923431A430280838B4FF264
:10182000FF74234083830B8A038210BD70B5044686
:10183000002500BF02210B48FFF7CCFF0028F9D09C
:1018400021460848FFF7D2FF00BF01210548FFF7F6
:10185000C1FF0028F9D00348FFF7C5FFC5B22846ED
:1018600070BD00000030014010B586B00446002075
:10187000ADF804004FF48270ADF806000020ADF81A
:1018800008000220ADF80A000120ADF80C0040026B
:10189000ADF80E000020ADF812000720ADF81400DE
:1018A0001CB93820ADF8100002E00020ADF810009F
:1018B00001A90248FFF79CFF06B010BD00300140AF
:1018C000704710B500F002F810BD00000CB5002004
:1018D000019000903F48006840F480303D49086026
:1018E00000BF3C48006800F4003000900198401CA4
:1018F0000190009818B90198B0F5A06FF1D1354862
:10190000006800F4003010B10120009001E00020D8
:101910000090009801285CD12F48006840F010002A
:101920002D4908600846006820F00300086008465A
:10193000006840F002000860264840682549486079
:101940000846406848600846406840F48060486047
:101950000846C06A214908401E49C8620846C06A54
:101960001F4908431B49C8620846006840F0806070
:10197000086000BF1748006800F000600028F9D038
:101980001448406820F47C101249486008464068BA
:1019900040F4E81048600846006840F08070086035
:1019A00000BF0C48006800F000700028F9D009481A
:1019B000406820F00300074948600846406840F04E
:1019C0000200486000BF0348406800F00C0008288F
:1019D000F9D10CBD001002400020024000F0FEFFD3
:1019E000440601007047000010B51648006840F03A
:1019F000010014490860084640681349084011492D
:101A0000486008460068114908400E4908600846C9
:101A1000006820F4802008600846406820F4FE003A
:101A200048600846006820F0A05008604FF47F002E
:101A300088600020C862FFF744FF4FF0006004494F
:101A4000086010BD001002400000FFF0FFFFF6FE2E
:101A500008ED00E021B1828942F40052828104E065
:101A600082894DF6FF731A408281704700B585B0B8
:101A7000012144F20400FFF793F94FF40070ADF830
:101A8000100018208DF8130003208DF8120004A90F
:101A90001348FEF75FFC4FF48060ADF8100004209F
:101AA0008DF8130004A90E48FEF754FC4FF4E13002
:101AB00000900020ADF80400ADF80600ADF8080075
:101AC000ADF80C000C20ADF80A006946054800F09E
:101AD00019F801210348FFF7BDFF05B000BD000064
:101AE000000801400038014002460020B1F5007FA7
:101AF00000D100BF13880B400BB1012000E0002093
:101B0000704700002DE9F04786B005460E460024D8
:101B1000A24600BFA1460027B08900B100BF2F46F2
:101B20002C8A4CF6FF700440F08804432C82AC8968
:101B30004EF6F3100440B088318908437189084398
:101B40000443AC81AC8A4FF6FF400440B0890443A3
:101B5000AC8201A8FFF734F91F48874202D1DDF8B3
:101B600010A001E0DDF80CA0A88900F4004040B10D
:101B70000AEBCA0000EB0A1031684900B0FBF1F82B
:101B800007E00AEBCA0000EB0A1031688900B0FBDD
:101B9000F1F86420B8FBF0F004012009642101FB96
:101BA0001089A88900F4004040B1322000EBC90040
:101BB000B0FBF1F000F00700044308E0322000EB36
:101BC00009106421B0FBF1F000F00F0004432C81F8
:101BD00006B0BDE8F087000000380140C1F30802FC
:101BE0008280704700BFFEE72DE9F04F89B0804644
:101BF0000D4691469A4610200090CB46002413E0F3
:101C0000BBF8000001A921F8140001A830F8140065
:101C1000000A11F8141040EA012001A921F814006B
:101C20000BF1020B601C84B2102CE9DB2F460098EC
:101C30002B1808EB000229464046FEF7EDFF294627
:101C40004046FEF78DFEFFF721F8002417E000263E
:101C50000FE001A830F81400B04000F4004018B1C3
:101C60005046FFF70DF802E01298FFF709F8701CD4
:101C700086B2102EEDDB781C87B2601C84B2102C6B
:101C8000E5DB4FF4A073F02200210846FEF7C4FF05
:101C900009B0BDE8F08F00000FB4054B10B503A9E3
:101CA000044A029800F018F810BC5DF814FB00001C
:101CB0000D3000082C00002002E008C8121F08C1E7
:101CC000002AFAD170477047002001E001C1121FBD
:101CD000002AFBD1704700002DE9FF4F8DB09B46D5
:101CE0000F460446002606E025280BD05A460F99D9
:101CF0009047641C761C20780028F5D111B030463E
:101D0000BDE8F08F0025A8460122984900E0054370
:101D100014F8013F203B02FA03F00842F7D1207883
:101D20002E2817D114F8010F45F004052A280ED0EB
:101D30006FF02F022078A0F1300109290AD808EBB2
:101D4000880102EB410100EB0108641CF2E757F83F
:101D5000048B641C20786C280DD004DC4C2812D035
:101D60006A2811D104E074280DD07A280CD10AE039
:101D700045F4001507E0617845F48015814202D1F1
:101D8000641C05F58015641C2078692844D008DCA3
:101D90000028B3D0582867D063280FD0642808D112
:101DA0003AE0702865D0732812D075285AD0782868
:101DB0005AD05A460F999047761CD5E017F8040B75
:101DC0008DF8000000208DF80100E946012003E0B5
:101DD00057F8049B4FF0FF3069074FF0000501D41E
:101DE0000AE06D1C45450DDA8542FADB19F805104D
:101DF0000029F6D106E06D1C8542FCDB19F80510C0
:101E00000029F8D12E4404E019F8010B5A460F9925
:101E100090476D1EF8D2A7E00A200021CDE9080105
:101E2000C5F3025002280CD001CFC117021E71F178
:101E300000020CDA0023D0EB030063EB01012D223A
:101E400008E0FF1D27F00707F7E80201EEE72A0583
:101E500004D52B228DF8282001223CE0EA073AD055
:101E60002022F7E70A2000E010200021CDE9080138
:101E700007E01020002145F00405CDE908014FF0EE
:101E80000808C5F30250022810D001CF00214FF0FE
:101E9000000A2A0720D52278702A0DD0DDE908C370
:101EA0008CF0100C5CEA030C0CD015E0FF1D27F041
:101EB0000707F7E80201EAE740228DF828204FF0F3
:101EC000010A0CE050EA010306D030238DF82830D7
:101ED0008DF82920022292462278582A04D024A282
:101EE0000DF120090B9209E026A2F9E7DDE90823AC
:101EF000FEF75EF90B9B9B5C09F8013D50EA01027D
:101F0000F4D1ADEB090020300890680701D44FF000
:101F100001080899884503DD0898A8EB000000E057
:101F200000208046002506E00AA85A46405D0F9929
:101F300090476D1C761C5545F6DB04E030205A4670
:101F40000F999047761CB8F10001A8F10108F5DC63
:101F500005E019F8010B5A460F999047761C08992D
:101F6000481E08900029F4DC641CC4E6092801001E
:101F700030313233343536373839616263646566FF
:101F800000000000303132333435363738394142C1
:101F900043444546000000002DE9F74F84B0049803
:101FA000D0F800B09BF80000303800F0FF09B9F11C
:101FB000090F09DC9BF801003A2805D10BF1020B4F
:101FC0000498C0F800B001E04FF00009B9F1010F2A
:101FD00003DB0B2007B0BDE8F08FAA4850F829407A
:101FE000059804600CB90C20F4E7207878B160788B
:101FF00000F072FC804608F0010040B9069820B15C
:1020000008F0040008B10A20E4E70020E2E700201D
:10201000207084F80190607800F0EFFB804608F0B3
:10202000010008B10320D5E7069820B108F00400AC
:1020300008B10A20CEE74FF0000A5146204600F0D2
:1020400029F90546012D13D104F5F777387978B1D0
:10205000F87A0106B87A41EA0041787A41EA00202C
:10206000397A40EA010A5146204600F013F9054644
:10207000032D01D10120ADE745B93B20015D94F866
:102080003C0041EA0020B0F5007F01D00D20A1E71F
:102090004620015D94F8470041EA002676B994F89D
:1020A0005700010694F8560041EA004194F85500A3
:1020B00041EA002094F8541040EA0106A66140204D
:1020C000005DE070E07846433E20015D94F83F00FB
:1020D00041EA0020504420623D20005DA070412074
:1020E000015D94F8420041EA002020814320015D17
:1020F00094F8440041EA00200290029870B994F8E4
:102100005300010694F8520041EA004194F851004E
:1021100041EA002094F85010084302903E210A5DE5
:1021200094F83F1042EA01220299891A891B2089FA
:10213000C21700EB1272A1EB2211A278B1FBF2F1EF
:10214000891C0191E161012540F6F77001998142F6
:1021500000D302254FF6F7710198884200D303257A
:10216000032D0FD194F85F00010694F85E0041EA58
:10217000004194F85D0041EA002094F85C100843A7
:10218000606202E0206A304460622089C11700EB7F
:102190001171226A324402EB2111A1624FF0FF302B
:1021A000206100202071032D5DD194F8601094F817
:1021B000610041EA0020504460610020A072607814
:1021C000012304F13001626900F064FBF0BB94F874
:1021D0002E1294F82F0241EA00204AF65521884237
:1021E00041D13320005D01063220005D41EA00410B
:1021F0003120005D41EA002094F830100843224964
:10220000884230D194F81702010694F8160241EA88
:10221000004194F8150241EA002094F81412084392
:102220001A4988421FD194F81F02010694F81E0231
:1022300041EA004194F81D0241EA002094F81C1282
:102240000843E06094F81B02010600E00BE094F8FC
:102250001A0241EA004194F8190241EA002094F878
:102260001812084320610020E062257008480088A9
:10227000401C80B206490880E0800020039003984B
:10228000A8E60000240000205252614172724161B0
:102290002800002070B504460D46607801232A46C8
:1022A00004F1300100F0F6FA08B1032070BD94F893
:1022B0002E1294F82F0241EA00204AF65521884256
:1022C00001D00220F2E703220BA104F1660001F025
:1022D00013F808B90020E9E7052208A104F18200FB
:1022E00001F00AF830B994F8580000F0800008B9FD
:1022F0000020DBE70120D9E7464154004641543332
:1023000032000000024600E0521C107810B1107834
:102310008842F9D1107870470246891ED069801E24
:10232000884201D8002070479378906A01FB03002F
:10233000F9E72DE9F04705468846D5F81C90B8F135
:10234000000F05D1EE680EB14E4510D301260EE008
:102350004146284600F06CFE0746022F02D20120BB
:10236000BDE8F0874F4501D23846F9E74646344686
:1023700000BF641C4C4504D30224B44201D90020A0
:10238000EEE72146284600F053FE074607B909E06C
:10239000781C08B1012F01D13846E1E7B442E8D1F9
:1023A0000020DDE700BF6FF070422146284601F0B3
:1023B00006F810B14FF0FF30D2E7B8F1000F08D0A7
:1023C00022464146284600F0FAFF10B14FF0FF3098
:1023D000C6E7EC602869401C20B12869401E2861CE
:1023E0000120A8722046BBE72DE9F35F00988669BB
:1023F0000B222021304600F09FFF0020054680463A
:1024000082464FF008090198D0F800B000BF50464E
:102410000AF1010A1BF80040202C03DB2F2C01D00D
:102420005C2C00D156E02E2C01D0C8450EDBB9F152
:10243000080F01D12E2C02D00620BDE8FC9F4FF0E2
:1024400008084FF00B09A806050EE0E7802C01DB19
:1024500045F00305812C01DB9F2C03DDE02C1DDB07
:10246000FC2C1BDC50460AF1010A1BF80070402FBF
:1024700001DB7E2F03DD802F05DBFC2F03DCA9F1C0
:102480000100404501DC0620D7E7404608F101087D
:102490003454404608F1010837541AE0214622A07E
:1024A000FFF730FF08B10620C7E7412C04DB5A2CA8
:1024B00002DC45F0020508E0612C06DB7A2C04DC26
:1024C00045F00105A4F12000C4B2404608F101081E
:1024D00034549CE700BF0BEB0A0101980160202CEB
:1024E00001DA042000E000200446B8F1000F01D119
:1024F0000620A2E73078E52801D105203070B9F137
:10250000080F01D1A806050E05F00300012801D12E
:1025100044F0100405F00C00042801D144F0080434
:10252000F472002089E70000202B2C3B5B3D5D22EC
:102530002A3A3C3E3F7C7F002DE9F05F04460021B3
:10254000204600F007F9054615B12846BDE8F09F82
:102550004FF0FF0AD346A069C07A00F0010900BF1E
:102560002169606800F0F2FE054605B11CE067696C
:102570003E780EB9042517E0F87A00F03F08E52E02
:102580000BD02E2E09D008F0080030B90B223846A7
:10259000A16900F0B1FE00B906E00021204600F07C
:1025A00006F80546002DDBD000BF2846CEE72DE912
:1025B000F041044688466088401C85B20DB1206910
:1025C00010B90420BDE8F081E91705EB117109117C
:1025D000A5EB0111002972D12069401C2061A0687F
:1025E00028B960680089A84269DC0420EAE7E91795
:1025F00005EB117162689278521E02EA21110029DE
:102600005DD1E168606800F013FD0646012E01D837
:102610000220D7E7701C08B90120D3E76068C069C1
:10262000B04246D8B8F1000F01D10420CAE7E168F2
:102630006068FFF77EFE06460EB90720C2E7012E4E
:1026400001D10220BEE7701C08B90120BAE70021C1
:10265000606800F07BFE08B10120B3E7616801F11A
:1026600030004FF40072002100F066FE31466068D1
:10267000FFF752FE6168C862002710E00120616820
:1026800008710021606800F061FE08B1012099E73F
:102690006068C06A401C6168C862781CC7B2606824
:1026A0008078B842EADC6068C06AC01B6168C862B2
:1026B00000BFE66031466068FFF72EFE206165804E
:1026C0002846E91705EB11710911A5EB01116268A4
:1026D000303202EB41116161002073E72DE9F041D6
:1026E00004460021204600F035F80546ADB900BF8C
:1026F0002169606800F02AFE054605B10CE06069BA
:102700000678E52E00D006B906E001212046FFF745
:102710004EFF0546002DEBD000BFC5B921696068AA
:1027200000F014FE054695B967692022002138465D
:1027300000F002FE0B223846A16900F0F0FDA0690E
:10274000C07A00F0180038730120616808712846CB
:10275000BDE8F0812DE9F04104460D466580A6688C
:10276000012E03D06068C069B04202D80220BDE8E3
:10277000F0817EB960680089A84201DC0220F6E79A
:102780002846E91705EB11716268526A02EB2111C4
:10279000216124E060688078070112E031466068BA
:1027A00000F046FC0646701C08B90120DFE7022E47
:1027B00003D36068C069B04201D80220D7E7E81BA4
:1027C00085B2BD42EADAE66031466068FFF7A4FDF3
:1027D000A846E91705EB117100EB2110206128468E
:1027E000E91705EB11710911A5EB0111626830328F
:1027F00002EB411161610020B9E770B50546002682
:102800000DB1012070BDFEF709FC044600BFFEF7C4
:1028100005FC044624B13046711CCEB21428F6DB08
:10282000022C01D10220EDE70CB10120EAE70020E3
:10283000E8E700002DE9F04106460F46154616B1BF
:102840000420BDE8F08127B1012F16D0032F19D144
:102850000EE010210E48FDF70CFEFEF767FE08B9EA
:10286000002400E0012410210948FDF704FE0BE0DC
:102870004FF400702880002406E0FEF77BFB286000
:10288000002401E0042400BF00BF2046D9E7000077
:10289000000801402DE9F04106460F4615461C464A
:1028A0004FF0000806B914B90420BDE8F081012CEE
:1028B00005D168023946FEF769FD804605E06802E9
:1028C00022463946FEF726FD8046B8F1000F01D1B9
:1028D0000020EAE70120E8E7014609B1012070473E
:1028E0000020FCE72DE9F0410746884616461C46C5
:1028F00007B914B90420BDE8F081012C05D170029C
:102900004146FEF79BFE054605E070022246414621
:10291000FEF71EFE05460DB90020ECE70120EAE7B0
:1029200070B50446204600F09EFA05460DB9002019
:102930002060284670BD2DE9F04704460E46A18868
:10294000206800F08DFE8246BAF1000F02D050469A
:10295000BDE8F087A07900F0800008B10220F7E719
:10296000E068B04204D2A07900F0020000B9E66845
:10297000D4F808900020A060FF20E0714FF000081C
:10298000002E7DD0206880784702B9F1000F11D069
:10299000701EB0FBF7F1A9F10100B0FBF7F0814226
:1029A00008D3A9F10100791E8843A060A068361AF7
:1029B000656918E02569ADB900212068FFF7B9FC09
:1029C0000546012D05D1A07940F08000A0710220BC
:1029D000BEE7681C28B9A07940F08000A0710120F2
:1029E000B6E725616561002D4AD029E0A07900F0A5
:1029F000020038B129462068FFF79BFC054635B92F
:102A00003E461FE02946206800F012FB0546681C80
:102A100028B9A07940F08000A071012098E7012D2D
:102A200003D92068C069A84205D8A07940F0800089
:102A3000A07102208CE76561A0683844A060F61B95
:102A4000BE42D3D800BFA0683044A060C6F3472080
:102A5000E071C6F3080068B129462068FFF75CFC06
:102A60008046B8F1000F06D1A07940F08000A07137
:102A700002206DE704E0E0798044E079401CE071D9
:102A8000B8F1000F2ED0A06940452BD02089C0F3AB
:102A9000080038B3A07900F0400090B12168487870
:102AA000012304F12401A269FFF71CFF28B1A079DA
:102AB00040F08000A07101204AE7A07900F0BF003B
:102AC000A071216848780123424604F12401FFF7F0
:102AD000E1FE28B1A07940F08000A071012037E725
:102AE000C4F81880D4E90201884205D9A068E060E2
:102AF000A07940F02000A071504629E70246012A43
:102B000001DB0B207047074850F822300BB1002042
:102B1000187009B100200870024840F82210002007
:102B2000F0E70000240000202DE9F7438AB00546B5
:102B300016460020286006F01F0606F01E0204A9B3
:102B40000BA8FFF729FA07461FB138460DB0BDE8BC
:102B5000F083CDF824D003A80B9900F005FA0746BE
:102B600006F01C00002868D067B1042F03D103A829
:102B7000FFF7B4FD07460FB13846E7E746F0080611
:102B8000089C41E006F0040008B10820DEE7089C3C
:102B90001CB1E07A00F0110008B10720D6E706F07A
:102BA000080080B3A17EE07E41EA0021227D607DA5
:102BB00042EA002041EA00490020207500216175A9
:102BC000A076E17620776177A177E17701200499FB
:102BD00008710498D0F82C80B9F1000F0BD0494649
:102BE000049800F0A4FC07460FB13846AEE7A9F1FF
:102BF00001000499C8604146049800F0A7FB07460D
:102C00000FB13846A2E7FFE706F00800A0B10020A8
:102C1000E07200F0A1FA804684F80E804FEA182195
:102C2000E1734FEA184121744FEA18616174012081
:102C30000499087146F0200613E00FB1384685E785
:102C4000089C1CB1E07A00F0100008B104207DE778
:102C500006F0020028B1E07A00F0010008B1072078
:102C600074E70498C06AE86108982862AE71A17E92
:102C7000E07E41EA0021227D607D42EA002041EAB7
:102C800000402861E07F0106A07F41EA0041607FAB
:102C900041EA0020217F0843E8600020A860FF206F
:102CA000E8710020A861049828600498C088A88072
:102CB00000204BE72DE9FF4F83B0044615469946A7
:102CC000049801900020C9F80000A188206800F055
:102CD000C7FC0290029818B1029807B0BDE8F08FC7
:102CE000A07900F0800008B10220F6E7A07900F09A
:102CF000010008B90720F0E7D4E90210A0EB010BAE
:102D00005D4500D95D46A9E02089C0F30800002890
:102D10007ED1E0792168897888421EDBA06808B9F5
:102D2000206903E06169206800F082F98246BAF107
:102D3000010F05D8A07940F08000A0710220CCE7F7
:102D40000AF1010028B9A07940F08000A0710120AB
:102D5000C3E7C4F814A00020E07161692068FFF7A0
:102D6000DBFA07462FB9A07940F08000A07102205D
:102D7000B3E7E07907444FEA5528B8F1000F1FD0B8
:102D8000E079404421688978884204D920688078B5
:102D9000E179A0EB010808F0FF03216848783A4682
:102DA0000199FFF777FD28B1A07940F08000A0716C
:102DB000012092E7E0794044E0714FEA482641E083
:102DC000A07900F0400090B121684878012304F117
:102DD0002401A269FFF786FD28B1A07940F08000A8
:102DE000A071012079E7A07900F0BF00A071A0696F
:102DF000B84210D02168487801233A4604F12401F2
:102E0000FFF748FD38B1A07940F08000A07100E0E4
:102E100005E0012061E7A761E079401CE0712089AD
:102E2000C0F30800C0F50076AE4200D92E462089D6
:102E3000C0F3080204F1240011183246019800F092
:102E40006EFA00BF019830440190A0683044A06041
:102E5000D9F800003044C9F80000AD1B002D7FF404
:102E600053AF002039E72DE9F0410446A1882068DE
:102E700000F0F6FB0746002F4FD1A07900F02000AC
:102E800000284AD0A07900F0400078B12168487845
:102E9000012304F12401A269FFF724FD10B10120F0
:102EA000BDE8F081A07900F0BF00A071E169206861
:102EB00000F04CFA0746002F2FD1256AE87A40F03F
:102EC0002000E872207B2877A089010A6977E068F2
:102ED000010CA977E068010EE977207CA876208AAA
:102EE000010AE9762069000C28752069010E6975D0
:102EF00000F032F90646AE75310AE975310C2976D3
:102F0000310E6976A07900F0DF00A0710120216800
:102F10000871206800F03FFB07463846C0E7000014
:102F200010B5024600210F4B13E0107801EB01149D
:102F300013F81440A04209D1507801EB011403EBBF
:102F400044046478A04201D1084610BD481C81B2F7
:102F500000BF01EB011013F810008028E5DC00BF72
:102F60000020F2E7EE4000082DE9F3410446019805
:102F700000782F2803D0019800785C2802D10198AE
:102F8000401C019060680078032802D16068406AA4
:102F900000E00020A06001980078202807DA0021D6
:102FA0002046FFF7D7FB0646002060612BE000BFFC
:102FB00001A92046FFF718FA064606B122E020468E
:102FC000FFF7BAFA0646A069C07A00F0040726B1F6
:102FD000042E01D107B9052614E007B112E0656996
:102FE000E87A00F0100008B905260BE0A97EE87E1B
:102FF00041EA00212A7D687D42EA002041EA004042
:10300000A060D5E700BF3046BDE8FC8170B504463E
:103010000D46E1B20548FEF7E1FD00BF402103483F
:10302000FEF762FD0028F9D0204670BD003801404F
:103030002DE9F04705460C46022C02D3E869A04270
:1030400002D80120BDE8F0872F6A2878012804D033
:10305000022835D003287BD14BE0A1B201EB41001F
:1030600000EBD071C1F34F06F01706EBD05007EB21
:103070006021284600F06AF900B169E0C6F3080152
:1030800005F1300010F80180701C86B2F01706EBD5
:10309000D05007EB6021284600F058F900B157E006
:1030A000C6F3080105F13000405C48EA002804F04E
:1030B000010010B14FEA2810C4E7C8F30B00C1E7C4
:1030C00007EB1421284600F041F900B140E040F23E
:1030D000FF1000EA440105F13000415C40F2FF10AE
:1030E00000EA440205F130001044407841EA002033
:1030F000A8E707EBD411284600F028F900B127E033
:1031000040F2FF1000EA840105F130000844C07865
:10311000010640F2FF1000EA840205F1300010447D
:10312000807841EA004140F2FF1000EA840205F194
:1031300030001044407841EA002040F2FF1101EADB
:10314000840205F13001895C084320F0704079E782
:1031500000BF4FF0FF3075E70020704708B5FDF75E
:10316000A5FDFDF709FA0020FDF7C1F9FEF77EFC89
:103170002FA0FEF791FDFDF751FF50B94BF64040EF
:10318000002330A24FF4967100901846FDF7BEFC64
:1031900009E04BF6404000232DA24FF496710090B9
:1031A0001846FDF7B3FC00204FF478432DA20A2106
:1031B00000902820FDF763F900204FF478432FA2F8
:1031C000282100902D20FDF75AF900204FF6FF73BB
:1031D0002FA2462100902520FDF751F9002047F647
:1031E000FF7331A2782100902020FDF748F90020DC
:1031F00047F6FF7330A2882100902020FDF73FF9A9
:1032000000204FF61F0333A2BE2100902020FDF7BF
:1032100036F90BE004213748FDF72DF9FDF72EF8BC
:1032200004213448FDF725F9FDF728F8F2E70000FE
:103230000D0A2048656C6C6F20776F726C642120DA
:103240000D0A0000534420496E6974204F4B210041
:10325000534420496E6974204661696C757265211A
:10326000000000002D2DC9EEDBDACDFAB1A6B5E7DE
:10327000D7D3BFC6BCBC2D2D000000002A2A2020B9
:10328000BAECC1FABFAAB7A2B0E520202A2A0000F2
:10329000205E2D5EBABAD7D6D7D6BFE2CAB5D1E97D
:1032A0005E2D5E2000000000B8D0D0BBC4FAB5C4CB
:1032B000D6A7B3D6A3A10000C4FAB5C4D6A7B3D687
:1032C000CAC7CED2C3C7C7B0D0D0B5C4B6AFC1A6E7
:1032D000A3A10000DDEBC8BBBBD8CAD7A3ACC4C751
:1032E000C8CBC8B4D4DAB5C6BBF0C0BBC9BAB4A6A3
:1032F000A3A1000000140140F0B503461C460D4692
:10330000002000BF161EA2F1010207D014F8017BB5
:1033100015F801CBA7EB0C06301EF3D0F0BD70B54D
:1033200003460C4603E014F8015B03F8015B151E2D
:10333000A2F10102F7D170BD30B5034601E003F8F8
:10334000011B141EA2F10102F9D130BD2DE9F0419B
:1033500004460D46E66AAE422FD0207908B3607865
:103360000123324604F13001FFF7BCFA10B101200D
:10337000BDE8F08100202071A169206A0844B042B4
:103380000FD9E7780AE0A069064460780123324645
:1033900004F13001FFF7A6FA781EC7B2022FF2DA65
:1033A00000BF55B1607801232A4604F13001FFF7D0
:1033B00071FA08B10120DBE7E5620020D8E72DE9CA
:1033C000F05F05460C461646022C02D3E869A0427F
:1033D00002D84FF00208A7E0D5F820A028780128ED
:1033E00004D0022851D0032874D169E0A1B201EBC6
:1033F000410000EBD071C1F34F07BB46F81707EB54
:10340000D0500AEB60212846FFF7A0FF8046B8F1B4
:10341000000F00D085E0C7F3080105F1300001EB93
:10342000000904F0010028B1F1B299F8000061F33D
:103430001F1000E0304689F80000781C87B2012098
:103440002871BB46F81707EBD0500AEB60212846DD
:10345000FFF77CFF8046B8F1000F00D061E0C7F3B2
:10346000080105F1300001EB000904F0010010B182
:10347000C6F3071006E099F8000000F0F000C6F36C
:103480000321084389F800004BE00AEB1421284689
:10349000FFF75CFF8046B8F1000F00D041E040F23A
:1034A000FF1000EA440205F130008654310A40F270
:1034B000FF1000EA440205F130001044417030E092
:1034C0000AEBD4112846FFF741FF8046B8F1000F00
:1034D00001D026E022E040F2FF1000EA840205F16C
:1034E00030008654310A40F2FF1000EA840205F1F0
:1034F000300010444170310C40F2FF1000EA8402A9
:1035000005F1300010448170310E40F2FF1000EAE6
:10351000840205F130001044C17002E04FF002084F
:1035200000BF00BF012028714046BDE8F09F2DE993
:10353000F04104460E46022E02D3E069B04201D8A3
:10354000022725E000271FE031462046FFF770FDE7
:10355000054605B91BE0012D01D1022717E0681CC3
:1035600008B9012713E0002231462046FFF727FF64
:10357000074607B10BE02069401C20B12069401CC0
:1035800020610120A0722E46E069B042DCD800BF65
:103590003846BDE8F08170B5044600212046FFF7AB
:1035A000D5FE0546002D59D1207803284FD1A07AA9
:1035B00000284CD00020E0624FF40072002104F19A
:1035C0003000FFF7B9FE552184F82E12AA2184F8A5
:1035D0002F12522084F830005221312001556121F0
:1035E00032200155412133200155722184F81412F3
:1035F00084F81512412184F81612612184F81712FB
:10360000217C84F81812208A010A84F81912206992
:10361000010C84F81A122069010E84F81B12217B18
:1036200084F81C12A089010A84F81D12E068010CBC
:1036300084F81E12E068010E84F81F1260780123DE
:1036400004F130016269FFF74DF90020A072607843
:1036500000221146FFF7EEF800B10125284670BDA3
:1036600070B504460D4624B1207810B1E088A84218
:1036700001D0092070BD6078FFF72EF900F001003D
:1036800008B10320F6E70020F4E700000000000086
:10369000000000000000000004040404040400040E
:1036A000000000140A0A00000000000000000000F2
:1036B00014143F140A3F0A0A000000041E150506F0
:1036C0000C14150F0400000012150D0A142C2A12F8
:1036D00000000000040A0A1E151509360000000249
:1036E000020100000000000000000020100808088F
:1036F0000808081020000002040808080808080448
:10370000020000000004150E0E1504000000000069
:103710000404041F04040400000000000000000072
:1037200000000002020100000000001F0000000075
:103730000000000000000000000000020000001077
:103740000808080404020202010000000E11111111
:103750001111110E00000000040604040404040EFC
:10376000000000000E1111080402011F00000000FB
:103770000E11100C1010110E00000000080C0A0AA7
:10378000091E0818000000001F01010F1010110E83
:10379000000000000E09010F1111110E00000000C1
:1037A0001F09080404040404000000000E11110E97
:1037B0001111110E000000000E1111111E10120E39
:1037C00000000000000004000000000400000000F1
:1037D000000000040000000404000020100804029F
:1037E000040810200000000000001F00001F00005F
:1037F000000000020408102010080402000000006D
:103800000E11110804040004000000000E11191527
:10381000151D011E0000000004040C0A0A1E1233CC
:10382000000000000F12120E1212120F0000000012
:103830001E1101010101110E000000000F121212F1
:103840001212120F000000001F120A0E0A02121FAD
:10385000000000001F120A0E0A020207000000000A
:103860001C1201013911120C000000003312121E4B
:1038700012121233000000001F0404040404041F89
:10388000000000003E0808080808080907000000BA
:1038900037120A060A0A1237000000000702020265
:1038A0000202223F000000001B1B1B1B15151515F3
:1038B000000000003B1216161A1A12170000000032
:1038C0000E1111111111110E000000000F12120E35
:1038D00002020207000000000E1111111117190E4B
:1038E000180000000F12120E0A121237000000001A
:1038F0001E1101060810110F000000001F1504041E
:103900000404040E00000000331212121212120CF2
:10391000000000003312120A0A0C04040000000028
:103920001515150E0A0A0A0A000000001B0A0A04EF
:10393000040A0A1B000000001B0A0A040404040E07
:10394000000000001F0908040402121F0000001CF0
:1039500004040404040404041C000002020204041D
:10396000080808100000000E0808080808080808E1
:103970000E0000040A00000000000000000000002B
:103980000000000000000000003F000400000000F4
:1039900000000000000000000000000C121C123C9F
:1039A000000000000302020E1212120E00000000BE
:1039B0000000001C1202021C000000001810101C65
:1039C0001212123C000000000000000C121E021C2B
:1039D000000000003804041E0404041E000000005F
:1039E0000000003C120C021E221C00000302020E0A
:1039F0001212123700000000040000060404040E36
:103A0000000000000800000C080808080807000073
:103A10000302023A0A0E12370000000007040404F1
:103A20000404041F000000000000000F1515151508
:103A3000000000000000000F12121237000000000A
:103A40000000000C1212120C000000000000000F19
:103A50001212120E020700000000001C1212121CAB
:103A6000103800000000001B0602020700000000E2
:103A70000000001E020C101E000000000004040ED6
:103A800004040418000000000000001B1212123C85
:103A90000000000000000037120A0C0400000000C3
:103AA00000000015150E0A0A000000000000001BAF
:103AB0000A040A1B0000000000000037120A0C0470
:103AC000040300000000001E0804041E000000188B
:103AD0000808080408080808180008080808080862
:103AE000080808080808000604040408040404047C
:103AF0000600022518000000000000000000000081
:103B000000000000000000000000000000000000B5
:103B100000080808080808080000181800000048F5
:103B20006C241200000000000000000000000000F3
:103B3000002424247F1212127F12121200000000AF
:103B4000081C2A2A0A0C1828282A2A1C08080000FF
:103B50000022251515152A5854545422000000003F
:103B6000000C1212120A76252911916E000000062F
:103B700006040300000000000000000000000040F8
:103B80002010100808080808081010204000000243
:103B9000040808101010101010080804020000009B
:103BA000000008086B1C1C6B0808000000000000E7
:103BB0000000080808087F08080808000000000046
:103BC00000000000000000000000060604030000E2
:103BD000000000000000FE000000000000000000E7
:103BE00000000000000000000000060600000000C9
:103BF0008040402020101008080404020200000049
:103C0000001824424242424242422418000000006E
:103C100000080E08080808080808083E0000000010
:103C2000003C4242422020100804427E0000000076
:103C3000003C4242201820404042221C000000006C
:103C400000203028242422227E202078000000003A
:103C5000007E0202021A26404042221C00000000A0
:103C600000382402021A26424242241800000000B2
:103C7000007E222210100808080808080000000032
:103C8000003C4242422418244242423C00000000D0
:103C900000182442424264584040241C00000000A6
:103CA00000000000181800000000181800000000B4
:103CB00000000000000800000000000808040000E8
:103CC00000402010080402040810204000000000FA
:103CD000000000007F0000007F00000000000000E6
:103CE0000002040810204020100804020000000018
:103CF000003C42424640201010001818000000000E
:103D0000001C225A555555552D42221C000000001A
:103D1000000808181414243C224242E70000000066
:103D2000001F2222221E22424242221F00000000C7
:103D3000007C4242010101010142221C00000000FE
:103D4000001F2242424242424242221F0000000023
:103D5000003F4212121E12120242423F00000000B7
:103D6000003F4212121E121202020207000000005F
:103D7000003C2222010101712122221C00000000CE
:103D800000E7424242427E42424242E700000000D7
:103D9000003E0808080808080808083E000000005F
:103DA000007C10101010101010101010110F0000D7
:103DB000007722120A0E0A12122222770000000057
:103DC00000070202020202020202427F000000001B
:103DD0000077363636362A2A2A2A2A6B0000000057
:103DE00000E346464A4A52525262624700000000CF
:103DF000001C2241414141414141221C0000000080
:103E0000003F424242423E0202020207000000001E
:103E1000001C2241414141414D53321C60000000D1
:103E2000003F4242423E1212222242C700000000DE
:103E3000007C4242020418204042423E0000000042
:103E4000007F4908080808080808081C000000004E
:103E500000E74242424242424242423C00000000ED
:103E600000E742422224241414180808000000002D
:103E7000006B49494949555536222222000000006D
:103E800000E7422424181818242442E70000000008
:103E900000772222141408080808081C00000000FB
:103EA000007E2120101008040442423F00000078E8
:103EB000080808080808080808080808780000002A
:103EC0000202040408080810102020204040001EB0
:103ED0001010101010101010101010101E000038CC
:103EE000440000000000000000000000000000008E
:103EF00000000000000000000000000000FF0006BD
:103F000008000000000000000000000000000000A9
:103F100000000000003C4278444242FC00000000E7
:103F200000030202021A26424242261A0000000042
:103F30000000000000384402020244380000000083
:103F40000060404040784442424264D80000000093
:103F500000000000003C427E0202423C00000000E3
:103F600000F08808087E08080808083E00000000E5
:103F700000000000007C22221C023C42423C000067
:103F800000030202023A4642424242E700000000B9
:103F9000000C0C00000E08080808083E0000000095
:103FA000003030000038202020202020221E000079
:103FB000000302020272120A1612227700000000A9
:103FC000000E0808080808080808083E000000005D
:103FD00000000000007F9292929292B700000000D1
:103FE00000000000003B4642424242E70000000061
:103FF00000000000003C42424242423C00000000FF
:1040000000000000001B26424242221E0207000060
:1040100000000000007844424242447840E0000042
:104020000000000000774C040404041F000000009E
:1040300000000000007C42023C40423E00000000C4
:1040400000000008083E08080808083000000000CA
:104050000000000000634242424262DC00000000B7
:104060000000000000E742242414080800000000BB
:104070000000000000EB49495555222200000000D5
:1040800000000000007624181818246E00000000BC
:104090000000000000E7422424141808080700006C
:1040A00000000000007E22100808447E000000C0CE
:1040B000202020202010202020202020C0001010B0
:1040C000101010101010101010101010101000060A
:1040D00008080808081008080808080806000C3234
:1040E000C200000000000000000000000000A1F677
:1040F00000007FFC7FFC7FFC7FFC7FFC7FFC7FFC63
:104100007FFC7FFC7FFC7FFC7FFC7FFC00000000CD
:10411000D2BA4040202027FE09208920527C5244F8
:1041200016A82B982250E220223022502288230EFB
:104130002204BEA700000FF008100FF008100FF0C7
:10414000081000007E7E42427E7E424242427E7ED7
:1041500042420000C7FD0000F9FE090049044984FD
:10416000494849287D10051805283524C54405848B
:10417000290011FE0000B6AF002000207E200020A4
:1041800000FCFF2410241024242422244F44FA4449
:104190004084011402080000CAB5010000803FFEFF
:1041A0002804468804800880068004807FFE008002
:1041B00001400220041018186010D1E90000F840F6
:1041C000084048A04890490E4BF07C000484064407
:1041D0003548C548041017FE08000000A1AA0000D9
:1041E000000000000000000000000000FFFE0000D2
:1041F0000000000000000000000000000000BBF90B
:10420000082008207FFC08200FE008200FE008208D
:10421000FFFE082011183FEEC10401007FFC0000E2
:10422000D3DA00003FFC0100010001000100FFFEA5
:10423000010001000100010001000100090005006A
:104240000200C8C340402040304020400040007C75
:10425000E040204020402040204020402840304086
:1042600027FE0000D3C5108018A01098209037FCBE
:104270006140A1402140214021402140224422446C
:104280002446283C2000D0E300F83F0001007FFED8
:1042900003C00D30310EC1041FF00220024004FCA7
:1042A0000404080410282010B3C900A00090008066
:1042B0003FFE208020803E88228C224822502220EF
:1042C0002A604492410A86060002CEAA008010802D
:1042D0000C8004847FFE0104010401840144022453
:1042E000022404040844102820100000CFB000006D
:1042F0003FFC000408040404030401140064018466
:104300000604380410040004002400140008B9DF77
:10431000200023F822482FFE3248AA48ABF8A0001C
:1043200023F8224822482248224820B023082C049F
:10433000A3AC00000000000000000000000000002E
:1043400000000000000000003000300010002000DD
:104350000000D7A8010001003FF802000200FFFEA4
:10436000040008200FF000200040028001000080BF
:1043700000400000D7A220801040104007FE80407F
:1043800048404840104013FC2040E040204020407E
:1043900020402FFE2000C1A6010001000100010005
:1043A0007FFC01040104010401040204020404046A
:1043B0000404080410282010C1BF1FF010101FF0C3
:1043C00010101FF00000FFFE11101FF011101FF061
:1043D00001001FF80100FFFE0000B3C900A000901B
:1043E00000803FFE208020803E88228C2248225080
:1043F00022202A604492410A86060002BECD102087
:104400000828FF24002400207FFE425042507E50A6
:1044100008502C502A904A9289122A0E1000C3CEBE
:10442000082008207EFE08301C682AAECB240C2011
:1044300007F808100C203240018003000C007000C7
:10444000CFEB100010FC1084FEFC388434FC548444
:10445000508490FC0000010008842882281267F034
:104460000000A3A1000000000000000010001000E8
:1044700010001000100010001000100010000000CC
:1044800010000000CDFA000003FC7C404440444092
:1044900044407C4045FC4440444044407C40004013
:1044A000004007FE0000B1A6020001007FFE4004AC
:1044B00080083FF80100010001001FF801400120C1
:1044C000013001207FFE0000B5E70100010001007E
:1044D0003FF8210821083FF82108210821083FF86A
:1044E00021080102010200FE0000D7D300003FF0C6
:1044F000002000400080010001000104FFFE0100D7
:10450000010001000100010005000200BAEC1000EA
:104510001000200425FE4420F82008201020202030
:10452000FC20402000201C20E02447FE0000C1FAAF
:1045300002000240022002207FFE028002900290D0
:1045400004A004C00880098012822082407E0000FE
:10455000BFAA00007FFE0420042004200420FFFEE8
:1045600004200420042008200820102020204020BF
:104570000000B7A202002240223022107FFE240059
:10458000040007E00C200A200A201140208041602E
:10459000861C1808B0E5101C11E011001100FD0088
:1045A00011FC398435485548523092101230144865
:1045B000108E11040000CDE2082008200F201120E9
:1045C0001120213052288A240C2204220820102095
:1045D0002020402080200020CFDF10401850104CB9
:1045E000204823FC4840F84013FE20407C4800301F
:1045F00000221CD2E30A00060002B2E2400227C2F7
:104600002442845245525552155225522552255264
:10461000C552410242824242444A4804CAD4002060
:1046200040282024302427FE0020E02027E02120FD
:1046300021102110210A29CA360620020000C4AE2A
:104640002120112017FE812043F8520813F8120888
:1046500023F82040E7FE204020A02090210E2604D1
:10466000C8BB084008501F48114833FE2A40646008
:1046700094A00890110E2604400028882444666601
:104680004222DDF7DEF7DEFFDEFFDEFFDEFFDEF7D4
:10469000DDFFDDFFDCFFDDFFDDFFBCFFBCFFBBF7A7
:1046A000DCFFDDFFDEFFDDF7FDF7DCF7DAF7BAF759
:1046B000D8FF96F795EF53E732DF12DF11DF10DFF7
:1046C00010D7CECECECECDCECECEADC6ACC6ACC63D
:1046D000ACC6ACC6CCC68BBE8BBE6BBE8BBE8BBE17
:1046E0006ABE8BBE8ABE8BC68ABE6BBE8ABE8AC6B7
:1046F0008BC68BC68BC6ABCEABC6CBC6CBC6CBCE22
:10470000ACCEACCECDCEADCE8DCEAFCED0C6B0C6BB
:10471000D1C6B1BE71B691B671B671B691B671AE71
:1047200050A650A60F9E309EF095F095D095F0952E
:10473000D08DF095F08D31961196129E109E319E7F
:1047400011961296129611961296F08D118EF19581
:104750003196F08D10961196F08DF095F095EF95BD
:10476000EF950F96CE8DCE8DCE8DCE95CD95EC95C9
:10477000CB95EB950B96EA9DEA950A960B96EC9DE8
:104780000B9EEB9D0B9EEA950B96EB9D0B9E0A9E56
:104790002AA609A609A62AA62AA62BAE0AA62BAEE9
:1047A0002CAE2CAE2CAE2BAE4AAE2AAE2AAE2AAE22
:1047B0000AA62AA60AAE09AE09AE29AE29AE09AEEE
:1047C000E9ADBDF7DDFFDDF7BDF7BCF7BBF7BBF724
:1047D000B9F797F776EF77EF97EF76EF76E776EF23
:1047E00097EF98EF98EF98EF98EF77EF34E732DF95
:1047F00010D7CFCECDCE8CC68BBE8ABE8BBE6BB64D
:104800004BB66BB62AAE4AAE4BAE4AAE2AAE4BAEF4
:104810000AA60AA60AA609A6E99D0AA609A60AA644
:1048200029AE29AE4AAE4AAE4AB649B64AB64ABEE3
:1048300069BE6ABE6ABE89BE8ABE8AC68AC68ABE8A
:104840006ABE6BBE6BBEB2CED8D618DF91BE70BE4C
:1048500090BE90BE70B652B672B651B651AE71B639
:1048600051AE30AE10A632A6329E319E0F960E8EFD
:10487000509E3096108E3096109E2F9E2F9E0F9E2B
:10488000F095F095F09510961096F08DEF8DF095CF
:10489000F095F095D08DD08DD085F0850F8EEF8D71
:1048A000CE8DCF8DAE8DCE8DEE8DCD95EC95EB95DD
:1048B000CA95EA95CA95CB95A98DC895AA95CD9D1F
:1048C000CD9D10B610AEAEA5AEA551B6D3CEF6D6E0
:1048D000B4C673C694C6B5CED5CE72C652BE16D770
:1048E00072BEEDADCA9DEA9DEA9D0B96CA95E9950B
:1048F000099EE99DC995C99DCA9DAA9DC99DCA9D4C
:10490000899DBAF7BBF79AF7B9F777EF76EF75EFAE
:1049100053E710DFEFD611D711DFF1D6F0D6D0CEA6
:10492000D0CED0CED1CEB0C6AFC68DBE6CBE6BBE23
:104930006BB64BAE2BAE2BA60BA60BA60A9EEA9D22
:10494000EA9D0A9ECA95CA95E995E995EA95C995A1
:10495000EA95CA95C995C995C995C995E995099EDC
:10496000099EE99D09A62AA62AA62AAE2AAE4AAE23
:104970004AB64AB64AB66EBE70C6D4DEB6E6B6DEF3
:10498000B7DED9EED9EEFCF61DF7FCEEFAE6F9E655
:10499000D8E6B7DED8DEF9DE7BEF3ADF77C6F8DEA1
:1049A000F9DE1AE7B9DED9D619D7B7C6F2A5EF9D59
:1049B000109EF095D08D319E109E2FA60E9E2E9E9D
:1049C0000F96EF950F96309E319E109E109E109E72
:1049D000109E0F96EF95F095F08DCF8DEF950E967A
:1049E000ED8DCD8DAD8DED8DEB8DCB95EA95C9958A
:1049F000C98DA98DA98DEA9D73BE76CEF8E6FCF629
:104A00003EFF5DF75DF75DF71CEF3DF73DF7FDF607
:104A1000DDEE1DF7DDF6DDEEDDEEFDF6DCEE1DEF85
:104A2000FCEEFAE6FAE6B6D62FAEA895C795A8959D
:104A3000A895C895C78DA78DA78D8795678D678D1C
:104A4000689578F777EF36E736E736E7F6E6F3DE90
:104A5000B1D690CE90CE71CEB3D6B3D672C671CE4B
:104A600071C64FC670BE2EB62DAE2BAE2BA64CA671
:104A70000BA60BA60B9E0B9EEA95CA95CB95EB95C4
:104A8000CB95CA8DAA8DA98DAA8DAA8DCA8DA9850F
:104A9000A98DC98DC98DA98DA98DC98DC98DC995BE
:104AA000A895E895E99D099EE99D099E079E079EA8
:104AB00007A608A62BAE95D6B8E659E67AE6BCEE70
:104AC0009CE6BBF6BCF6FDFEFCF6FCF6FDF6DDF65C
:104AD0001FFFFEF61DEF78CED9D699DEBAE6BBE60B
:104AE000FDF6BCEE78D6B7D6D8CEF7CE74B631A6E2
:104AF0002F9E3096CF8D509E4FA62DA62EA62EA669
:104B00002FA60F9E1096309E30A60F9E0E9E2FA6AB
:104B10004F9E0E962F9E1096108E1096109EEF951B
:104B2000CD8DED8DED95CC8DEB95C995A88DA88D8E
:104B3000A88DA98DC995EDA531B691AD55CED9E613
:104B40009ADEDDEE1EF73EFF3EFF1EFFBDEEDDF6F8
:104B5000DDF6DDF6DDEE1EF7BDEEDDEEFDF6BBE6C5
:104B6000FCEE99D6BADE98D652BEAA95A88DA89525
:104B7000A88D4785688DA995EB9D8A9D8995CB9DCC
:104B80004995DCEEDBEED9E6FAEEDBEEDCF6DBEEA9
:104B9000FBEEFBEEFCF6DCEEFDF61EF71DF7FDEE80
:104BA0001CF71BF75CF77BF796CE94C6EEA5ECA539
:104BB000EB9DEB9DEA9DEA95CA8DAA8DCA8DCA8DA3
:104BC000AA8DCA8DA98DA98DAA858A858985697DB9
:104BD00027752775477D6885A98DA88DC88DA88DF7
:104BE000C795E89DE79DE79DE79D079E07A6E79D82
:104BF000E9A50EB6D7DEFBF6BCF6DDF69CF6DCF6D4
:104C00009CF6BCEEDDF6DDF6DDEEDCEEDDF61EFF3D
:104C1000DEF69DEEDCE6FADEFADE1BE7FAE61AEFD8
:104C2000F9E6B9DE59DFF6C6F095EF95CD8DCC8D5E
:104C3000EF95EF95AE8D0F9E2FA62DA64DAE4DAEE6
:104C40002EA60E9E109E31A62FA60F9E0FA631AE49
:104C500031AEF1A5F09D119EF09530962F9E0E96E7
:104C6000CC8DEC950B960A96099EC995A88DC89592
:104C7000C98DC98DA88DCA8DAA8DAA9516D7DBE6D8
:104C8000FCF61DF73EFFFDF6DDF6FDFEDDF63EF718
:104C90001EF71DEF1DEF1EEFFDEEFCE61CEF1CEFF7
:104CA000FBDE3BE795C6F3CEAB95C895C98DD1B673
:104CB000B1B6CEA5D5CEB7D6D9D678CE96CE56C675
:104CC000F5BDBBEEFCF6FDF61DF7BCEEBCF6DDF661
:104CD000DDF6FDF6DDF6FDFEDDFE9CF6DDFEBDF645
:104CE000FDFEDDF6DCF6FDFEFDF6DBEE78D6D7DE6A
:104CF000D7CEF6C630A6EC95CA8DAB8DCA8DAA85E7
:104D00008A85AA858A858A858985697D497D087510
:104D10002875487D898DC995A995A895A895C895A8
:104D2000E79DE79D06A606A606A625AE06A627AE23
:104D300049B615E7FCF69CF6BCF6BCF6FDFEDDF6C2
:104D4000BCF6DDF6DDFEDDFEDDF6BCF6BDFEFDFEED
:104D5000DDFE9CF6DCFEBBEE1CF71AE718DFF6D68C
:104D600052BE31AE31A6EF9D0E96CC8DEC95CB8D1B
:104D7000CC8DED95ED952D9E2CA62CAE2BAE4CAE8C
:104D80002CA60EA630A630A610A611A6F6CE19DFC8
:104D90003CEF1CEFFCE61CDFFBD697BE33AECF9595
:104DA000CE95EC95EB95EA9DEA9DEA9DC995C9954E
:104DB000CA95CA95CB95A995CB9D4A8D93BEDADE4F
:104DC0001DEF3DF75DF7FCF6DCF6DCF6BCEE1DFFF3
:104DD0001EFF1DF7FDF61EF7DDF6DDF6FEF6FEF60C
:104DE000FDF61CEFD8DE95CEF4CEAD9D8B95AB9540
:104DF000EC9DEEA594CE96D655CE76CE98D699D685
:104E000099D6DDF6BDEEDDEEDDF6FDF6BCF6DDF69F
:104E1000DDFEDDF6FCF6FDF6DDFEFDFEDDF6BCF6A4
:104E2000DDF6FDF6FDF6DDF6DEF6FDFE9BEEFCF6AC
:104E3000D9DED6CE73B60C9E0A968A8DC98DA98509
:104E4000A985687D898D898D8A8D70B672B671BE8F
:104E5000F5CE53BEAC9D0EAE10AED2C66EBEB0C681
:104E60006EBE6EBE08A649B628B66ABE07A626AEB6
:104E70002DB6B6DEBBF6BBEEBAE6B9E69AEEDCF6C8
:104E8000DCEEBCF6BCF6DDF61EFF1AEF1CEF58DEBA
:104E9000DCEEFEFE1DFFFCF6FCF696DE90C66DB65F
:104EA0004FB62EAE0C9E0C9EEC9D4DA60A9E2BA6D8
:104EB0002CA62CA60CA610A651AE4FB66EBE8FC661
:104EC000B1CE72C6B6CEF7DE3AE71AE7FAE61BF7BE
:104ED0001DF7FDEEBADEBBDEBADEB9CE13A6CF8D6E
:104EE000AD8DEC950DA6CC9D2EA64EAE2B9E0EA69E
:104EF000B4C6B3CE3BE73AE75BEF3CEF1BEF79D6A6
:104F00009DF77CFF7DF77DFF3DFFBCF6DBEE1DF7D7
:104F10001DF71DEFDBE6BBE69BEEFCF6BCEEFDEEFF
:104F2000DDEEBBE6BBDE1BE73BE71BE71BE7B6C6D8
:104F3000CD9DEFA5CD95CB8D6D9DF2B599DE7ADE39
:104F40005AD6DDF6DDF6FDF61DF7DDF6DDF6FDF6EB
:104F5000FDFE1EFF1EFFFDF6FDF6DDF6FDFEDDFE8D
:104F6000DDFEBCEEDDF6BCF6FDF69BE6FCF699DE5A
:104F7000FADEAFA5A995CA95AA8DE995C98DA98D27
:104F8000A98DA88DA98D4C9E8DB6CD9D51BE11B613
:104F900033BE94AD10B66FBECEBEC89DE8A50AAEB6
:104FA0008FBEEAA54AAE28AE06A607AE4CB671CEB5
:104FB000B8E69AEE9CEEB9E6B8DE77DEFAF6FBF6D6
:104FC000FBEEFDEEDBEE1CF7DCE676CED8CEFCE6A3
:104FD0001AE7D9DE77D6B6DEB6D6B2CED4D616E785
:104FE00018E7D6CED4C6EDA5EB9DCA9D49B609AE4D
:104FF000EBA590BED2C6F7D631B691CEB4D6F8E6C0
:10500000FCEE7EFF1BEF1DEFD1A41BF73EFFFDEE74
:105010001CEFBADEB9D6D8D6FAD6B9C614A6AF8573
:10502000D08D91B6D4BE71AE54CFEEA5CB950FA660
:10503000AF9D17CF34B614B69BEF5BEF3BEF3BE76A
:10504000FADE7EF75CEF1DE7DCE61BEFFCE6FBEE2D
:10505000DAE6BADE99D6FBEEBCE618C699CEFDEECE
:105060007DEEBBDE93A5709DB29D73B651B653B66F
:1050700035AED095CF95AE95D7BEF2ADF3BD36CE59
:1050800059D6DDF6FEF6BCEEDDF6FDF6DCEE9CE66E
:10509000FDF6BDF6FEFEFDF61DF7BCEEBCEE7BE6B2
:1050A0003EFFDDF6BCEEFDEEFBDED8D697CE1CE76C
:1050B00078CEB5CE17CFCC9DAEB6AA95AA8DAA8DC7
:1050C000A98DA88D8885CA8D0FA671AED0AD54BEAE
:1050D00054CE71C696CED7DEF4D6F5D691BE4EB676
:1050E000EFC6B1BE0FAEC79DEDC626AE07AE2EBE53
:1050F00073D654D6BCEEDCEEDCEEFDF6FDF6DDF646
:10510000DCEEDCDEFBEEBAEE1EFF3DF77DF757CEA0
:10511000CFB592C673CEB7DEB8DE79EF50C62DBEDE
:1051200032C610BE34DFF5D66FBE6FBE4CBE49B678
:1051300029B649BE0AB6F3D659EF5BEF5BF77DFFA0
:105140001DF71DFF1DF71DF76D9C5DFFFCF6DBE6EF
:10515000F9E613BE50B6F1A577B612A6D195CE8D5D
:10516000EF95ED958C8DEC95AC950CA62DA6CC9D70
:105170004BA651A6B6DF14C7F3AD39DF94BE32AEED
:1051800054AEF9D655C633B611B6B2C630B6F6D659
:10519000DADE99D67CD69BDE9BDE7ADEBDE69CEE1F
:1051A000DCEEFCE6DCDE37BEB395329E32A6AF9570
:1051B000AD8D6B8DCC9572A612AE6D8D4F8D14AEEC
:1051C00058C69CEEDDF6BCEEFDF6DDEEDCEEDDEE67
:1051D000FCEE1DEFFEF6DDEEFDF6DDF6DCE618C6B4
:1051E0007AD6BBE6DBE6B9D6929DCF9D6B8DCD9589
:1051F0008D95CB9DA995E995CA95C995EA8DC98DDF
:10520000C88DC88D68854985ADA5EB8C54C696CEF2
:1052100077D678D6FCEEB8DE98D6D5D6F6D6B4CE0C
:10522000D3CE4FB66DB628A6E69D84958595E89DAC
:105230004BB6D6D698E699EEDAEEFAEE1CFFFCF6FF
:105240001CEFD9DE1CEFDBEEDCEED9DEF3BD19E797
:105250005AEFFCE61AEF3AF792D6D6DED7E696D6A4
:1052600039E71BE7DBE696DE94D650CE6DC64AB62C
:1052700029B64AC6AED6AFD6F3DEB2DEF4E65BFFA1
:10528000FBF61BFFFCF6DAEE32C6F6DE18E7D8E6D0
:105290007AF717DFD1CE4EB632B697C67BE7F9D68E
:1052A000FADE33B614D752E7B4E752D771BE4DB623
:1052B0002CA6CD9D6DB6EED64FC691CE4EB62DAE78
:1052C000F09D55C6F7D6D6CEB5C674BE94C61ADFC5
:1052D0001BE73CEF9AD6B9DEDBE699D69BE6BBDE50
:1052E000BACEDAD6DAE616DF0F9ECD8D109E53AE1B
:1052F00052AEF1BE2DA670B68C8D91B6B4BE34BE42
:1053000099D6DDF6DDF6DDF6FDFEDDF6BCEE7ADEE5
:1053100077CEFADEBCEEDDF6BCEEDCEE9BDEFCE624
:105320001CEFDADE79D69ADEFAE6D9DEF8DED7CEE1
:1053300018D7EEA50CA6E99DAA95EA9DCB95EC9D04
:10534000EB9D6FB672C696D6DADE36C64F9DD8D6BE
:10535000DADEB8DE78D613BEB5CE6FBE8FC6CFCE3E
:105360006BB6E8A5C69DC59D28AE09B6A6A567BEC5
:1053700086A5C68CCAA52FCED6E6DAE6B6DED6D688
:105380001ADFF7CE3BDFB6CE11B6CEA5EDA50FB630
:105390000FBEF8E6B4DEF6DED7E61BF73AEF91BEB5
:1053A000B2C695D672CE4DBE31D7EFCEABC6ACBE2F
:1053B00089BE0BD7CCD6AACEEBD6CAD6CAD6CAD609
:1053C0008ED6D6E619EFD5E692CE4DC6AFCEAECE8E
:1053D000F2D670CE17E73BE73CEF1CEF97DE5BF7AA
:1053E000FBE619DF75C672BED5CE8FAE4FAE8BB65B
:1053F000EC9DEA958CB6EDCEAEC6F0C66FAE30A68B
:10540000B3BEF3C650B64FAE2F9E53A612A633AE10
:1054100095C6B8D6B8D63CE7DCDEDBDEBADEBAD657
:10542000DBCEDCDEFBD6B1952EA6AFC6D1CECDA5A8
:1054300070C6ECA50BAE0ABEAA9DECADACA58FA5BF
:1054400056C6FDF6BDF6DDF69CEEBCEEBDEEBBE647
:10545000F9D6F4B558D6DBEEBBE6DBDEFCE6BBE600
:10546000DAEE99D657C6B5CED3D6F3DEB3D6D5D6B7
:10547000D3D653C6D2CECEC60DC7CFC6AFBED1C6C9
:1054800051B672C6D8E657D657D6B5C5D7C5BAE60F
:1054900099DEBAE6B7D654CE93CE4CBECDC612D75F
:1054A0006CBECBA56AB6CEC610D771E78AC68FD6BA
:1054B0004ECE0CBE8BC6AFCE8ECE4DC60EB62EB621
:1054C0006EB691BE10B650DF50DF4EE771E795E73C
:1054D000F0D6B1D6ADCEC9AD6BBECAAD0AAEE9A5A8
:1054E000CAA5CDCE0FD7EFD66BC68AC6A9CE8BCEB6
:1054F0004BBE49BEABCEA8C668BE0CD768C6A7CE09
:105500002CDFABCE0CD7ECD671CE8BB58BC6A9C633
:105510008ECE8DCEF3D6F2CE92CED9DE18E7D6D689
:1055200016DF53BECF9DCD95AD95CC9D4CB66BBED1
:105530002DAE4EB6B2CEF1B551BE92BEB2BED4C6FD
:1055400092C653BE71BE51B630A6D3BEF3C6F3C6E3
:1055500016D738DFD7D6F9DE97D61AE7FADEDBDEC4
:10556000FAE6FCE6DADE94C613CF0DAE6FBE33D793
:1055700052E7CFD6F1D693CE2EC670CE95DE15C6A5
:10558000BADE1DF7DDF61DFFFBF63DF7FDEEFDF67D
:10559000FDF61DEFDBEE39EE19E67BE6BDF6DCEE3F
:1055A0001CF71DEFFCE6F9E6B1CE6FBE0AAECECE1B
:1055B000CECEAECEEDCE4CB610D7CDCEEED64CB6CE
:1055C00052DF4EBED1C6AB9DB2C539F6F5CCF5C59E
:1055D00099DE79DE9ADED5DE6CBE4AB66BB62AAEAF
:1055E000EDCEC9ADC9A512D7D7F715EFF6EEB8EED7
:1055F000BAEEB7E6D1DE92DE93DE18EF95CE30BE7E
:1056000050C6D5DE39EF97EF35E776E778E758EF04
:10561000B7F731DF29B607A6869D07AE26AE87BE4F
:1056200069B651DF8CC688C64CE70BD74EE70BD75F
:1056300009D787C646BE68C669C627BE46B626B61F
:1056400069C6A9D60ADF0BC6F4E60894236BEAC53F
:105650008AC6C9C60CD70ED72FD730DFEFCE12DFE0
:1056600093CE73CED6CE12B631B636D76FBE2CB629
:1056700013CF51BED4D61BEFFAE6DADEB7D61AE75F
:105680003CEFFAEEB8DED7DEB7DE96CEF3C693BEB9
:10569000D3C694C6DAEF16D715D7B4C6B2BE32BE9B
:1056A00092BED2C64FBE2DB62BAE2AAE4DB6ECADD5
:1056B0004CBE2DBE32C6FAE6BBE6F9EE58D6B8DED1
:1056C000B2B5B6D6B9DEDDEEBDF6BDF6BCF6DDF69A
:1056D000DDF6DCF63AE65CEE3CEEDBFD9AF57BEEC1
:1056E0009DEE9BE6DBEEBDF61DF7D5D6CDC66EBEB4
:1056F0002BAE2DAE0CA66DB629B689C629B649B615
:10570000C7A528B62EAE4EB6D5D5B4D4D3E4B7F6D9
:105710009ADE74DE90CE09B634E7D9E6B4DEF3DE65
:105720004DBE28BE8DCEF8E61AEFBCF65AE65CEE0A
:1057300079E63AF71AEF1BF7FBEEBAE6DAE6B8DEDF
:10574000B5CE1BEF7BDE5BDED7E6F7E694CE34C644
:10575000CBAD6A9DC6A5E7A566B647B6E8AD8BBEDC
:10576000EDCECFD6EFD6CDD6CCD60ED7E9B528B66E
:1057700048BE25BE27BEAACE46BE88CE65BE0CD783
:10578000EBBEEBCE89D52BA432CE8993C248C37928
:10579000839BC9C5AACECDDEF1DE33DF1AF71BEF3E
:1057A0001CF7DCEE1DF73CF7F8E639E732BE2FBEFA
:1057B0004EB64EB697D6FCEEFCEEDBE65BEFDAE6D5
:1057C000DBE657CE19DF34BE35C6B6CE71B62FA68E
:1057D000C8740E9EEE9DAA85C9950DA6ACB68BB673
:1057E000299E2CA629A609A6CA95E99D099E6EB6F2
:1057F00077E70EB693CEDAE6DAE6FBE679D691AD38
:10580000EFA518E7F9E6DAE69ADEFBE699D67AE63E
:10581000DDF6BCEEDDF6DDF6DDF6B7CD95C5DBEEEB
:10582000BDEEDCEEFBEEBAE6DBEEDAE6F6DE17D72F
:1058300093C6D9DE75CEF1B550BE09A62AA68CBE98
:10584000F0C6CBA510BEAEAD73C576CD75D5B2C4CE
:10585000CEC56CCEAAC66ABE6DBE92CEB2CEECAD3F
:105860004AB60BBEF6E699E699E6BBEE9BE69AE6EB
:105870001DFFFCF6DBF6DBEE7CDE5AD69BEE9ADEF5
:1058800073ADDBEEF9D5FAD5F6D574C58EAD699555
:10589000C8AD68BE88C647B6ABBE8AC6EECECDCE12
:1058A000CBCEAAC627B626AEE5AD26AE26AE25AE31
:1058B00005AEC3A565B686BE68BE29B62ABE6DCE46
:1058C000EEDDC9D46AECC7AA8DDC2582A450E46859
:1058D0000592079B058BB2EE39F7B5D6F9F61DFF99
:1058E0001CF71DFF9AE6F9EED7DE72C6B2CEF7DEE0
:1058F00017DFB6D619E718DFF7DEB5CE13B614BE3C
:105900001ADF5ADF76C654C654B6319E8C8DAD95DB
:10591000C8746A7D8B85AC9D50B651B6CC9D0CA6E3
:10592000CA9D6A95888DA995EB9D2CA60AA649AEBD
:105930000AAE90C6F6DEB6DED6DE73C6ADAD10B6E4
:10594000F0AD90A672B6B6CEFADEBAE61BEFDAE696
:10595000FDEEBAE6BCF67DF6D9DDF7C5B4ADD7CD20
:10596000B9D696C674C693CE74CE94CEB4D612C6AB
:1059700094DEBBEEDAE6D7DE0DAEA78DC895C995ED
:105980004FB6EBA5D3B592C533C535D5F0BCACBD8C
:1059900069C6A7C6A8CE27BE28B607AE4ABE6FC640
:1059A000B3D6D9E6FCEEDCEEFCF6BBEE5AE61CF70D
:1059B00018D67ADEF9E6DBEEB9CD18D61ADE59D65E
:1059C00075B58C95CA7C4E9DAB9453CE71CE89C66D
:1059D000AEC6AABE27AE06B6A9C647B668BE45B6CD
:1059E00045B66BBE06AE06A6E59D45B626AE25AE0F
:1059F00026BE4DC64EC66ECEF5DE1AEFD9E6F1CD07
:105A000007A32EED07C369CB71ED279B045987715E
:105A1000E581C3482682E7BA4ECCB9F61AE7FCF610
:105A2000DBEEFCF61BEF3AEF19E7D3D6B1CE71CE21
:105A3000B4CE17DFD7DEB2BE30AE70AE50A693B68E
:105A4000B7CEF6CD17C638CE37CE4F95497DF09DEF
:105A5000B7C6D5B5D3B52F9D4E9DCDA54885A88D8C
:105A6000878D8EAE0A9E29A60DC74BB609AE27AE0E
:105A700006A6C89D0AB64BBEE9B50AAE2AB6ECAD7D
:105A80002EB652A62FA6D1BE71BE94C6D1ADB3C656
:105A9000F2AD6E9D96D6FDF659E6FBEEFDEEBCEE40
:105AA000B3AD6C8D0DAE2EBE15DFF9E699E6F9EEBD
:105AB000B7E6D8DE2FB62CA6289EC79D28AE8FBE8F
:105AC00073BE94C6DAE69ADDDAED4ECCCBCC0ABED4
:105AD000A79D2585E79DE89D6AAE4BB611D7F3D605
